{
  "contractName": "QodReward",
  "abi": [
    {
      "inputs": [
        {
          "internalType": "string",
          "name": "_aesPublicKey",
          "type": "string"
        }
      ],
      "payable": false,
      "stateMutability": "nonpayable",
      "type": "constructor"
    },
    {
      "anonymous": false,
      "inputs": [
        {
          "indexed": false,
          "internalType": "address",
          "name": "consumerAddress",
          "type": "address"
        },
        {
          "indexed": false,
          "internalType": "address",
          "name": "proAddress",
          "type": "address"
        },
        {
          "indexed": false,
          "internalType": "string",
          "name": "score",
          "type": "string"
        }
      ],
      "name": "CalcuQodByConsumer",
      "type": "event"
    },
    {
      "anonymous": false,
      "inputs": [
        {
          "indexed": false,
          "internalType": "address",
          "name": "proAddress",
          "type": "address"
        },
        {
          "indexed": false,
          "internalType": "string",
          "name": "score",
          "type": "string"
        },
        {
          "indexed": false,
          "internalType": "bool",
          "name": "isSelf",
          "type": "bool"
        }
      ],
      "name": "CalcuQodByProvider",
      "type": "event"
    },
    {
      "anonymous": false,
      "inputs": [
        {
          "indexed": false,
          "internalType": "address",
          "name": "proAddress",
          "type": "address"
        },
        {
          "indexed": false,
          "internalType": "uint256",
          "name": "money",
          "type": "uint256"
        }
      ],
      "name": "CalcuRewardByConsumer",
      "type": "event"
    },
    {
      "anonymous": false,
      "inputs": [
        {
          "indexed": false,
          "internalType": "address",
          "name": "proAddress",
          "type": "address"
        },
        {
          "indexed": false,
          "internalType": "uint256",
          "name": "money",
          "type": "uint256"
        },
        {
          "indexed": false,
          "internalType": "bool",
          "name": "isSelf",
          "type": "bool"
        }
      ],
      "name": "CalcuRewardByProvider",
      "type": "event"
    },
    {
      "anonymous": false,
      "inputs": [
        {
          "indexed": false,
          "internalType": "bool",
          "name": "isClear",
          "type": "bool"
        }
      ],
      "name": "ClearLastTrans",
      "type": "event"
    },
    {
      "anonymous": false,
      "inputs": [
        {
          "indexed": false,
          "internalType": "address",
          "name": "consumerAddress",
          "type": "address"
        },
        {
          "indexed": false,
          "internalType": "bool",
          "name": "isAgree",
          "type": "bool"
        }
      ],
      "name": "ConsumerVerifiedQod",
      "type": "event"
    },
    {
      "anonymous": false,
      "inputs": [
        {
          "indexed": false,
          "internalType": "address",
          "name": "consumerAddress",
          "type": "address"
        },
        {
          "indexed": false,
          "internalType": "bool",
          "name": "isAgree",
          "type": "bool"
        }
      ],
      "name": "ConsumerVerifiedReward",
      "type": "event"
    },
    {
      "anonymous": false,
      "inputs": [
        {
          "indexed": false,
          "internalType": "uint256",
          "name": "rewardVote",
          "type": "uint256"
        },
        {
          "indexed": false,
          "internalType": "bool",
          "name": "isAccept",
          "type": "bool"
        }
      ],
      "name": "IsAcceptReward",
      "type": "event"
    },
    {
      "anonymous": false,
      "inputs": [
        {
          "indexed": false,
          "internalType": "address",
          "name": "proAddress",
          "type": "address"
        },
        {
          "indexed": false,
          "internalType": "uint256",
          "name": "qodVote",
          "type": "uint256"
        },
        {
          "indexed": false,
          "internalType": "bool",
          "name": "isAgree",
          "type": "bool"
        }
      ],
      "name": "ProviderVerifiedQod",
      "type": "event"
    },
    {
      "anonymous": false,
      "inputs": [
        {
          "indexed": false,
          "internalType": "address",
          "name": "proAddress",
          "type": "address"
        },
        {
          "indexed": false,
          "internalType": "uint256",
          "name": "rewardVote",
          "type": "uint256"
        },
        {
          "indexed": false,
          "internalType": "bool",
          "name": "isAgree",
          "type": "bool"
        }
      ],
      "name": "ProviderVerifiedReward",
      "type": "event"
    },
    {
      "anonymous": false,
      "inputs": [
        {
          "indexed": false,
          "internalType": "uint256",
          "name": "tMoney",
          "type": "uint256"
        }
      ],
      "name": "PublishMoney",
      "type": "event"
    },
    {
      "anonymous": false,
      "inputs": [
        {
          "indexed": false,
          "internalType": "string[]",
          "name": "ipfsDataHashArry",
          "type": "string[]"
        },
        {
          "indexed": false,
          "internalType": "address",
          "name": "proAddress",
          "type": "address"
        },
        {
          "indexed": false,
          "internalType": "bool",
          "name": "isSaveSuccess",
          "type": "bool"
        }
      ],
      "name": "SaveIpfs",
      "type": "event"
    },
    {
      "anonymous": false,
      "inputs": [
        {
          "indexed": false,
          "internalType": "uint256",
          "name": "proLen",
          "type": "uint256"
        },
        {
          "indexed": false,
          "internalType": "uint256",
          "name": "sum",
          "type": "uint256"
        },
        {
          "indexed": false,
          "internalType": "bool",
          "name": "isAccept",
          "type": "bool"
        }
      ],
      "name": "StatisticQod",
      "type": "event"
    },
    {
      "anonymous": false,
      "inputs": [
        {
          "indexed": false,
          "internalType": "uint256",
          "name": "proLen",
          "type": "uint256"
        },
        {
          "indexed": false,
          "internalType": "uint256",
          "name": "sum",
          "type": "uint256"
        },
        {
          "indexed": false,
          "internalType": "bool",
          "name": "isAccept",
          "type": "bool"
        }
      ],
      "name": "StatisticReward",
      "type": "event"
    },
    {
      "anonymous": false,
      "inputs": [
        {
          "indexed": false,
          "internalType": "address",
          "name": "from",
          "type": "address"
        },
        {
          "indexed": false,
          "internalType": "address",
          "name": "to",
          "type": "address"
        },
        {
          "indexed": false,
          "internalType": "uint256",
          "name": "value",
          "type": "uint256"
        }
      ],
      "name": "TansferContent",
      "type": "event"
    },
    {
      "anonymous": false,
      "inputs": [
        {
          "indexed": false,
          "internalType": "bool",
          "name": "isAccept",
          "type": "bool"
        },
        {
          "indexed": false,
          "internalType": "bool",
          "name": "IsTransferSuccess",
          "type": "bool"
        }
      ],
      "name": "TransferSuccess",
      "type": "event"
    },
    {
      "constant": true,
      "inputs": [],
      "name": "dataConsumer",
      "outputs": [
        {
          "internalType": "address payable",
          "name": "consumerAddress",
          "type": "address"
        },
        {
          "internalType": "string",
          "name": "ipfsAESPublicKey",
          "type": "string"
        }
      ],
      "payable": false,
      "stateMutability": "view",
      "type": "function"
    },
    {
      "constant": true,
      "inputs": [
        {
          "internalType": "address",
          "name": "",
          "type": "address"
        }
      ],
      "name": "dataProviders",
      "outputs": [
        {
          "internalType": "address payable",
          "name": "providerAddress",
          "type": "address"
        },
        {
          "internalType": "string",
          "name": "aesKey",
          "type": "string"
        },
        {
          "internalType": "string",
          "name": "qodScore",
          "type": "string"
        },
        {
          "internalType": "uint256",
          "name": "pmoney",
          "type": "uint256"
        },
        {
          "internalType": "uint256",
          "name": "qodVote",
          "type": "uint256"
        },
        {
          "internalType": "uint256",
          "name": "rewardVertifyVote",
          "type": "uint256"
        },
        {
          "internalType": "uint256",
          "name": "rewardVote",
          "type": "uint256"
        }
      ],
      "payable": false,
      "stateMutability": "view",
      "type": "function"
    },
    {
      "constant": false,
      "inputs": [
        {
          "internalType": "string[]",
          "name": "ipfsDataHashArry",
          "type": "string[]"
        },
        {
          "internalType": "address payable",
          "name": "proAddress",
          "type": "address"
        }
      ],
      "name": "registerAsProvider",
      "outputs": [],
      "payable": false,
      "stateMutability": "nonpayable",
      "type": "function"
    },
    {
      "constant": false,
      "inputs": [
        {
          "internalType": "address",
          "name": "proAddress",
          "type": "address"
        }
      ],
      "name": "getIPFSData",
      "outputs": [
        {
          "internalType": "string[]",
          "name": "ipfsHashArry",
          "type": "string[]"
        }
      ],
      "payable": false,
      "stateMutability": "nonpayable",
      "type": "function"
    },
    {
      "constant": false,
      "inputs": [
        {
          "internalType": "address",
          "name": "proAddress",
          "type": "address"
        },
        {
          "internalType": "string",
          "name": "score",
          "type": "string"
        }
      ],
      "name": "calcuQodByProvider",
      "outputs": [],
      "payable": false,
      "stateMutability": "nonpayable",
      "type": "function"
    },
    {
      "constant": false,
      "inputs": [
        {
          "internalType": "address",
          "name": "proAddress",
          "type": "address"
        },
        {
          "internalType": "string",
          "name": "score",
          "type": "string"
        }
      ],
      "name": "calcuQodByConsumer",
      "outputs": [],
      "payable": false,
      "stateMutability": "nonpayable",
      "type": "function"
    },
    {
      "constant": false,
      "inputs": [],
      "name": "providerVerifiedQod",
      "outputs": [],
      "payable": false,
      "stateMutability": "nonpayable",
      "type": "function"
    },
    {
      "constant": false,
      "inputs": [],
      "name": "consumerVerifiedQod",
      "outputs": [],
      "payable": false,
      "stateMutability": "nonpayable",
      "type": "function"
    },
    {
      "constant": false,
      "inputs": [],
      "name": "statisticQod",
      "outputs": [
        {
          "internalType": "bool",
          "name": "",
          "type": "bool"
        }
      ],
      "payable": false,
      "stateMutability": "nonpayable",
      "type": "function"
    },
    {
      "constant": false,
      "inputs": [
        {
          "internalType": "uint256",
          "name": "tMoney",
          "type": "uint256"
        }
      ],
      "name": "publishTotalMoney",
      "outputs": [],
      "payable": false,
      "stateMutability": "nonpayable",
      "type": "function"
    },
    {
      "constant": false,
      "inputs": [
        {
          "internalType": "address",
          "name": "proAddress",
          "type": "address"
        },
        {
          "internalType": "uint256",
          "name": "money",
          "type": "uint256"
        }
      ],
      "name": "calcuRewardByProvider",
      "outputs": [],
      "payable": false,
      "stateMutability": "nonpayable",
      "type": "function"
    },
    {
      "constant": false,
      "inputs": [
        {
          "internalType": "address",
          "name": "proAddress",
          "type": "address"
        },
        {
          "internalType": "uint256",
          "name": "money",
          "type": "uint256"
        }
      ],
      "name": "calcuRewardByConsumer",
      "outputs": [],
      "payable": false,
      "stateMutability": "nonpayable",
      "type": "function"
    },
    {
      "constant": false,
      "inputs": [],
      "name": "providerVerifiedReward",
      "outputs": [],
      "payable": false,
      "stateMutability": "nonpayable",
      "type": "function"
    },
    {
      "constant": false,
      "inputs": [],
      "name": "consumerVerifiedReward",
      "outputs": [],
      "payable": false,
      "stateMutability": "nonpayable",
      "type": "function"
    },
    {
      "constant": false,
      "inputs": [],
      "name": "isAcceptReward",
      "outputs": [],
      "payable": false,
      "stateMutability": "nonpayable",
      "type": "function"
    },
    {
      "constant": false,
      "inputs": [],
      "name": "statisticReward",
      "outputs": [
        {
          "internalType": "bool",
          "name": "",
          "type": "bool"
        }
      ],
      "payable": false,
      "stateMutability": "nonpayable",
      "type": "function"
    },
    {
      "constant": false,
      "inputs": [],
      "name": "transferMoney",
      "outputs": [],
      "payable": true,
      "stateMutability": "payable",
      "type": "function"
    },
    {
      "constant": false,
      "inputs": [],
      "name": "clearLastTrans",
      "outputs": [],
      "payable": false,
      "stateMutability": "nonpayable",
      "type": "function"
    }
  ],
  "bytecode": "0x608060405260006005553480156200001657600080fd5b50604051620030e0380380620030e083398181016040526200003c9190810190620001e4565b60405180604001604052803373ffffffffffffffffffffffffffffffffffffffff16815260200182815250600660008201518160000160006101000a81548173ffffffffffffffffffffffffffffffffffffffff021916908373ffffffffffffffffffffffffffffffffffffffff1602179055506020820151816001019080519060200190620000ce929190620000d9565b5090505050620002ba565b828054600181600116156101000203166002900490600052602060002090601f016020900481019282601f106200011c57805160ff19168380011785556200014d565b828001600101855582156200014d579182015b828111156200014c5782518255916020019190600101906200012f565b5b5090506200015c919062000160565b5090565b6200018591905b808211156200018157600081600090555060010162000167565b5090565b90565b600082601f8301126200019a57600080fd5b8151620001b1620001ab8262000257565b62000229565b91508082526020830160208301858383011115620001ce57600080fd5b620001db83828462000284565b50505092915050565b600060208284031215620001f757600080fd5b600082015167ffffffffffffffff8111156200021257600080fd5b620002208482850162000188565b91505092915050565b6000604051905081810181811067ffffffffffffffff821117156200024d57600080fd5b8060405250919050565b600067ffffffffffffffff8211156200026f57600080fd5b601f19601f8301169050602081019050919050565b60005b83811015620002a457808201518184015260208101905062000287565b83811115620002b4576000848401525b50505050565b612e1680620002ca6000396000f3fe6080604052600436106101095760003560e01c80639d5ee58411610095578063d6363ddf11610064578063d6363ddf146102ee578063da6b806314610305578063dda4e1b41461031c578063efbcd41314610345578063efc418e51461036e57610109565b80639d5ee5841461027e578063c01273f614610295578063cb9985f3146102c0578063cbfce9a4146102d757610109565b80636cee6d77116100dc5780636cee6d77146101b4578063780aac03146101be578063811a82b91461020157806397e8ab791461022a5780639cbd86e81461025357610109565b80630157e39e1461010e57806311ba9f781461013757806321a374491461016057806334b27fca14610177575b600080fd5b34801561011a57600080fd5b50610135600480360361013091908101906124c1565b61039a565b005b34801561014357600080fd5b5061015e60048036036101599190810190612551565b6105b2565b005b34801561016c57600080fd5b506101756107da565b005b34801561018357600080fd5b5061019e60048036036101999190810190612498565b610947565b6040516101ab9190612a44565b60405180910390f35b6101bc610aae565b005b3480156101ca57600080fd5b506101e560048036036101e09190810190612498565b610cb6565b6040516101f897969594939291906128f2565b60405180910390f35b34801561020d57600080fd5b50610228600480360361022391908101906125a5565b610e48565b005b34801561023657600080fd5b50610251600480360361024c91908101906124c1565b610e89565b005b34801561025f57600080fd5b50610268610f1c565b6040516102759190612aa4565b60405180910390f35b34801561028a57600080fd5b506102936110fc565b005b3480156102a157600080fd5b506102aa6116b5565b6040516102b79190612aa4565b60405180910390f35b3480156102cc57600080fd5b506102d56117c9565b005b3480156102e357600080fd5b506102ec611b24565b005b3480156102fa57600080fd5b50610303611bf1565b005b34801561031157600080fd5b5061031a611da8565b005b34801561032857600080fd5b50610343600480360361033e9190810190612515565b611df0565b005b34801561035157600080fd5b5061036c60048036036103679190810190612515565b611e71565b005b34801561037a57600080fd5b50610383611fc4565b6040516103919291906128c2565b60405180910390f35b60008090503373ffffffffffffffffffffffffffffffffffffffff168373ffffffffffffffffffffffffffffffffffffffff16141561043257816000808573ffffffffffffffffffffffffffffffffffffffff1673ffffffffffffffffffffffffffffffffffffffff168152602001908152602001600020600301908051906020019061042892919061208e565b5060019050610572565b816000803373ffffffffffffffffffffffffffffffffffffffff1673ffffffffffffffffffffffffffffffffffffffff16815260200190815260200160002060080160008573ffffffffffffffffffffffffffffffffffffffff1673ffffffffffffffffffffffffffffffffffffffff16815260200190815260200160002060000190805190602001906104c792919061208e565b506000803373ffffffffffffffffffffffffffffffffffffffff1673ffffffffffffffffffffffffffffffffffffffff1681526020019081526020016000206009018390806001815401808255809150509060018203906000526020600020016000909192909190916101000a81548173ffffffffffffffffffffffffffffffffffffffff021916908373ffffffffffffffffffffffffffffffffffffffff16021790555050600090505b7f9fb20d56298b9c796cfaf79fe841afc877a1c4ec42dd4ec90b1308b958ccb5ce8383836040516105a5939291906129a6565b60405180910390a1505050565b600080905060008351141580156105f65750600073ffffffffffffffffffffffffffffffffffffffff168273ffffffffffffffffffffffffffffffffffffffff1614155b1561079557826000808473ffffffffffffffffffffffffffffffffffffffff1673ffffffffffffffffffffffffffffffffffffffff168152602001908152602001600020600101908051906020019061065092919061210e565b5060008060008473ffffffffffffffffffffffffffffffffffffffff1673ffffffffffffffffffffffffffffffffffffffff1681526020019081526020016000206005018190555060008060008473ffffffffffffffffffffffffffffffffffffffff1673ffffffffffffffffffffffffffffffffffffffff1681526020019081526020016000206007018190555060008060008473ffffffffffffffffffffffffffffffffffffffff1673ffffffffffffffffffffffffffffffffffffffff1681526020019081526020016000206006018190555060018290806001815401808255809150509060018203906000526020600020016000909192909190916101000a81548173ffffffffffffffffffffffffffffffffffffffff021916908373ffffffffffffffffffffffffffffffffffffffff160217905550506001905061079a565b600090505b7f988e71f2f828f83992c2991e460ddb41d05691712dc6f91aa3f3be9c48d060138383836040516107cd93929190612a66565b60405180910390a1505050565b6000600190506000600180549050905060008090505b81811015610909576000806001838154811061080857fe5b9060005260206000200160009054906101000a900473ffffffffffffffffffffffffffffffffffffffff1673ffffffffffffffffffffffffffffffffffffffff1673ffffffffffffffffffffffffffffffffffffffff16815260200190815260200160002060040154600360006001848154811061088257fe5b9060005260206000200160009054906101000a900473ffffffffffffffffffffffffffffffffffffffff1673ffffffffffffffffffffffffffffffffffffffff1673ffffffffffffffffffffffffffffffffffffffff1681526020019081526020016000205414156108f3576108fc565b60009250610909565b80806001019150506107f0565b507f621f255520538225e82ec1c71c65933178e359e51bc8caedcf415f27e7d2929a338360405161093b929190612899565b60405180910390a15050565b60603373ffffffffffffffffffffffffffffffffffffffff168273ffffffffffffffffffffffffffffffffffffffff161415610aa8576000808373ffffffffffffffffffffffffffffffffffffffff1673ffffffffffffffffffffffffffffffffffffffff168152602001908152602001600020600101805480602002602001604051908101604052809291908181526020016000905b82821015610a9a578382906000526020600020018054600181600116156101000203166002900480601f016020809104026020016040519081016040528092919081815260200182805460018160011615610100020316600290048015610a865780601f10610a5b57610100808354040283529160200191610a86565b820191906000526020600020905b815481529060010190602001808311610a6957829003601f168201915b5050505050815260200190600101906109de565b505050509050809050610aa9565b5b919050565b60008090506000610abd610f1c565b9050600115158115151415610c74576000600180549050905060008090505b81811015610c6957600060018281548110610af357fe5b9060005260206000200160009054906101000a900473ffffffffffffffffffffffffffffffffffffffff1690508073ffffffffffffffffffffffffffffffffffffffff166108fc6000808473ffffffffffffffffffffffffffffffffffffffff1673ffffffffffffffffffffffffffffffffffffffff168152602001908152602001600020600401549081150290604051600060405180830381858888f19350505050158015610ba7573d6000803e3d6000fd5b507f795c827dd9db09df43cf599ac8241631b04f0f85b0bf779517096b53c32f09d63360018481548110610bd757fe5b9060005260206000200160009054906101000a900473ffffffffffffffffffffffffffffffffffffffff166000808573ffffffffffffffffffffffffffffffffffffffff1673ffffffffffffffffffffffffffffffffffffffff16815260200190815260200160002060040154604051610c5393929190612824565b60405180910390a1508080600101915050610adc565b506001925050610c79565b600091505b7f8d8fbaaca4ad51f0c94e89e4eddda9d63e7fbac50ec36cf9a543b69b31c2e8b98183604051610caa929190612abf565b60405180910390a15050565b60006020528060005260406000206000915090508060000160009054906101000a900473ffffffffffffffffffffffffffffffffffffffff1690806002018054600181600116156101000203166002900480601f016020809104026020016040519081016040528092919081815260200182805460018160011615610100020316600290048015610d885780601f10610d5d57610100808354040283529160200191610d88565b820191906000526020600020905b815481529060010190602001808311610d6b57829003601f168201915b505050505090806003018054600181600116156101000203166002900480601f016020809104026020016040519081016040528092919081815260200182805460018160011615610100020316600290048015610e265780601f10610dfb57610100808354040283529160200191610e26565b820191906000526020600020905b815481529060010190602001808311610e0957829003601f168201915b5050505050908060040154908060050154908060060154908060070154905087565b806005819055507f2be1dbffe7404932acf6dd9a97982c2c3ccec04181ee4a5021baa55a3735645081604051610e7e9190612ae8565b60405180910390a150565b80600260008473ffffffffffffffffffffffffffffffffffffffff1673ffffffffffffffffffffffffffffffffffffffff1681526020019081526020016000209080519060200190610edc92919061208e565b507fc3e3f7d3ae9d50cf16014b4e092ea50e1bb4aa56f66d8c8c84c0cc860806e462338383604051610f109392919061285b565b60405180910390a15050565b6000806000905060006001805490509050600080905060008090505b8281101561105957600160008060018481548110610f5257fe5b9060005260206000200160009054906101000a900473ffffffffffffffffffffffffffffffffffffffff1673ffffffffffffffffffffffffffffffffffffffff1673ffffffffffffffffffffffffffffffffffffffff168152602001908152602001600020600601541480156110405750600160008060018481548110610fd557fe5b9060005260206000200160009054906101000a900473ffffffffffffffffffffffffffffffffffffffff1673ffffffffffffffffffffffffffffffffffffffff1673ffffffffffffffffffffffffffffffffffffffff16815260200190815260200160002060070154145b1561104c576001820191505b8080600101915050610f38565b5060006002838161106657fe5b061415611092576002828161107757fe5b04811115611088576001925061108d565b600092505b6110b8565b600260016002840103816110a257fe5b0481106110b257600192506110b7565b600092505b5b7f4f7577793cf1db68d5a92d076c9fbf25b6656acd5a8db7f98afefca5eb8c788d8282856040516110eb93929190612b2c565b60405180910390a182935050505090565b60006001905060008060003373ffffffffffffffffffffffffffffffffffffffff1673ffffffffffffffffffffffffffffffffffffffff1681526020019081526020016000206009018054905090506000803373ffffffffffffffffffffffffffffffffffffffff1673ffffffffffffffffffffffffffffffffffffffff168152602001908152602001600020600901600490805461119c92919061216e565b5060008090505b8181101561163457600080600483815481106111bb57fe5b9060005260206000200160009054906101000a900473ffffffffffffffffffffffffffffffffffffffff1673ffffffffffffffffffffffffffffffffffffffff1673ffffffffffffffffffffffffffffffffffffffff168152602001908152602001600020600401546040516020016112349190612809565b604051602081830303815290604052805190602001206000803373ffffffffffffffffffffffffffffffffffffffff1673ffffffffffffffffffffffffffffffffffffffff16815260200190815260200160002060080160006004848154811061129a57fe5b9060005260206000200160009054906101000a900473ffffffffffffffffffffffffffffffffffffffff1673ffffffffffffffffffffffffffffffffffffffff1673ffffffffffffffffffffffffffffffffffffffff168152602001908152602001600020600101546040516020016113139190612809565b604051602081830303815290604052805190602001201480156114af5750600360006004838154811061134257fe5b9060005260206000200160009054906101000a900473ffffffffffffffffffffffffffffffffffffffff1673ffffffffffffffffffffffffffffffffffffffff1673ffffffffffffffffffffffffffffffffffffffff168152602001908152602001600020546040516020016113b89190612809565b604051602081830303815290604052805190602001206000803373ffffffffffffffffffffffffffffffffffffffff1673ffffffffffffffffffffffffffffffffffffffff16815260200190815260200160002060080160006004848154811061141e57fe5b9060005260206000200160009054906101000a900473ffffffffffffffffffffffffffffffffffffffff1673ffffffffffffffffffffffffffffffffffffffff1673ffffffffffffffffffffffffffffffffffffffff168152602001908152602001600020600101546040516020016114979190612809565b60405160208183030381529060405280519060200120145b80156115865750600360003373ffffffffffffffffffffffffffffffffffffffff1673ffffffffffffffffffffffffffffffffffffffff168152602001908152602001600020546040516020016115069190612809565b604051602081830303815290604052805190602001206000803373ffffffffffffffffffffffffffffffffffffffff1673ffffffffffffffffffffffffffffffffffffffff1681526020019081526020016000206004015460405160200161156e9190612809565b60405160208183030381529060405280519060200120145b156115d75760016000803373ffffffffffffffffffffffffffffffffffffffff1673ffffffffffffffffffffffffffffffffffffffff16815260200190815260200160002060060181905550611627565b60008060003373ffffffffffffffffffffffffffffffffffffffff1673ffffffffffffffffffffffffffffffffffffffff1681526020019081526020016000206006018190555060009250611634565b80806001019150506111a3565b507f20714aea6f3ae48495fae75b80d83406a0a062aa17ee9a7c2074d9e41927c9e7336000803373ffffffffffffffffffffffffffffffffffffffff1673ffffffffffffffffffffffffffffffffffffffff16815260200190815260200160002060060154846040516116a99392919061296f565b60405180910390a15050565b6000806000905060006001805490509050600080905060008090505b8281101561176e576001600080600184815481106116eb57fe5b9060005260206000200160009054906101000a900473ffffffffffffffffffffffffffffffffffffffff1673ffffffffffffffffffffffffffffffffffffffff1673ffffffffffffffffffffffffffffffffffffffff168152602001908152602001600020600501541415611761576001820191505b80806001019150506116d1565b50818114156117805760019250611785565b600092505b7fbcc2eb2d8ae003a424e62afdbdf657cf430fd4a6b33c5edee058ca01fe7d163c8282856040516117b893929190612b2c565b60405180910390a182935050505090565b60006001905060008060003373ffffffffffffffffffffffffffffffffffffffff1673ffffffffffffffffffffffffffffffffffffffff1681526020019081526020016000206009018054905090506000803373ffffffffffffffffffffffffffffffffffffffff1673ffffffffffffffffffffffffffffffffffffffff168152602001908152602001600020600901600490805461186992919061216e565b5060008090505b81811015611aa3576000806004838154811061188857fe5b9060005260206000200160009054906101000a900473ffffffffffffffffffffffffffffffffffffffff1673ffffffffffffffffffffffffffffffffffffffff1673ffffffffffffffffffffffffffffffffffffffff16815260200190815260200160002060030160405160200161190091906127f2565b604051602081830303815290604052805190602001206000803373ffffffffffffffffffffffffffffffffffffffff1673ffffffffffffffffffffffffffffffffffffffff16815260200190815260200160002060080160006004848154811061196657fe5b9060005260206000200160009054906101000a900473ffffffffffffffffffffffffffffffffffffffff1673ffffffffffffffffffffffffffffffffffffffff1673ffffffffffffffffffffffffffffffffffffffff1681526020019081526020016000206000016040516020016119de91906127f2565b604051602081830303815290604052805190602001201415611a465760016000803373ffffffffffffffffffffffffffffffffffffffff1673ffffffffffffffffffffffffffffffffffffffff16815260200190815260200160002060050181905550611a96565b60008060003373ffffffffffffffffffffffffffffffffffffffff1673ffffffffffffffffffffffffffffffffffffffff1681526020019081526020016000206005018190555060009250611aa3565b8080600101915050611870565b507fee1b46bb536d2079e9478d4d53ce537c921040ad57a25a531980a83f9a4b1e17336000803373ffffffffffffffffffffffffffffffffffffffff1673ffffffffffffffffffffffffffffffffffffffff1681526020019081526020016000206005015484604051611b189392919061296f565b60405180910390a15050565b600080905060016000803373ffffffffffffffffffffffffffffffffffffffff1673ffffffffffffffffffffffffffffffffffffffff16815260200190815260200160002060070181905550600190507f97626bb8d621f1b13fafd885a1cdaf6e17d8c16cb9e78d27259b3a7bc1a216cb6000803373ffffffffffffffffffffffffffffffffffffffff1673ffffffffffffffffffffffffffffffffffffffff1681526020019081526020016000206007015482604051611be6929190612b03565b60405180910390a150565b6000600190506000600180549050905060008090505b81811015611d6a5760008060018381548110611c1f57fe5b9060005260206000200160009054906101000a900473ffffffffffffffffffffffffffffffffffffffff1673ffffffffffffffffffffffffffffffffffffffff1673ffffffffffffffffffffffffffffffffffffffff168152602001908152602001600020600301604051602001611c9791906127f2565b604051602081830303815290604052805190602001206002600060018481548110611cbe57fe5b9060005260206000200160009054906101000a900473ffffffffffffffffffffffffffffffffffffffff1673ffffffffffffffffffffffffffffffffffffffff1673ffffffffffffffffffffffffffffffffffffffff168152602001908152602001600020604051602001611d3391906127f2565b604051602081830303815290604052805190602001201415611d5457611d5d565b60009250611d6a565b8080600101915050611c07565b507f30290d9011c3dd6c383e94758bdde0defb146af2c7b383a5988f0ccb4434238a3383604051611d9c929190612899565b60405180910390a15050565b60016000611db691906121c0565b7fa47841374d96a9ef289e193682220ee61fa1a1025768d88c622147eb6c25c4016001604051611de69190612aa4565b60405180910390a1565b80600360008473ffffffffffffffffffffffffffffffffffffffff1673ffffffffffffffffffffffffffffffffffffffff168152602001908152602001600020819055507f6580d9131955a945a78c5a9f51bcb36345f43d0f3ec01195e4e012705c1d38828282604051611e659291906129e4565b60405180910390a15050565b60008090503373ffffffffffffffffffffffffffffffffffffffff168373ffffffffffffffffffffffffffffffffffffffff161415611ef957816000808573ffffffffffffffffffffffffffffffffffffffff1673ffffffffffffffffffffffffffffffffffffffff1681526020019081526020016000206004018190555060019050611f84565b816000803373ffffffffffffffffffffffffffffffffffffffff1673ffffffffffffffffffffffffffffffffffffffff16815260200190815260200160002060080160008573ffffffffffffffffffffffffffffffffffffffff1673ffffffffffffffffffffffffffffffffffffffff16815260200190815260200160002060010181905550600090505b7f3ff2eea47ed68b5cd4f493babb800d449eace179387e15830dd3fa52e593afa7838383604051611fb793929190612a0d565b60405180910390a1505050565b60068060000160009054906101000a900473ffffffffffffffffffffffffffffffffffffffff1690806001018054600181600116156101000203166002900480601f0160208091040260200160405190810160405280929190818152602001828054600181600116156101000203166002900480156120845780601f1061205957610100808354040283529160200191612084565b820191906000526020600020905b81548152906001019060200180831161206757829003601f168201915b5050505050905082565b828054600181600116156101000203166002900490600052602060002090601f016020900481019282601f106120cf57805160ff19168380011785556120fd565b828001600101855582156120fd579182015b828111156120fc5782518255916020019190600101906120e1565b5b50905061210a91906121e1565b5090565b82805482825590600052602060002090810192821561215d579160200282015b8281111561215c57825182908051906020019061214c929190612206565b509160200191906001019061212e565b5b50905061216a9190612286565b5090565b8280548282559060005260206000209081019282156121af5760005260206000209182015b828111156121ae578254825591600101919060010190612193565b5b5090506121bc91906122b2565b5090565b50805460008255906000526020600020908101906121de91906121e1565b50565b61220391905b808211156121ff5760008160009055506001016121e7565b5090565b90565b828054600181600116156101000203166002900490600052602060002090601f016020900481019282601f1061224757805160ff1916838001178555612275565b82800160010185558215612275579182015b82811115612274578251825591602001919060010190612259565b5b50905061228291906121e1565b5090565b6122af91905b808211156122ab57600081816122a291906122f5565b5060010161228c565b5090565b90565b6122f291905b808211156122ee57600081816101000a81549073ffffffffffffffffffffffffffffffffffffffff0219169055506001016122b8565b5090565b90565b50805460018160011615610100020316600290046000825580601f1061231b575061233a565b601f01602090049060005260206000209081019061233991906121e1565b5b50565b60008135905061234c81612d8e565b92915050565b60008135905061236181612da5565b92915050565b600082601f83011261237857600080fd5b813561238b61238682612b90565b612b63565b9150818183526020840193506020810190508360005b838110156123d157813586016123b788826123db565b8452602084019350602083019250506001810190506123a1565b5050505092915050565b600082601f8301126123ec57600080fd5b81356123ff6123fa82612bb8565b612b63565b9150808252602083016020830185838301111561241b57600080fd5b612426838284612d31565b50505092915050565b600082601f83011261244057600080fd5b813561245361244e82612be4565b612b63565b9150808252602083016020830185838301111561246f57600080fd5b61247a838284612d31565b50505092915050565b60008135905061249281612dbc565b92915050565b6000602082840312156124aa57600080fd5b60006124b88482850161233d565b91505092915050565b600080604083850312156124d457600080fd5b60006124e28582860161233d565b925050602083013567ffffffffffffffff8111156124ff57600080fd5b61250b8582860161242f565b9150509250929050565b6000806040838503121561252857600080fd5b60006125368582860161233d565b925050602061254785828601612483565b9150509250929050565b6000806040838503121561256457600080fd5b600083013567ffffffffffffffff81111561257e57600080fd5b61258a85828601612367565b925050602061259b85828601612352565b9150509250929050565b6000602082840312156125b757600080fd5b60006125c584828501612483565b91505092915050565b60006125da83836126cc565b905092915050565b6125eb81612cfb565b82525050565b6125fa81612cb3565b82525050565b61260981612ca1565b82525050565b600061261a82612c35565b6126248185612c63565b93508360208202850161263685612c10565b8060005b85811015612672578484038952815161265385826125ce565b945061265e83612c56565b925060208a0199505060018101905061263a565b50829750879550505050505092915050565b61268d81612cc5565b82525050565b600061269e82612c4b565b6126a88185612c85565b93506126b8818560208601612d40565b6126c181612d7d565b840191505092915050565b60006126d782612c40565b6126e18185612c74565b93506126f1818560208601612d40565b6126fa81612d7d565b840191505092915050565b600061271082612c40565b61271a8185612c85565b935061272a818560208601612d40565b61273381612d7d565b840191505092915050565b60008154600181166000811461275b5760018114612780576127c4565b607f600283041661276c8187612c96565b955060ff19831686528086019350506127c4565b6002820461278e8187612c96565b955061279985612c20565b60005b828110156127bb5781548189015260018201915060208101905061279c565b82880195505050505b505092915050565b6127d581612cf1565b82525050565b6127ec6127e782612cf1565b612d73565b82525050565b60006127fe828461273e565b915081905092915050565b600061281582846127db565b60208201915081905092915050565b600060608201905061283960008301866125e2565b61284660208301856125e2565b61285360408301846127cc565b949350505050565b600060608201905061287060008301866125e2565b61287d6020830185612600565b818103604083015261288f8184612693565b9050949350505050565b60006040820190506128ae60008301856125e2565b6128bb6020830184612684565b9392505050565b60006040820190506128d760008301856125f1565b81810360208301526128e98184612705565b90509392505050565b600060e082019050612907600083018a6125f1565b81810360208301526129198189612705565b9050818103604083015261292d8188612705565b905061293c60608301876127cc565b61294960808301866127cc565b61295660a08301856127cc565b61296360c08301846127cc565b98975050505050505050565b600060608201905061298460008301866125e2565b61299160208301856127cc565b61299e6040830184612684565b949350505050565b60006060820190506129bb6000830186612600565b81810360208301526129cd8185612693565b90506129dc6040830184612684565b949350505050565b60006040820190506129f96000830185612600565b612a0660208301846127cc565b9392505050565b6000606082019050612a226000830186612600565b612a2f60208301856127cc565b612a3c6040830184612684565b949350505050565b60006020820190508181036000830152612a5e818461260f565b905092915050565b60006060820190508181036000830152612a80818661260f565b9050612a8f60208301856125e2565b612a9c6040830184612684565b949350505050565b6000602082019050612ab96000830184612684565b92915050565b6000604082019050612ad46000830185612684565b612ae16020830184612684565b9392505050565b6000602082019050612afd60008301846127cc565b92915050565b6000604082019050612b1860008301856127cc565b612b256020830184612684565b9392505050565b6000606082019050612b4160008301866127cc565b612b4e60208301856127cc565b612b5b6040830184612684565b949350505050565b6000604051905081810181811067ffffffffffffffff82111715612b8657600080fd5b8060405250919050565b600067ffffffffffffffff821115612ba757600080fd5b602082029050602081019050919050565b600067ffffffffffffffff821115612bcf57600080fd5b601f19601f8301169050602081019050919050565b600067ffffffffffffffff821115612bfb57600080fd5b601f19601f8301169050602081019050919050565b6000819050602082019050919050565b60008190508160005260206000209050919050565b600081519050919050565b600081519050919050565b600081519050919050565b6000602082019050919050565b600082825260208201905092915050565b600082825260208201905092915050565b600082825260208201905092915050565b600081905092915050565b6000612cac82612cd1565b9050919050565b6000612cbe82612cd1565b9050919050565b60008115159050919050565b600073ffffffffffffffffffffffffffffffffffffffff82169050919050565b6000819050919050565b6000612d0682612d0d565b9050919050565b6000612d1882612d1f565b9050919050565b6000612d2a82612cd1565b9050919050565b82818337600083830152505050565b60005b83811015612d5e578082015181840152602081019050612d43565b83811115612d6d576000848401525b50505050565b6000819050919050565b6000601f19601f8301169050919050565b612d9781612ca1565b8114612da257600080fd5b50565b612dae81612cb3565b8114612db957600080fd5b50565b612dc581612cf1565b8114612dd057600080fd5b5056fea365627a7a72315820048359882c38d8014a7c9ee1d93a2b88c786c1460d52b0d88de7621acfcfeaa46c6578706572696d656e74616cf564736f6c63430005100040",
  "source": "pragma solidity ^0.5.16;\r\npragma experimental ABIEncoderV2;\r\n// import \"strings.sol\";\r\n\r\n\r\ncontract QodReward {\r\n    \r\n    // using strings for *;\r\n    \r\n    struct DataProvider {\r\n    address payable providerAddress;\r\n    string[] ipfsDataHash;\r\n    string aesKey;\r\n    string qodScore;\r\n    uint pmoney;\r\n    uint qodVote;  //qod--01\r\n    uint rewardVertifyVote;  //reward--01\r\n    uint rewardVote;  //reward--01\r\n    mapping(address => OtherDataProvider) otherDataProvider;\r\n    address[] otherProAddressArry;\r\n    }\r\n\r\n    struct OtherDataProvider {\r\n        string qodScore;\r\n        uint pmoney;\r\n    }\r\n\r\n    struct DataConsumer {\r\n        address payable consumerAddress;\r\n        string ipfsAESPublicKey;\r\n    }\r\n\r\n    mapping(address => DataProvider) public dataProviders;\r\n    address payable[] dataProviderAddresses;\r\n    mapping(address => string) qodOfProvider; // providerqodconsumer\r\n    mapping(address => uint) moneyOfProvider;\r\n    address[] otherProAddress;  //provider\r\n\r\n    uint totalMoney = 0;\r\n    \r\n    DataConsumer public dataConsumer;\r\n\r\n    event SaveIpfs(string[] ipfsDataHashArry,address proAddress,bool isSaveSuccess);\r\n\r\n    event CalcuQodByProvider(address proAddress,string score,bool isSelf);\r\n    event CalcuQodByConsumer(address consumerAddress,address proAddress,string score);\r\n    \r\n    event ProviderVerifiedQod(address proAddress,uint qodVote,bool isAgree);\r\n    event ConsumerVerifiedQod(address consumerAddress,bool isAgree);\r\n\r\n    event PublishMoney(uint tMoney);\r\n\r\n    event CalcuRewardByProvider(address proAddress,uint money,bool isSelf);\r\n    event CalcuRewardByConsumer(address proAddress,uint money);\r\n\r\n    event ProviderVerifiedReward(address proAddress,uint rewardVote,bool isAgree);\r\n    event ConsumerVerifiedReward(address consumerAddress,bool isAgree);\r\n    event StatisticQod(uint proLen,uint sum,bool isAccept);\r\n\r\n    event IsAcceptReward(uint rewardVote,bool isAccept);\r\n    event StatisticReward(uint proLen,uint sum,bool isAccept);\r\n    event TansferContent(address from,address to,uint value);\r\n    event TransferSuccess(bool isAccept,bool IsTransferSuccess);\r\n    event ClearLastTrans(bool isClear);\r\n    \r\n    modifier etherProvided() {\r\n        require(msg.value > 0, \"Need ether to be greater than 0\");\r\n        _;\r\n    }\r\n    \r\n    /// Create a new contract\r\n    constructor(string memory _aesPublicKey) public {\r\n        dataConsumer = DataConsumer({\r\n            consumerAddress : msg.sender,\r\n            ipfsAESPublicKey : _aesPublicKey\r\n            });\r\n    }\r\n    \r\n    //1: ipfsHash --hash\r\n    function registerAsProvider (string[] memory ipfsDataHashArry,address payable proAddress) public {\r\n    \r\n        bool isSaveSuccess = false;\r\n        if (ipfsDataHashArry.length != 0 && proAddress != address(0x0)) {\r\n            dataProviders[proAddress].ipfsDataHash = ipfsDataHashArry;\r\n            dataProviders[proAddress].qodVote = 0; //provider\r\n            dataProviders[proAddress].rewardVote = 0;\r\n            dataProviders[proAddress].rewardVertifyVote = 0;\r\n            dataProviderAddresses.push(proAddress);\r\n            isSaveSuccess = true;\r\n        }else{\r\n            isSaveSuccess = false;\r\n        }\r\n\r\n        emit SaveIpfs(ipfsDataHashArry,proAddress,isSaveSuccess);\r\n        \r\n       \r\n    }\r\n    \r\n    //2: 1ipfsHashfanhuigeifuwuqi\r\n    function getIPFSData (address proAddress) public returns (string[] memory ipfsHashArry) {\r\n        if (proAddress == msg.sender){\r\n            ipfsHashArry = dataProviders[proAddress].ipfsDataHash;\r\n            return ipfsHashArry; \r\n        }\r\n    }\r\n    \r\n    // //3AESAES\r\n    // function publishAESKey (address proAddress,string memory aesKey) public returns (bool isSuccess) {\r\n    //     if (proAddress == msg.sender){\r\n    //         dataProviders[proAddress].aesKey = aesKey;\r\n    //         return true;\r\n    //     }else{\r\n    //         return false;\r\n    //     }\r\n    // }\r\n    \r\n    // //3.1: AESKey\r\n    // function getAESKey (address proAddress) public returns(string memory theAesKey){\r\n    //     theAesKey = dataProviders[proAddress].aesKey;\r\n    //     return theAesKey;\r\n    // }\r\n    \r\n    //4.1providerqodqod\r\n    function calcuQodByProvider(address proAddress,string memory score) public {\r\n        bool isSelf = false;\r\n        \r\n        if (proAddress == msg.sender) {\r\n            dataProviders[proAddress].qodScore = score;\r\n            isSelf = true;\r\n        }else{\r\n            dataProviders[msg.sender].otherDataProvider[proAddress].qodScore = score;\r\n            dataProviders[msg.sender].otherProAddressArry.push(proAddress);\r\n            isSelf = false;\r\n        }\r\n\r\n        emit CalcuQodByProvider(proAddress,score,isSelf);\r\n        \r\n    }\r\n    \r\n    //4.2 consumerqod\r\n    function calcuQodByConsumer(address proAddress,string memory score) public {\r\n       qodOfProvider[proAddress] = score;\r\n       emit CalcuQodByConsumer(msg.sender,proAddress,score);\r\n    }\r\n\r\n    //5.1qodproviderqodprovider     \r\n    function providerVerifiedQod() public {\r\n        bool isAgree = true;\r\n\r\n        uint otherProviderSum = dataProviders[msg.sender].otherProAddressArry.length;\r\n        otherProAddress = dataProviders[msg.sender].otherProAddressArry;\r\n        for (uint i = 0;i < otherProviderSum;i++) {\r\n            if (keccak256(abi.encodePacked(dataProviders[msg.sender].otherDataProvider[otherProAddress[i]].qodScore)) == \r\n                keccak256(abi.encodePacked(dataProviders[otherProAddress[i]].qodScore))) {\r\n                dataProviders[msg.sender].qodVote = 1;\r\n                continue;\r\n            }else{\r\n                dataProviders[msg.sender].qodVote = 0; //providervote0\r\n                isAgree = false;\r\n                break;\r\n            }\r\n        }\r\n        emit ProviderVerifiedQod(msg.sender,dataProviders[msg.sender].qodVote,isAgree);\r\n    }\r\n    \r\n    // 5.2 consumerqod\r\n     \r\n    function consumerVerifiedQod() public {\r\n\t\tbool isAgree = true;\r\n        uint proLen = dataProviderAddresses.length;\r\n        for (uint i = 0;i < proLen;i++) {\r\n            if (keccak256(abi.encodePacked(qodOfProvider[dataProviderAddresses[i]])) == \r\n                keccak256(abi.encodePacked(dataProviders[dataProviderAddresses[i]].qodScore))) {\r\n                continue;\r\n            }else{\r\n                isAgree = false;\r\n\t\t\t    break;\r\n            }\r\n        }\r\n        emit ConsumerVerifiedQod(msg.sender,isAgree);\r\n    }\r\n\r\n    //6\r\n    function statisticQod() public returns (bool){\r\n        bool isAccept = false;\r\n        uint proLen = dataProviderAddresses.length;\r\n        uint sum = 0;\r\n        for(uint i = 0;i < proLen;i++) {\r\n            if (dataProviders[dataProviderAddresses[i]].qodVote == 1 ) {\r\n                sum = sum + 1;\r\n            }\r\n        }\r\n        \r\n        //provider\r\n        if (sum == proLen) {\r\n            isAccept = true;\r\n        }else{\r\n            isAccept = false;\r\n        }\r\n\r\n        emit StatisticQod(proLen,sum,isAccept);\r\n        return isAccept;\r\n    }\r\n    \r\n    // //7Consumerqod\r\n    // //7.1 providerqod\r\n    // function getProviderQod(address proAddress) public returns (string memory qod) {\r\n    //     qod = dataProviders[proAddress].qodScore;\r\n    //     return qod;\r\n    // }\r\n    \r\n    //7.2 \r\n    function publishTotalMoney(uint tMoney) public {\r\n        totalMoney = tMoney;\r\n        emit PublishMoney(tMoney);\r\n    }\r\n    \r\n    // //8\r\n    // //8.1.1 provider:\r\n    // function getTotalMoney() public returns (uint tMoney) {\r\n    //     return totalMoney;\r\n    // }\r\n\r\n    //8.1.2 provider:\r\n    function calcuRewardByProvider(address proAddress,uint money) public {\r\n        bool isSelf = false;\r\n        if (proAddress == msg.sender) {\r\n            dataProviders[proAddress].pmoney = money;\r\n            isSelf = true;\r\n        }else{\r\n            dataProviders[msg.sender].otherDataProvider[proAddress].pmoney = money;\r\n            isSelf = false;\r\n        }\r\n        emit CalcuRewardByProvider(proAddress,money,isSelf);\r\n    }\r\n    \r\n    //8.2 consumerprovider\r\n    function calcuRewardByConsumer(address proAddress,uint money) public {\r\n        moneyOfProvider[proAddress] = money;\r\n        emit CalcuRewardByConsumer(proAddress,money);\r\n    }\r\n    \r\n    // //9\r\n    // //9.1 provider  \r\n     function providerVerifiedReward() public {\r\n        bool isAgree = true;\r\n\r\n        uint otherProviderSum = dataProviders[msg.sender].otherProAddressArry.length;\r\n        otherProAddress = dataProviders[msg.sender].otherProAddressArry;\r\n        for (uint i = 0;i < otherProviderSum;i++) {\r\n            if (keccak256(abi.encodePacked(dataProviders[msg.sender].otherDataProvider[otherProAddress[i]].pmoney)) == \r\n                keccak256(abi.encodePacked(dataProviders[otherProAddress[i]].pmoney)) && \r\n                keccak256(abi.encodePacked(dataProviders[msg.sender].otherDataProvider[otherProAddress[i]].pmoney)) == \r\n                keccak256(abi.encodePacked(moneyOfProvider[otherProAddress[i]])) && \r\n                keccak256(abi.encodePacked(dataProviders[msg.sender].pmoney)) == \r\n                keccak256(abi.encodePacked(moneyOfProvider[msg.sender]))) {\r\n                dataProviders[msg.sender].rewardVertifyVote = 1;\r\n                // dataProviders[msg.sender].rewardVote = 1;    \r\n                continue;\r\n            }else{\r\n                dataProviders[msg.sender].rewardVertifyVote = 0;\r\n                // dataProviders[msg.sender].rewardVote = 0;\r\n                isAgree = false;\r\n                break;\r\n            }\r\n            \r\n        }\r\n        \r\n        emit ProviderVerifiedReward(msg.sender,dataProviders[msg.sender].rewardVertifyVote,isAgree);\r\n    }\r\n    \r\n    \r\n    // 9.2 consumer  \r\n     function consumerVerifiedReward() public {\r\n        bool isAgree = true;\r\n        uint proLen = dataProviderAddresses.length;\r\n        for (uint i = 0;i < proLen;i++) {\r\n            if (moneyOfProvider[dataProviderAddresses[i]] == dataProviders[dataProviderAddresses[i]].pmoney) {\r\n                continue;\r\n            }else{\r\n                isAgree = false;\r\n                break;\r\n            }\r\n        }\r\n        emit ConsumerVerifiedReward(msg.sender,isAgree);\r\n    }\r\n    \r\n    \r\n    //10\r\n    function isAcceptReward() public {\r\n        bool accept = false;\r\n        dataProviders[msg.sender].rewardVote = 1;\r\n        accept = true;\r\n        emit IsAcceptReward(dataProviders[msg.sender].rewardVote,accept);\r\n    }\r\n    \r\n    //11\r\n    function statisticReward() public returns (bool) {\r\n        bool isAccept = false;\r\n        uint proLen = dataProviderAddresses.length;\r\n        uint sum = 0;\r\n        for(uint i = 0;i < proLen;i++) {\r\n            if (dataProviders[dataProviderAddresses[i]].rewardVertifyVote == 1 && dataProviders[dataProviderAddresses[i]].rewardVote == 1 ) {\r\n                sum = sum + 1;\r\n            }\r\n        }\r\n        \r\n        if (proLen % 2 == 0){  //\r\n            if (sum > proLen/2) {   //50%\r\n                isAccept = true;\r\n                // return isAccept;\r\n            }else{\r\n                isAccept = false;\r\n                // return isAccept;\r\n            }\r\n        }else{  //\r\n            if (sum >= (proLen+2-1)/2) {    //50%\r\n                isAccept = true;\r\n                // return isAccept;\r\n            }else{\r\n                isAccept = false;\r\n                // return isAccept;\r\n            }\r\n        }\r\n\r\n        emit StatisticReward(proLen,sum,isAccept);\r\n        return isAccept;\r\n        \r\n    }\r\n    \r\n    //12consumer\r\n    //gas\r\n    function transferMoney() payable public {\r\n        bool IsTransferSuccess = false;\r\n        bool isAccept = statisticReward();\r\n        if (isAccept == true){\r\n            //  uint balance = address(this).balance;\r\n             uint proLen = dataProviderAddresses.length;\r\n            for (uint i = 0; i < proLen; i++) {\r\n                address payable _providerAddress = dataProviderAddresses[i];\r\n                address(_providerAddress).transfer(dataProviders[_providerAddress].pmoney);\r\n                emit TansferContent(msg.sender,dataProviderAddresses[i],dataProviders[_providerAddress].pmoney);\r\n            }\r\n            IsTransferSuccess = true;\r\n        }else{\r\n            IsTransferSuccess = false;\r\n        }\r\n        emit TransferSuccess(isAccept,IsTransferSuccess);\r\n    }\r\n    \r\n     //12consumer\r\n    //gas\r\n    // function transferMoney() payable public{\r\n    //     bool IsTransferSuccess = false;\r\n    //     bool isAccept = true;\r\n    //     uint m = 2;\r\n    //     if (isAccept == true){\r\n    //         //  uint balance = address(this).balance;\r\n    //          uint proLen = dataProviderAddresses.length;\r\n    //         for (uint i = 0; i < proLen; i++) {\r\n    //             // dataProviders[_providerAddress].pmoney = 2;\r\n    //             address payable _providerAddress = dataProviderAddresses[i];\r\n    //             address(_providerAddress).transfer(m);\r\n    //             emit TansferContent(msg.sender,dataProviderAddresses[i],m);\r\n    //         }\r\n    //         IsTransferSuccess = true;\r\n    //     }else{\r\n    //         IsTransferSuccess = false;\r\n    //     }\r\n    //     emit TransferSuccess(isAccept,IsTransferSuccess);\r\n    // }\r\n    \r\n    function clearLastTrans() public {\r\n        //consumer\r\n        delete dataProviderAddresses;\r\n        emit ClearLastTrans(true);\r\n    }\r\n    \r\n    \r\n    // //Tool: address change to string\r\n    // function addressToString(address x) public returns (string memory s) {\r\n    //     bytes memory b = new bytes(20);\r\n    //     for (uint i = 0; i < 20; i++)\r\n    //         b[i] = byte(uint8(uint(x) / (2**(8*(19 - i)))));\r\n    //     return string(b);\r\n    // }\r\n    \r\n}",
  "sourcePath": "D:\\LXW\\truffle_proj\\qodpro\\dataTruffleSys\\contracts\\QodReward.sol",
  "compiler": {
    "name": "solc",
    "version": "0.5.16+commit.9c3226ce.Emscripten.clang"
  },
  "schemaVersion": "3.0.23",
  "updatedAt": "2020-03-17T03:44:08.080Z",
  "networkType": "ethereum",
  "devdoc": {
    "methods": {}
  },
  "userdoc": {
    "methods": {
      "constructor": "Create a new contract"
    }
  }
}