{
  "contractName": "QodReward",
  "abi": [
    {
      "inputs": [
        {
          "internalType": "string",
          "name": "_aesPublicKey",
          "type": "string"
        }
      ],
      "payable": false,
      "stateMutability": "nonpayable",
      "type": "constructor"
    },
    {
      "anonymous": false,
      "inputs": [
        {
          "indexed": false,
          "internalType": "string[]",
          "name": "ipfsDataHashArry",
          "type": "string[]"
        },
        {
          "indexed": false,
          "internalType": "address",
          "name": "proAddress",
          "type": "address"
        },
        {
          "indexed": false,
          "internalType": "bool",
          "name": "isSaveSuccess",
          "type": "bool"
        }
      ],
      "name": "SaveIpfs",
      "type": "event"
    },
    {
      "anonymous": false,
      "inputs": [
        {
          "indexed": false,
          "internalType": "address",
          "name": "proAddress",
          "type": "address"
        },
        {
          "indexed": false,
          "internalType": "string",
          "name": "score",
          "type": "string"
        },
        {
          "indexed": false,
          "internalType": "bool",
          "name": "isSelf",
          "type": "bool"
        }
      ],
      "name": "SaveQod",
      "type": "event"
    },
    {
      "constant": true,
      "inputs": [],
      "name": "dataConsumer",
      "outputs": [
        {
          "internalType": "address payable",
          "name": "consumerAddress",
          "type": "address"
        },
        {
          "internalType": "string",
          "name": "ipfsAESPublicKey",
          "type": "string"
        }
      ],
      "payable": false,
      "stateMutability": "view",
      "type": "function"
    },
    {
      "constant": true,
      "inputs": [
        {
          "internalType": "address",
          "name": "",
          "type": "address"
        }
      ],
      "name": "dataProviders",
      "outputs": [
        {
          "internalType": "address payable",
          "name": "providerAddress",
          "type": "address"
        },
        {
          "internalType": "string",
          "name": "aesKey",
          "type": "string"
        },
        {
          "internalType": "string",
          "name": "qodScore",
          "type": "string"
        },
        {
          "internalType": "uint256",
          "name": "pmoney",
          "type": "uint256"
        },
        {
          "internalType": "uint256",
          "name": "qodVote",
          "type": "uint256"
        },
        {
          "internalType": "uint256",
          "name": "rewardVote",
          "type": "uint256"
        }
      ],
      "payable": false,
      "stateMutability": "view",
      "type": "function"
    },
    {
      "constant": false,
      "inputs": [
        {
          "internalType": "string[]",
          "name": "ipfsDataHashArry",
          "type": "string[]"
        },
        {
          "internalType": "address",
          "name": "proAddress",
          "type": "address"
        }
      ],
      "name": "registerAsProvider",
      "outputs": [],
      "payable": false,
      "stateMutability": "nonpayable",
      "type": "function"
    },
    {
      "constant": false,
      "inputs": [
        {
          "internalType": "address",
          "name": "proAddress",
          "type": "address"
        }
      ],
      "name": "getIPFSData",
      "outputs": [
        {
          "internalType": "string[]",
          "name": "ipfsHashArry",
          "type": "string[]"
        }
      ],
      "payable": false,
      "stateMutability": "nonpayable",
      "type": "function"
    },
    {
      "constant": false,
      "inputs": [
        {
          "internalType": "address",
          "name": "proAddress",
          "type": "address"
        },
        {
          "internalType": "string",
          "name": "score",
          "type": "string"
        }
      ],
      "name": "calcuQod",
      "outputs": [],
      "payable": false,
      "stateMutability": "nonpayable",
      "type": "function"
    }
  ],
  "bytecode": "0x608060405260006005553480156200001657600080fd5b50604051620014653803806200146583398181016040526200003c9190810190620001e4565b60405180604001604052803373ffffffffffffffffffffffffffffffffffffffff16815260200182815250600660008201518160000160006101000a81548173ffffffffffffffffffffffffffffffffffffffff021916908373ffffffffffffffffffffffffffffffffffffffff1602179055506020820151816001019080519060200190620000ce929190620000d9565b5090505050620002ba565b828054600181600116156101000203166002900490600052602060002090601f016020900481019282601f106200011c57805160ff19168380011785556200014d565b828001600101855582156200014d579182015b828111156200014c5782518255916020019190600101906200012f565b5b5090506200015c919062000160565b5090565b6200018591905b808211156200018157600081600090555060010162000167565b5090565b90565b600082601f8301126200019a57600080fd5b8151620001b1620001ab8262000257565b62000229565b91508082526020830160208301858383011115620001ce57600080fd5b620001db83828462000284565b50505092915050565b600060208284031215620001f757600080fd5b600082015167ffffffffffffffff8111156200021257600080fd5b620002208482850162000188565b91505092915050565b6000604051905081810181811067ffffffffffffffff821117156200024d57600080fd5b8060405250919050565b600067ffffffffffffffff8211156200026f57600080fd5b601f19601f8301169050602081019050919050565b60005b83811015620002a457808201518184015260208101905062000287565b83811115620002b4576000848401525b50505050565b61119b80620002ca6000396000f3fe608060405234801561001057600080fd5b50600436106100575760003560e01c806311ba9f781461005c57806334b27fca14610078578063780aac03146100a8578063ee8a2716146100dd578063efc418e5146100f9575b600080fd5b61007660048036036100719190810190610c75565b610118565b005b610092600480360361008d9190810190610bf8565b6102f9565b60405161009f9190610f16565b60405180910390f35b6100c260048036036100bd9190810190610bf8565b610460565b6040516100d496959493929190610e69565b60405180910390f35b6100f760048036036100f29190810190610c21565b6105ec565b005b610101610804565b60405161010f929190610e39565b60405180910390f35b6000809050600083511415801561015c5750600073ffffffffffffffffffffffffffffffffffffffff168273ffffffffffffffffffffffffffffffffffffffff1614155b156102b457826000808473ffffffffffffffffffffffffffffffffffffffff1673ffffffffffffffffffffffffffffffffffffffff16815260200190815260200160002060010190805190602001906101b69291906108ce565b5060008060008473ffffffffffffffffffffffffffffffffffffffff1673ffffffffffffffffffffffffffffffffffffffff1681526020019081526020016000206005018190555060008060008473ffffffffffffffffffffffffffffffffffffffff1673ffffffffffffffffffffffffffffffffffffffff1681526020019081526020016000206006018190555060013390806001815401808255809150509060018203906000526020600020016000909192909190916101000a81548173ffffffffffffffffffffffffffffffffffffffff021916908373ffffffffffffffffffffffffffffffffffffffff16021790555050600190506102b9565b600090505b7f988e71f2f828f83992c2991e460ddb41d05691712dc6f91aa3f3be9c48d060138383836040516102ec93929190610f38565b60405180910390a1505050565b60603373ffffffffffffffffffffffffffffffffffffffff168273ffffffffffffffffffffffffffffffffffffffff16141561045a576000808373ffffffffffffffffffffffffffffffffffffffff1673ffffffffffffffffffffffffffffffffffffffff168152602001908152602001600020600101805480602002602001604051908101604052809291908181526020016000905b8282101561044c578382906000526020600020018054600181600116156101000203166002900480601f0160208091040260200160405190810160405280929190818152602001828054600181600116156101000203166002900480156104385780601f1061040d57610100808354040283529160200191610438565b820191906000526020600020905b81548152906001019060200180831161041b57829003601f168201915b505050505081526020019060010190610390565b50505050905080905061045b565b5b919050565b60006020528060005260406000206000915090508060000160009054906101000a900473ffffffffffffffffffffffffffffffffffffffff1690806002018054600181600116156101000203166002900480601f0160208091040260200160405190810160405280929190818152602001828054600181600116156101000203166002900480156105325780601f1061050757610100808354040283529160200191610532565b820191906000526020600020905b81548152906001019060200180831161051557829003601f168201915b505050505090806003018054600181600116156101000203166002900480601f0160208091040260200160405190810160405280929190818152602001828054600181600116156101000203166002900480156105d05780601f106105a5576101008083540402835291602001916105d0565b820191906000526020600020905b8154815290600101906020018083116105b357829003601f168201915b5050505050908060040154908060050154908060060154905086565b60008090503373ffffffffffffffffffffffffffffffffffffffff168373ffffffffffffffffffffffffffffffffffffffff16141561068457816000808573ffffffffffffffffffffffffffffffffffffffff1673ffffffffffffffffffffffffffffffffffffffff168152602001908152602001600020600301908051906020019061067a92919061092e565b50600190506107c4565b816000803373ffffffffffffffffffffffffffffffffffffffff1673ffffffffffffffffffffffffffffffffffffffff16815260200190815260200160002060070160008573ffffffffffffffffffffffffffffffffffffffff1673ffffffffffffffffffffffffffffffffffffffff168152602001908152602001600020600001908051906020019061071992919061092e565b506000803373ffffffffffffffffffffffffffffffffffffffff1673ffffffffffffffffffffffffffffffffffffffff1681526020019081526020016000206008018390806001815401808255809150509060018203906000526020600020016000909192909190916101000a81548173ffffffffffffffffffffffffffffffffffffffff021916908373ffffffffffffffffffffffffffffffffffffffff16021790555050600090505b7f0150ad3a33a1b2c85d979fd134f9a74b583426b923636e84b0e94e3212d52d078383836040516107f793929190610ed8565b60405180910390a1505050565b60068060000160009054906101000a900473ffffffffffffffffffffffffffffffffffffffff1690806001018054600181600116156101000203166002900480601f0160208091040260200160405190810160405280929190818152602001828054600181600116156101000203166002900480156108c45780601f10610899576101008083540402835291602001916108c4565b820191906000526020600020905b8154815290600101906020018083116108a757829003601f168201915b5050505050905082565b82805482825590600052602060002090810192821561091d579160200282015b8281111561091c57825182908051906020019061090c9291906109ae565b50916020019190600101906108ee565b5b50905061092a9190610a2e565b5090565b828054600181600116156101000203166002900490600052602060002090601f016020900481019282601f1061096f57805160ff191683800117855561099d565b8280016001018555821561099d579182015b8281111561099c578251825591602001919060010190610981565b5b5090506109aa9190610a5a565b5090565b828054600181600116156101000203166002900490600052602060002090601f016020900481019282601f106109ef57805160ff1916838001178555610a1d565b82800160010185558215610a1d579182015b82811115610a1c578251825591602001919060010190610a01565b5b509050610a2a9190610a5a565b5090565b610a5791905b80821115610a535760008181610a4a9190610a7f565b50600101610a34565b5090565b90565b610a7c91905b80821115610a78576000816000905550600101610a60565b5090565b90565b50805460018160011615610100020316600290046000825580601f10610aa55750610ac4565b601f016020900490600052602060002090810190610ac39190610a5a565b5b50565b600081359050610ad681611141565b92915050565b600082601f830112610aed57600080fd5b8135610b00610afb82610fa3565b610f76565b9150818183526020840193506020810190508360005b83811015610b465781358601610b2c8882610b50565b845260208401935060208301925050600181019050610b16565b5050505092915050565b600082601f830112610b6157600080fd5b8135610b74610b6f82610fcb565b610f76565b91508082526020830160208301858383011115610b9057600080fd5b610b9b8382846110ee565b50505092915050565b600082601f830112610bb557600080fd5b8135610bc8610bc382610ff7565b610f76565b91508082526020830160208301858383011115610be457600080fd5b610bef8382846110ee565b50505092915050565b600060208284031215610c0a57600080fd5b6000610c1884828501610ac7565b91505092915050565b60008060408385031215610c3457600080fd5b6000610c4285828601610ac7565b925050602083013567ffffffffffffffff811115610c5f57600080fd5b610c6b85828601610ba4565b9150509250929050565b60008060408385031215610c8857600080fd5b600083013567ffffffffffffffff811115610ca257600080fd5b610cae85828601610adc565b9250506020610cbf85828601610ac7565b9150509250929050565b6000610cd58383610db8565b905092915050565b610ce6816110a6565b82525050565b610cf581611094565b82525050565b6000610d0682611033565b610d108185611061565b935083602082028501610d2285611023565b8060005b85811015610d5e5784840389528151610d3f8582610cc9565b9450610d4a83611054565b925060208a01995050600181019050610d26565b50829750879550505050505092915050565b610d79816110b8565b82525050565b6000610d8a82611049565b610d948185611083565b9350610da48185602086016110fd565b610dad81611130565b840191505092915050565b6000610dc38261103e565b610dcd8185611072565b9350610ddd8185602086016110fd565b610de681611130565b840191505092915050565b6000610dfc8261103e565b610e068185611083565b9350610e168185602086016110fd565b610e1f81611130565b840191505092915050565b610e33816110e4565b82525050565b6000604082019050610e4e6000830185610cdd565b8181036020830152610e608184610df1565b90509392505050565b600060c082019050610e7e6000830189610cdd565b8181036020830152610e908188610df1565b90508181036040830152610ea48187610df1565b9050610eb36060830186610e2a565b610ec06080830185610e2a565b610ecd60a0830184610e2a565b979650505050505050565b6000606082019050610eed6000830186610cec565b8181036020830152610eff8185610d7f565b9050610f0e6040830184610d70565b949350505050565b60006020820190508181036000830152610f308184610cfb565b905092915050565b60006060820190508181036000830152610f528186610cfb565b9050610f616020830185610cec565b610f6e6040830184610d70565b949350505050565b6000604051905081810181811067ffffffffffffffff82111715610f9957600080fd5b8060405250919050565b600067ffffffffffffffff821115610fba57600080fd5b602082029050602081019050919050565b600067ffffffffffffffff821115610fe257600080fd5b601f19601f8301169050602081019050919050565b600067ffffffffffffffff82111561100e57600080fd5b601f19601f8301169050602081019050919050565b6000819050602082019050919050565b600081519050919050565b600081519050919050565b600081519050919050565b6000602082019050919050565b600082825260208201905092915050565b600082825260208201905092915050565b600082825260208201905092915050565b600061109f826110c4565b9050919050565b60006110b1826110c4565b9050919050565b60008115159050919050565b600073ffffffffffffffffffffffffffffffffffffffff82169050919050565b6000819050919050565b82818337600083830152505050565b60005b8381101561111b578082015181840152602081019050611100565b8381111561112a576000848401525b50505050565b6000601f19601f8301169050919050565b61114a81611094565b811461115557600080fd5b5056fea365627a7a723158200ca70027f5740c02d322b72d4065ee634648bc442ba76b2524e676206525c7c86c6578706572696d656e74616cf564736f6c63430005100040",
  "source": "pragma solidity ^0.5.16;\r\npragma experimental ABIEncoderV2;\r\n// import \"strings.sol\";\r\n\r\n\r\ncontract QodReward {\r\n    \r\n    // using strings for *;\r\n    \r\n    struct DataProvider {\r\n    address payable providerAddress;\r\n    string[] ipfsDataHash;\r\n    string aesKey;\r\n    string qodScore;\r\n    uint pmoney;\r\n    uint qodVote;  //对qod验证结果进行投票--0：不同意；1：同意\r\n    uint rewardVote;  //对reward分配金额进行投票--0：不同意；1：同意\r\n    mapping(address => OtherDataProvider) otherDataProvider;\r\n    address[] otherProAddressArry;\r\n    }\r\n\r\n    struct OtherDataProvider {\r\n        string qodScore;\r\n        uint pmoney;\r\n    }\r\n\r\n    struct DataConsumer {\r\n        address payable consumerAddress;\r\n        string ipfsAESPublicKey;\r\n    }\r\n\r\n    mapping(address => DataProvider) public dataProviders;\r\n    address payable[] dataProviderAddresses;\r\n    mapping(address => string) qodOfProvider; // 存将所有provider的qod，供consumer查看后决定奖金额数目\r\n    mapping(address => uint) moneyOfProvider;\r\n    address[] otherProAddress;  //存除调用者以外其他的provider地址\r\n\r\n    uint totalMoney = 0;\r\n    \r\n    DataConsumer public dataConsumer;\r\n\r\n    event SaveIpfs(string[] ipfsDataHashArry,address proAddress,bool isSaveSuccess);\r\n    event SaveQod(address proAddress,string score,bool isSelf);\r\n    \r\n    modifier etherProvided() {\r\n        require(msg.value > 0, \"Need ether to be greater than 0\");\r\n        _;\r\n    }\r\n    \r\n    /// Create a new contract\r\n    constructor(string memory _aesPublicKey) public {\r\n        dataConsumer = DataConsumer({\r\n            consumerAddress : msg.sender,\r\n            ipfsAESPublicKey : _aesPublicKey\r\n            });\r\n    }\r\n    \r\n    //1、注册数据提供者到智能合约: 暂存ipfsHash --让hash和消费者以映射形式暂存\r\n    function registerAsProvider (string[] memory ipfsDataHashArry,address proAddress) public {\r\n    \r\n        bool isSaveSuccess = false;\r\n        if (ipfsDataHashArry.length != 0 && proAddress != address(0x0)) {\r\n            dataProviders[proAddress].ipfsDataHash = ipfsDataHashArry;\r\n            dataProviders[proAddress].qodVote = 0; //初始化provider为不同意\r\n            dataProviders[proAddress].rewardVote = 0;\r\n            dataProviderAddresses.push(msg.sender);\r\n            isSaveSuccess = true;\r\n        }else{\r\n            isSaveSuccess = false;\r\n        }\r\n\r\n        emit SaveIpfs(ipfsDataHashArry,proAddress,isSaveSuccess);\r\n        \r\n       \r\n    }\r\n    \r\n    //2、下载实际数据: 将1中存储的ipfsHash取出取出取出fanhuigeifuwuqi取出取出返回给服务器\r\n    function getIPFSData (address proAddress) public returns (string[] memory ipfsHashArry) {\r\n        if (proAddress == msg.sender){\r\n            ipfsHashArry = dataProviders[proAddress].ipfsDataHash;\r\n            return ipfsHashArry; \r\n        }\r\n    }\r\n    \r\n    // //3、公布AES密钥：暂存AES—可用于验证数据、和后面被加密\r\n    // function publishAESKey (address proAddress,string memory aesKey) public returns (bool isSuccess) {\r\n    //     if (proAddress == msg.sender){\r\n    //         dataProviders[proAddress].aesKey = aesKey;\r\n    //         return true;\r\n    //     }else{\r\n    //         return false;\r\n    //     }\r\n    // }\r\n    \r\n    // //3.1: 获取AESKey\r\n    // function getAESKey (address proAddress) public returns(string memory theAesKey){\r\n    //     theAesKey = dataProviders[proAddress].aesKey;\r\n    //     return theAesKey;\r\n    // }\r\n    \r\n    //4、计算qod：将服务器计算的qod暂存起来\r\n    function calcuQod(address proAddress,string memory score) public {\r\n        bool isSelf = false;\r\n        \r\n        if (proAddress == msg.sender) {\r\n            dataProviders[proAddress].qodScore = score;\r\n            isSelf = true;\r\n        }else{\r\n            dataProviders[msg.sender].otherDataProvider[proAddress].qodScore = score;\r\n            dataProviders[msg.sender].otherProAddressArry.push(proAddress);\r\n            isSelf = false;\r\n        }\r\n\r\n        emit SaveQod(proAddress,score,isSelf);\r\n        \r\n    }\r\n    \r\n    // //5、验证qod数据：验证自己算的其他provider的qod是否和那些provider自己算的一致。\r\n    // //若成功，返回自身地址；若失败，返回验证失败的第一个地址。\r\n      \r\n    // function verifiedData() public returns (bool isVerifiedSuccess,string memory allFailProAddress) {\r\n        \r\n    //     uint otherProviderSum = dataProviders[msg.sender].otherProAddressArry.length;\r\n    //     otherProAddress = dataProviders[msg.sender].otherProAddressArry;\r\n    //     for (uint i = 0;i < otherProviderSum;i++) {\r\n    //         if (keccak256(abi.encodePacked(dataProviders[msg.sender].otherDataProvider[otherProAddress[i]].qodScore)) == \r\n    //             keccak256(abi.encodePacked(dataProviders[otherProAddress[i]].qodScore))) {\r\n    //             continue;\r\n    //         }else{\r\n    //             // string memory failProAddress = addressToString(otherProAddress[i]);\r\n    //             allFailProAddress = addressToString(otherProAddress[i]).toSlice().concat(\"+\".toSlice());\r\n    //             dataProviders[msg.sender].qodVote = 0; //验证不通过则本provider的vote为0\r\n    //             return (false,allFailProAddress);\r\n    //         }\r\n    //     }\r\n    //     dataProviders[msg.sender].qodVote = 1; //验证通过则本provider的vote为1\r\n    //     return (true,addressToString(msg.sender));\r\n    // }\r\n    \r\n    // //6、统计同意票数（公共方法：任何人可调用，相当于将投票结果全网公布）\r\n    // function agree() public returns (bool isAllAgree){\r\n    //     uint proLen = dataProviderAddresses.length;\r\n    //     uint sum = 0;\r\n    //     for(uint i = 0;i < proLen;i++) {\r\n    //         if (dataProviders[dataProviderAddresses[i]].qodVote == 1 ) {\r\n    //             sum = sum + 1;\r\n    //         }\r\n    //     }\r\n        \r\n    //     //若同意票数为总provider数目\r\n    //     if (sum == proLen) {\r\n    //         return true;\r\n    //     }else{\r\n    //         return false;\r\n    //     }\r\n    // }\r\n    \r\n    // //7、Consumer获得数据qod；公布奖金额\r\n    // //7.1 获取provider的qod\r\n    // function getProviderQod(address proAddress) public returns (string memory qod) {\r\n    //     qod = dataProviders[proAddress].qodScore;\r\n    //     return qod;\r\n    // }\r\n    \r\n    // //7.2 公布奖金\r\n    // function publishTotalMoney(uint tMoney) public {\r\n    //     totalMoney = tMoney;\r\n    // }\r\n    \r\n    // //8、计算激励金额\r\n    // //8.1.1 provider函数:查在网络中公布的总金额\r\n    // function getTotalMoney() public returns (uint tMoney) {\r\n    //     return totalMoney;\r\n    // }\r\n\r\n    // //8.1.2 provider函数:计算自己和其他人的奖金额\r\n    // function calcuRewardByProvider(address proAddress,uint money) public {\r\n    //     if (proAddress == msg.sender) {\r\n    //         dataProviders[proAddress].pmoney = money;\r\n    //     }else{\r\n    //         dataProviders[msg.sender].otherDataProvider[proAddress].pmoney = money;\r\n    //     }\r\n    // }\r\n    \r\n    // //8.2 consumer函数：计算每个provider的奖金额\r\n    // function calcuRewardByConsumer(address proAddress,uint money) public {\r\n    //     moneyOfProvider[proAddress] = money;\r\n    // }\r\n    \r\n    // //9、验证激励金额\r\n    // //9.1 provider函数\r\n    // // function providerVerifiedReward() public returns (bool isVerifiedSuccess) {\r\n        \r\n    // //     uint otherProviderSum = dataProviders[msg.sender].otherProAddressArry.length;\r\n    // //     otherProAddress = dataProviders[msg.sender].otherProAddressArry;\r\n    // //     for (uint i = 0;i < otherProviderSum;i++) {\r\n    // //         if (keccak256(abi.encodePacked(dataProviders[msg.sender].otherDataProvider[otherProAddress[i]].pmoney)) == \r\n    // //             keccak256(abi.encodePacked(dataProviders[otherProAddress[i]].pmoney)) && \r\n    // //             keccak256(abi.encodePacked(dataProviders[msg.sender].otherDataProvider[otherProAddress[i]].pmoney)) == \r\n    // //             keccak256(abi.encodePacked(moneyOfProvider[otherProAddress[i]])) && \r\n    // //             keccak256(abi.encodePacked(dataProviders[msg.sender].pmoney)) == \r\n    // //             keccak256(abi.encodePacked(moneyOfProvider[msg.sender]))) {\r\n                    \r\n    // //             continue;\r\n    // //         }else{\r\n    // //             dataProviders[msg.sender].rewardVote = 0;\r\n    // //             return false;\r\n    // //         }\r\n    // //     }\r\n    // //     dataProviders[msg.sender].rewardVote = 1;\r\n    // //     return true;\r\n    // // }\r\n    \r\n    //  function providerVerifiedReward() public returns (bool isVerifiedSuccess,string memory allFailProAddress) {\r\n        \r\n    //     uint otherProviderSum = dataProviders[msg.sender].otherProAddressArry.length;\r\n    //     otherProAddress = dataProviders[msg.sender].otherProAddressArry;\r\n    //     for (uint i = 0;i < otherProviderSum;i++) {\r\n    //         if (keccak256(abi.encodePacked(dataProviders[msg.sender].otherDataProvider[otherProAddress[i]].pmoney)) == \r\n    //             keccak256(abi.encodePacked(dataProviders[otherProAddress[i]].pmoney)) && \r\n    //             keccak256(abi.encodePacked(dataProviders[msg.sender].otherDataProvider[otherProAddress[i]].pmoney)) == \r\n    //             keccak256(abi.encodePacked(moneyOfProvider[otherProAddress[i]])) && \r\n    //             keccak256(abi.encodePacked(dataProviders[msg.sender].pmoney)) == \r\n    //             keccak256(abi.encodePacked(moneyOfProvider[msg.sender]))) {\r\n                    \r\n    //             continue;\r\n    //         }else{\r\n    //             allFailProAddress = addressToString(otherProAddress[i]).toSlice().concat(\"+\".toSlice());\r\n    //             dataProviders[msg.sender].rewardVote = 0;\r\n    //             return (false,allFailProAddress);\r\n    //         }\r\n    //     }\r\n    //     dataProviders[msg.sender].rewardVote = 1;\r\n    //     return (true,addressToString(msg.sender));\r\n    // }\r\n    \r\n    \r\n    // //9.2 consumer函数\r\n    // // function consumerVerifiedReward() public returns (bool isVerifiedSuccess,address failProAddress) {\r\n    // //     uint proLen = dataProviderAddresses.length;\r\n    // //     for (uint i = 0;i < proLen;i++) {\r\n    // //         if (moneyOfProvider[dataProviderAddresses[i]] == dataProviders[dataProviderAddresses[i]].pmoney) {\r\n    // //             continue;\r\n    // //         }else{\r\n    // //             failProAddress = dataProviderAddresses[i];\r\n    // //             return (false,failProAddress);\r\n    // //         }\r\n    // //     }\r\n    // //     return (true,msg.sender);\r\n    // // }\r\n    \r\n    \r\n    //  function consumerVerifiedReward() public returns (bool isVerifiedSuccess,string memory allFailProAddress) {\r\n    //     uint proLen = dataProviderAddresses.length;\r\n    //     for (uint i = 0;i < proLen;i++) {\r\n    //         if (moneyOfProvider[dataProviderAddresses[i]] == dataProviders[dataProviderAddresses[i]].pmoney) {\r\n    //             continue;\r\n    //         }else{\r\n    //             // failProAddress = dataProviderAddresses[i];\r\n    //             allFailProAddress = addressToString(otherProAddress[i]).toSlice().concat(\"+\".toSlice());\r\n    //             return (false,allFailProAddress);\r\n    //         }\r\n    //     }\r\n    //     return (true,addressToString(msg.sender));\r\n    // }\r\n    \r\n    \r\n    // //10、数据提供者投票表决是否接受目前的激励金额(已在9.1中实现)\r\n    \r\n    // //11、统计票数（内部函数）\r\n    // function isAcceptReward() internal returns (bool isAccept) {\r\n    //     uint proLen = dataProviderAddresses.length;\r\n    //     uint sum = 0;\r\n    //     for(uint i = 0;i < proLen;i++) {\r\n    //         if (dataProviders[dataProviderAddresses[i]].rewardVote == 1 ) {\r\n    //             sum = sum + 1;\r\n    //         }\r\n    //     }\r\n        \r\n    //     if (proLen % 2 == 0){  //总人数为偶数\r\n    //         if (sum > proLen/2) {   //超过50%同意\r\n    //             return true;\r\n    //         }else{\r\n    //             return false;\r\n    //         }\r\n    //     }else{  //总人数为奇数\r\n    //         if (sum >= (proLen+2-1)/2) {    //超过50%同意\r\n    //             return true;\r\n    //         }else{\r\n    //             return false;\r\n    //         }\r\n    //     }\r\n        \r\n    // }\r\n    \r\n    // //12、发放资金\r\n    // function transferMoney() public returns (string memory result) {\r\n    //     if (isAcceptReward() == true){\r\n    //          uint balance = address(this).balance;\r\n    //          uint proLen = dataProviderAddresses.length;\r\n    //         for (uint i = 0; i < proLen; i++) {\r\n    //             address payable _providerAddress = dataProviderAddresses[i];\r\n    //             _providerAddress.transfer(balance * dataProviders[_providerAddress].pmoney);\r\n    //         }\r\n    //         return \"交易成功\";\r\n    //     }else{\r\n    //         return \"分配金额未达成一致\";\r\n    //     }\r\n    // }\r\n    \r\n    \r\n    \r\n    \r\n    // //Tool: address change to string\r\n    // function addressToString(address x) public returns (string memory s) {\r\n    //     bytes memory b = new bytes(20);\r\n    //     for (uint i = 0; i < 20; i++)\r\n    //         b[i] = byte(uint8(uint(x) / (2**(8*(19 - i)))));\r\n    //     return string(b);\r\n    // }\r\n    \r\n}",
  "sourcePath": "D:\\LXW\\truffle_proj\\qodpro\\dataTruffleSys\\contracts\\QodReward.sol",
  "compiler": {
    "name": "solc",
    "version": "0.5.16+commit.9c3226ce.Emscripten.clang"
  },
  "schemaVersion": "3.0.23",
  "updatedAt": "2020-02-26T11:16:34.881Z",
  "devdoc": {
    "methods": {}
  },
  "userdoc": {
    "methods": {
      "constructor": "Create a new contract"
    }
  }
}