{
  "contractName": "QodReward",
  "abi": [
    {
      "inputs": [
        {
          "internalType": "string",
          "name": "_aesPublicKey",
          "type": "string"
        }
      ],
      "payable": false,
      "stateMutability": "nonpayable",
      "type": "constructor"
    },
    {
      "anonymous": false,
      "inputs": [
        {
          "indexed": false,
          "internalType": "address",
          "name": "proAddress",
          "type": "address"
        },
        {
          "indexed": false,
          "internalType": "uint256",
          "name": "money",
          "type": "uint256"
        }
      ],
      "name": "CalcuRewardByConsumer",
      "type": "event"
    },
    {
      "anonymous": false,
      "inputs": [
        {
          "indexed": false,
          "internalType": "address",
          "name": "proAddress",
          "type": "address"
        },
        {
          "indexed": false,
          "internalType": "uint256",
          "name": "money",
          "type": "uint256"
        },
        {
          "indexed": false,
          "internalType": "bool",
          "name": "isSelf",
          "type": "bool"
        }
      ],
      "name": "CalcuRewardByProvider",
      "type": "event"
    },
    {
      "anonymous": false,
      "inputs": [
        {
          "indexed": false,
          "internalType": "bool",
          "name": "isClear",
          "type": "bool"
        }
      ],
      "name": "ClearLastTrans",
      "type": "event"
    },
    {
      "anonymous": false,
      "inputs": [
        {
          "indexed": false,
          "internalType": "uint256",
          "name": "rewardVote",
          "type": "uint256"
        },
        {
          "indexed": false,
          "internalType": "bool",
          "name": "isAccept",
          "type": "bool"
        }
      ],
      "name": "IsAcceptReward",
      "type": "event"
    },
    {
      "anonymous": false,
      "inputs": [
        {
          "indexed": false,
          "internalType": "address",
          "name": "proAddress",
          "type": "address"
        },
        {
          "indexed": false,
          "internalType": "uint256",
          "name": "rewardVote",
          "type": "uint256"
        },
        {
          "indexed": false,
          "internalType": "bool",
          "name": "isAgree",
          "type": "bool"
        }
      ],
      "name": "ProviderVerifiedReward",
      "type": "event"
    },
    {
      "anonymous": false,
      "inputs": [
        {
          "indexed": false,
          "internalType": "uint256",
          "name": "tMoney",
          "type": "uint256"
        }
      ],
      "name": "PublishMoney",
      "type": "event"
    },
    {
      "anonymous": false,
      "inputs": [
        {
          "indexed": false,
          "internalType": "string[]",
          "name": "ipfsDataHashArry",
          "type": "string[]"
        },
        {
          "indexed": false,
          "internalType": "address",
          "name": "proAddress",
          "type": "address"
        },
        {
          "indexed": false,
          "internalType": "bool",
          "name": "isSaveSuccess",
          "type": "bool"
        }
      ],
      "name": "SaveIpfs",
      "type": "event"
    },
    {
      "anonymous": false,
      "inputs": [
        {
          "indexed": false,
          "internalType": "address",
          "name": "proAddress",
          "type": "address"
        },
        {
          "indexed": false,
          "internalType": "string",
          "name": "score",
          "type": "string"
        },
        {
          "indexed": false,
          "internalType": "bool",
          "name": "isSelf",
          "type": "bool"
        }
      ],
      "name": "SaveQod",
      "type": "event"
    },
    {
      "anonymous": false,
      "inputs": [
        {
          "indexed": false,
          "internalType": "uint256",
          "name": "proLen",
          "type": "uint256"
        },
        {
          "indexed": false,
          "internalType": "uint256",
          "name": "sum",
          "type": "uint256"
        },
        {
          "indexed": false,
          "internalType": "bool",
          "name": "isAccept",
          "type": "bool"
        }
      ],
      "name": "StatisticReward",
      "type": "event"
    },
    {
      "anonymous": false,
      "inputs": [
        {
          "indexed": false,
          "internalType": "address",
          "name": "from",
          "type": "address"
        },
        {
          "indexed": false,
          "internalType": "address",
          "name": "to",
          "type": "address"
        },
        {
          "indexed": false,
          "internalType": "uint256",
          "name": "value",
          "type": "uint256"
        }
      ],
      "name": "TansferContent",
      "type": "event"
    },
    {
      "anonymous": false,
      "inputs": [
        {
          "indexed": false,
          "internalType": "bool",
          "name": "isAccept",
          "type": "bool"
        },
        {
          "indexed": false,
          "internalType": "bool",
          "name": "IsTransferSuccess",
          "type": "bool"
        }
      ],
      "name": "TransferSuccess",
      "type": "event"
    },
    {
      "constant": true,
      "inputs": [],
      "name": "dataConsumer",
      "outputs": [
        {
          "internalType": "address payable",
          "name": "consumerAddress",
          "type": "address"
        },
        {
          "internalType": "string",
          "name": "ipfsAESPublicKey",
          "type": "string"
        }
      ],
      "payable": false,
      "stateMutability": "view",
      "type": "function"
    },
    {
      "constant": true,
      "inputs": [
        {
          "internalType": "address",
          "name": "",
          "type": "address"
        }
      ],
      "name": "dataProviders",
      "outputs": [
        {
          "internalType": "address payable",
          "name": "providerAddress",
          "type": "address"
        },
        {
          "internalType": "string",
          "name": "aesKey",
          "type": "string"
        },
        {
          "internalType": "string",
          "name": "qodScore",
          "type": "string"
        },
        {
          "internalType": "uint256",
          "name": "pmoney",
          "type": "uint256"
        },
        {
          "internalType": "uint256",
          "name": "qodVote",
          "type": "uint256"
        },
        {
          "internalType": "uint256",
          "name": "rewardVertifyVote",
          "type": "uint256"
        },
        {
          "internalType": "uint256",
          "name": "rewardVote",
          "type": "uint256"
        }
      ],
      "payable": false,
      "stateMutability": "view",
      "type": "function"
    },
    {
      "constant": false,
      "inputs": [
        {
          "internalType": "string[]",
          "name": "ipfsDataHashArry",
          "type": "string[]"
        },
        {
          "internalType": "address payable",
          "name": "proAddress",
          "type": "address"
        }
      ],
      "name": "registerAsProvider",
      "outputs": [],
      "payable": false,
      "stateMutability": "nonpayable",
      "type": "function"
    },
    {
      "constant": false,
      "inputs": [
        {
          "internalType": "address",
          "name": "proAddress",
          "type": "address"
        }
      ],
      "name": "getIPFSData",
      "outputs": [
        {
          "internalType": "string[]",
          "name": "ipfsHashArry",
          "type": "string[]"
        }
      ],
      "payable": false,
      "stateMutability": "nonpayable",
      "type": "function"
    },
    {
      "constant": false,
      "inputs": [
        {
          "internalType": "address",
          "name": "proAddress",
          "type": "address"
        },
        {
          "internalType": "string",
          "name": "score",
          "type": "string"
        }
      ],
      "name": "calcuQod",
      "outputs": [],
      "payable": false,
      "stateMutability": "nonpayable",
      "type": "function"
    },
    {
      "constant": false,
      "inputs": [
        {
          "internalType": "uint256",
          "name": "tMoney",
          "type": "uint256"
        }
      ],
      "name": "publishTotalMoney",
      "outputs": [],
      "payable": false,
      "stateMutability": "nonpayable",
      "type": "function"
    },
    {
      "constant": false,
      "inputs": [
        {
          "internalType": "address",
          "name": "proAddress",
          "type": "address"
        },
        {
          "internalType": "uint256",
          "name": "money",
          "type": "uint256"
        }
      ],
      "name": "calcuRewardByProvider",
      "outputs": [],
      "payable": false,
      "stateMutability": "nonpayable",
      "type": "function"
    },
    {
      "constant": false,
      "inputs": [
        {
          "internalType": "address",
          "name": "proAddress",
          "type": "address"
        },
        {
          "internalType": "uint256",
          "name": "money",
          "type": "uint256"
        }
      ],
      "name": "calcuRewardByConsumer",
      "outputs": [],
      "payable": false,
      "stateMutability": "nonpayable",
      "type": "function"
    },
    {
      "constant": false,
      "inputs": [],
      "name": "providerVerifiedReward",
      "outputs": [],
      "payable": false,
      "stateMutability": "nonpayable",
      "type": "function"
    },
    {
      "constant": false,
      "inputs": [],
      "name": "isAcceptReward",
      "outputs": [],
      "payable": false,
      "stateMutability": "nonpayable",
      "type": "function"
    },
    {
      "constant": false,
      "inputs": [],
      "name": "statisticReward",
      "outputs": [
        {
          "internalType": "bool",
          "name": "",
          "type": "bool"
        }
      ],
      "payable": false,
      "stateMutability": "nonpayable",
      "type": "function"
    },
    {
      "constant": false,
      "inputs": [],
      "name": "transferMoney",
      "outputs": [],
      "payable": true,
      "stateMutability": "payable",
      "type": "function"
    },
    {
      "constant": false,
      "inputs": [],
      "name": "clearLastTrans",
      "outputs": [],
      "payable": false,
      "stateMutability": "nonpayable",
      "type": "function"
    }
  ],
  "bytecode": "0x608060405260006005553480156200001657600080fd5b50604051620026ae380380620026ae83398181016040526200003c9190810190620001e4565b60405180604001604052803373ffffffffffffffffffffffffffffffffffffffff16815260200182815250600660008201518160000160006101000a81548173ffffffffffffffffffffffffffffffffffffffff021916908373ffffffffffffffffffffffffffffffffffffffff1602179055506020820151816001019080519060200190620000ce929190620000d9565b5090505050620002ba565b828054600181600116156101000203166002900490600052602060002090601f016020900481019282601f106200011c57805160ff19168380011785556200014d565b828001600101855582156200014d579182015b828111156200014c5782518255916020019190600101906200012f565b5b5090506200015c919062000160565b5090565b6200018591905b808211156200018157600081600090555060010162000167565b5090565b90565b600082601f8301126200019a57600080fd5b8151620001b1620001ab8262000257565b62000229565b91508082526020830160208301858383011115620001ce57600080fd5b620001db83828462000284565b50505092915050565b600060208284031215620001f757600080fd5b600082015167ffffffffffffffff8111156200021257600080fd5b620002208482850162000188565b91505092915050565b6000604051905081810181811067ffffffffffffffff821117156200024d57600080fd5b8060405250919050565b600067ffffffffffffffff8211156200026f57600080fd5b601f19601f8301169050602081019050919050565b60005b83811015620002a457808201518184015260208101905062000287565b83811115620002b4576000848401525b50505050565b6123e480620002ca6000396000f3fe6080604052600436106100c25760003560e01c80639d5ee5841161007f578063dda4e1b411610059578063dda4e1b414610213578063ee8a27161461023c578063efbcd41314610265578063efc418e51461028e576100c2565b80639d5ee584146101ce578063cbfce9a4146101e5578063da6b8063146101fc576100c2565b806311ba9f78146100c757806334b27fca146100f05780636cee6d771461012d578063780aac0314610137578063811a82b91461017a5780639cbd86e8146101a3575b600080fd5b3480156100d357600080fd5b506100ee60048036036100e99190810190611c4b565b6102ba565b005b3480156100fc57600080fd5b5061011760048036036101129190810190611b92565b6104e2565b6040516101249190612032565b60405180910390f35b610135610649565b005b34801561014357600080fd5b5061015e60048036036101599190810190611b92565b610851565b6040516101719796959493929190611ee0565b60405180910390f35b34801561018657600080fd5b506101a1600480360361019c9190810190611c9f565b6109e3565b005b3480156101af57600080fd5b506101b8610a24565b6040516101c59190612092565b60405180910390f35b3480156101da57600080fd5b506101e3610c04565b005b3480156101f157600080fd5b506101fa6111bd565b005b34801561020857600080fd5b5061021161128a565b005b34801561021f57600080fd5b5061023a60048036036102359190810190611c0f565b6112d2565b005b34801561024857600080fd5b50610263600480360361025e9190810190611bbb565b611353565b005b34801561027157600080fd5b5061028c60048036036102879190810190611c0f565b61156b565b005b34801561029a57600080fd5b506102a36116be565b6040516102b1929190611eb0565b60405180910390f35b600080905060008351141580156102fe5750600073ffffffffffffffffffffffffffffffffffffffff168273ffffffffffffffffffffffffffffffffffffffff1614155b1561049d57826000808473ffffffffffffffffffffffffffffffffffffffff1673ffffffffffffffffffffffffffffffffffffffff1681526020019081526020016000206001019080519060200190610358929190611788565b5060008060008473ffffffffffffffffffffffffffffffffffffffff1673ffffffffffffffffffffffffffffffffffffffff1681526020019081526020016000206005018190555060008060008473ffffffffffffffffffffffffffffffffffffffff1673ffffffffffffffffffffffffffffffffffffffff1681526020019081526020016000206007018190555060008060008473ffffffffffffffffffffffffffffffffffffffff1673ffffffffffffffffffffffffffffffffffffffff1681526020019081526020016000206006018190555060018290806001815401808255809150509060018203906000526020600020016000909192909190916101000a81548173ffffffffffffffffffffffffffffffffffffffff021916908373ffffffffffffffffffffffffffffffffffffffff16021790555050600190506104a2565b600090505b7f988e71f2f828f83992c2991e460ddb41d05691712dc6f91aa3f3be9c48d060138383836040516104d593929190612054565b60405180910390a1505050565b60603373ffffffffffffffffffffffffffffffffffffffff168273ffffffffffffffffffffffffffffffffffffffff161415610643576000808373ffffffffffffffffffffffffffffffffffffffff1673ffffffffffffffffffffffffffffffffffffffff168152602001908152602001600020600101805480602002602001604051908101604052809291908181526020016000905b82821015610635578382906000526020600020018054600181600116156101000203166002900480601f0160208091040260200160405190810160405280929190818152602001828054600181600116156101000203166002900480156106215780601f106105f657610100808354040283529160200191610621565b820191906000526020600020905b81548152906001019060200180831161060457829003601f168201915b505050505081526020019060010190610579565b505050509050809050610644565b5b919050565b60008090506000610658610a24565b905060011515811515141561080f576000600180549050905060008090505b818110156108045760006001828154811061068e57fe5b9060005260206000200160009054906101000a900473ffffffffffffffffffffffffffffffffffffffff1690508073ffffffffffffffffffffffffffffffffffffffff166108fc6000808473ffffffffffffffffffffffffffffffffffffffff1673ffffffffffffffffffffffffffffffffffffffff168152602001908152602001600020600401549081150290604051600060405180830381858888f19350505050158015610742573d6000803e3d6000fd5b507f795c827dd9db09df43cf599ac8241631b04f0f85b0bf779517096b53c32f09d6336001848154811061077257fe5b9060005260206000200160009054906101000a900473ffffffffffffffffffffffffffffffffffffffff166000808573ffffffffffffffffffffffffffffffffffffffff1673ffffffffffffffffffffffffffffffffffffffff168152602001908152602001600020600401546040516107ee93929190611e79565b60405180910390a1508080600101915050610677565b506001925050610814565b600091505b7f8d8fbaaca4ad51f0c94e89e4eddda9d63e7fbac50ec36cf9a543b69b31c2e8b981836040516108459291906120ad565b60405180910390a15050565b60006020528060005260406000206000915090508060000160009054906101000a900473ffffffffffffffffffffffffffffffffffffffff1690806002018054600181600116156101000203166002900480601f0160208091040260200160405190810160405280929190818152602001828054600181600116156101000203166002900480156109235780601f106108f857610100808354040283529160200191610923565b820191906000526020600020905b81548152906001019060200180831161090657829003601f168201915b505050505090806003018054600181600116156101000203166002900480601f0160208091040260200160405190810160405280929190818152602001828054600181600116156101000203166002900480156109c15780601f10610996576101008083540402835291602001916109c1565b820191906000526020600020905b8154815290600101906020018083116109a457829003601f168201915b5050505050908060040154908060050154908060060154908060070154905087565b806005819055507f2be1dbffe7404932acf6dd9a97982c2c3ccec04181ee4a5021baa55a3735645081604051610a1991906120d6565b60405180910390a150565b6000806000905060006001805490509050600080905060008090505b82811015610b6157600160008060018481548110610a5a57fe5b9060005260206000200160009054906101000a900473ffffffffffffffffffffffffffffffffffffffff1673ffffffffffffffffffffffffffffffffffffffff1673ffffffffffffffffffffffffffffffffffffffff16815260200190815260200160002060060154148015610b485750600160008060018481548110610add57fe5b9060005260206000200160009054906101000a900473ffffffffffffffffffffffffffffffffffffffff1673ffffffffffffffffffffffffffffffffffffffff1673ffffffffffffffffffffffffffffffffffffffff16815260200190815260200160002060070154145b15610b54576001820191505b8080600101915050610a40565b50600060028381610b6e57fe5b061415610b9a5760028281610b7f57fe5b04811115610b905760019250610b95565b600092505b610bc0565b60026001600284010381610baa57fe5b048110610bba5760019250610bbf565b600092505b5b7f4f7577793cf1db68d5a92d076c9fbf25b6656acd5a8db7f98afefca5eb8c788d828285604051610bf39392919061211a565b60405180910390a182935050505090565b60006001905060008060003373ffffffffffffffffffffffffffffffffffffffff1673ffffffffffffffffffffffffffffffffffffffff1681526020019081526020016000206009018054905090506000803373ffffffffffffffffffffffffffffffffffffffff1673ffffffffffffffffffffffffffffffffffffffff1681526020019081526020016000206009016004908054610ca49291906117e8565b5060008090505b8181101561113c5760008060048381548110610cc357fe5b9060005260206000200160009054906101000a900473ffffffffffffffffffffffffffffffffffffffff1673ffffffffffffffffffffffffffffffffffffffff1673ffffffffffffffffffffffffffffffffffffffff16815260200190815260200160002060040154604051602001610d3c9190611e5e565b604051602081830303815290604052805190602001206000803373ffffffffffffffffffffffffffffffffffffffff1673ffffffffffffffffffffffffffffffffffffffff168152602001908152602001600020600801600060048481548110610da257fe5b9060005260206000200160009054906101000a900473ffffffffffffffffffffffffffffffffffffffff1673ffffffffffffffffffffffffffffffffffffffff1673ffffffffffffffffffffffffffffffffffffffff16815260200190815260200160002060010154604051602001610e1b9190611e5e565b60405160208183030381529060405280519060200120148015610fb757506003600060048381548110610e4a57fe5b9060005260206000200160009054906101000a900473ffffffffffffffffffffffffffffffffffffffff1673ffffffffffffffffffffffffffffffffffffffff1673ffffffffffffffffffffffffffffffffffffffff16815260200190815260200160002054604051602001610ec09190611e5e565b604051602081830303815290604052805190602001206000803373ffffffffffffffffffffffffffffffffffffffff1673ffffffffffffffffffffffffffffffffffffffff168152602001908152602001600020600801600060048481548110610f2657fe5b9060005260206000200160009054906101000a900473ffffffffffffffffffffffffffffffffffffffff1673ffffffffffffffffffffffffffffffffffffffff1673ffffffffffffffffffffffffffffffffffffffff16815260200190815260200160002060010154604051602001610f9f9190611e5e565b60405160208183030381529060405280519060200120145b801561108e5750600360003373ffffffffffffffffffffffffffffffffffffffff1673ffffffffffffffffffffffffffffffffffffffff1681526020019081526020016000205460405160200161100e9190611e5e565b604051602081830303815290604052805190602001206000803373ffffffffffffffffffffffffffffffffffffffff1673ffffffffffffffffffffffffffffffffffffffff168152602001908152602001600020600401546040516020016110769190611e5e565b60405160208183030381529060405280519060200120145b156110df5760016000803373ffffffffffffffffffffffffffffffffffffffff1673ffffffffffffffffffffffffffffffffffffffff1681526020019081526020016000206006018190555061112f565b60008060003373ffffffffffffffffffffffffffffffffffffffff1673ffffffffffffffffffffffffffffffffffffffff168152602001908152602001600020600601819055506000925061113c565b8080600101915050610cab565b507f20714aea6f3ae48495fae75b80d83406a0a062aa17ee9a7c2074d9e41927c9e7336000803373ffffffffffffffffffffffffffffffffffffffff1673ffffffffffffffffffffffffffffffffffffffff16815260200190815260200160002060060154846040516111b193929190611f5d565b60405180910390a15050565b600080905060016000803373ffffffffffffffffffffffffffffffffffffffff1673ffffffffffffffffffffffffffffffffffffffff16815260200190815260200160002060070181905550600190507f97626bb8d621f1b13fafd885a1cdaf6e17d8c16cb9e78d27259b3a7bc1a216cb6000803373ffffffffffffffffffffffffffffffffffffffff1673ffffffffffffffffffffffffffffffffffffffff168152602001908152602001600020600701548260405161127f9291906120f1565b60405180910390a150565b60016000611298919061183a565b7fa47841374d96a9ef289e193682220ee61fa1a1025768d88c622147eb6c25c40160016040516112c89190612092565b60405180910390a1565b80600360008473ffffffffffffffffffffffffffffffffffffffff1673ffffffffffffffffffffffffffffffffffffffff168152602001908152602001600020819055507f6580d9131955a945a78c5a9f51bcb36345f43d0f3ec01195e4e012705c1d38828282604051611347929190611fd2565b60405180910390a15050565b60008090503373ffffffffffffffffffffffffffffffffffffffff168373ffffffffffffffffffffffffffffffffffffffff1614156113eb57816000808573ffffffffffffffffffffffffffffffffffffffff1673ffffffffffffffffffffffffffffffffffffffff16815260200190815260200160002060030190805190602001906113e192919061185b565b506001905061152b565b816000803373ffffffffffffffffffffffffffffffffffffffff1673ffffffffffffffffffffffffffffffffffffffff16815260200190815260200160002060080160008573ffffffffffffffffffffffffffffffffffffffff1673ffffffffffffffffffffffffffffffffffffffff168152602001908152602001600020600001908051906020019061148092919061185b565b506000803373ffffffffffffffffffffffffffffffffffffffff1673ffffffffffffffffffffffffffffffffffffffff1681526020019081526020016000206009018390806001815401808255809150509060018203906000526020600020016000909192909190916101000a81548173ffffffffffffffffffffffffffffffffffffffff021916908373ffffffffffffffffffffffffffffffffffffffff16021790555050600090505b7f0150ad3a33a1b2c85d979fd134f9a74b583426b923636e84b0e94e3212d52d0783838360405161155e93929190611f94565b60405180910390a1505050565b60008090503373ffffffffffffffffffffffffffffffffffffffff168373ffffffffffffffffffffffffffffffffffffffff1614156115f357816000808573ffffffffffffffffffffffffffffffffffffffff1673ffffffffffffffffffffffffffffffffffffffff168152602001908152602001600020600401819055506001905061167e565b816000803373ffffffffffffffffffffffffffffffffffffffff1673ffffffffffffffffffffffffffffffffffffffff16815260200190815260200160002060080160008573ffffffffffffffffffffffffffffffffffffffff1673ffffffffffffffffffffffffffffffffffffffff16815260200190815260200160002060010181905550600090505b7f3ff2eea47ed68b5cd4f493babb800d449eace179387e15830dd3fa52e593afa78383836040516116b193929190611ffb565b60405180910390a1505050565b60068060000160009054906101000a900473ffffffffffffffffffffffffffffffffffffffff1690806001018054600181600116156101000203166002900480601f01602080910402602001604051908101604052809291908181526020018280546001816001161561010002031660029004801561177e5780601f106117535761010080835404028352916020019161177e565b820191906000526020600020905b81548152906001019060200180831161176157829003601f168201915b5050505050905082565b8280548282559060005260206000209081019282156117d7579160200282015b828111156117d65782518290805190602001906117c69291906118db565b50916020019190600101906117a8565b5b5090506117e4919061195b565b5090565b8280548282559060005260206000209081019282156118295760005260206000209182015b8281111561182857825482559160010191906001019061180d565b5b5090506118369190611987565b5090565b508054600082559060005260206000209081019061185891906119ca565b50565b828054600181600116156101000203166002900490600052602060002090601f016020900481019282601f1061189c57805160ff19168380011785556118ca565b828001600101855582156118ca579182015b828111156118c95782518255916020019190600101906118ae565b5b5090506118d791906119ca565b5090565b828054600181600116156101000203166002900490600052602060002090601f016020900481019282601f1061191c57805160ff191683800117855561194a565b8280016001018555821561194a579182015b8281111561194957825182559160200191906001019061192e565b5b50905061195791906119ca565b5090565b61198491905b80821115611980576000818161197791906119ef565b50600101611961565b5090565b90565b6119c791905b808211156119c357600081816101000a81549073ffffffffffffffffffffffffffffffffffffffff02191690555060010161198d565b5090565b90565b6119ec91905b808211156119e85760008160009055506001016119d0565b5090565b90565b50805460018160011615610100020316600290046000825580601f10611a155750611a34565b601f016020900490600052602060002090810190611a3391906119ca565b5b50565b600081359050611a468161235c565b92915050565b600081359050611a5b81612373565b92915050565b600082601f830112611a7257600080fd5b8135611a85611a808261217e565b612151565b9150818183526020840193506020810190508360005b83811015611acb5781358601611ab18882611ad5565b845260208401935060208301925050600181019050611a9b565b5050505092915050565b600082601f830112611ae657600080fd5b8135611af9611af4826121a6565b612151565b91508082526020830160208301858383011115611b1557600080fd5b611b208382846122ff565b50505092915050565b600082601f830112611b3a57600080fd5b8135611b4d611b48826121d2565b612151565b91508082526020830160208301858383011115611b6957600080fd5b611b748382846122ff565b50505092915050565b600081359050611b8c8161238a565b92915050565b600060208284031215611ba457600080fd5b6000611bb284828501611a37565b91505092915050565b60008060408385031215611bce57600080fd5b6000611bdc85828601611a37565b925050602083013567ffffffffffffffff811115611bf957600080fd5b611c0585828601611b29565b9150509250929050565b60008060408385031215611c2257600080fd5b6000611c3085828601611a37565b9250506020611c4185828601611b7d565b9150509250929050565b60008060408385031215611c5e57600080fd5b600083013567ffffffffffffffff811115611c7857600080fd5b611c8485828601611a61565b9250506020611c9585828601611a4c565b9150509250929050565b600060208284031215611cb157600080fd5b6000611cbf84828501611b7d565b91505092915050565b6000611cd48383611dc6565b905092915050565b611ce5816122c9565b82525050565b611cf481612281565b82525050565b611d038161226f565b82525050565b6000611d148261220e565b611d1e818561223c565b935083602082028501611d30856121fe565b8060005b85811015611d6c5784840389528151611d4d8582611cc8565b9450611d588361222f565b925060208a01995050600181019050611d34565b50829750879550505050505092915050565b611d8781612293565b82525050565b6000611d9882612224565b611da2818561225e565b9350611db281856020860161230e565b611dbb8161234b565b840191505092915050565b6000611dd182612219565b611ddb818561224d565b9350611deb81856020860161230e565b611df48161234b565b840191505092915050565b6000611e0a82612219565b611e14818561225e565b9350611e2481856020860161230e565b611e2d8161234b565b840191505092915050565b611e41816122bf565b82525050565b611e58611e53826122bf565b612341565b82525050565b6000611e6a8284611e47565b60208201915081905092915050565b6000606082019050611e8e6000830186611cdc565b611e9b6020830185611cdc565b611ea86040830184611e38565b949350505050565b6000604082019050611ec56000830185611ceb565b8181036020830152611ed78184611dff565b90509392505050565b600060e082019050611ef5600083018a611ceb565b8181036020830152611f078189611dff565b90508181036040830152611f1b8188611dff565b9050611f2a6060830187611e38565b611f376080830186611e38565b611f4460a0830185611e38565b611f5160c0830184611e38565b98975050505050505050565b6000606082019050611f726000830186611cdc565b611f7f6020830185611e38565b611f8c6040830184611d7e565b949350505050565b6000606082019050611fa96000830186611cfa565b8181036020830152611fbb8185611d8d565b9050611fca6040830184611d7e565b949350505050565b6000604082019050611fe76000830185611cfa565b611ff46020830184611e38565b9392505050565b60006060820190506120106000830186611cfa565b61201d6020830185611e38565b61202a6040830184611d7e565b949350505050565b6000602082019050818103600083015261204c8184611d09565b905092915050565b6000606082019050818103600083015261206e8186611d09565b905061207d6020830185611cdc565b61208a6040830184611d7e565b949350505050565b60006020820190506120a76000830184611d7e565b92915050565b60006040820190506120c26000830185611d7e565b6120cf6020830184611d7e565b9392505050565b60006020820190506120eb6000830184611e38565b92915050565b60006040820190506121066000830185611e38565b6121136020830184611d7e565b9392505050565b600060608201905061212f6000830186611e38565b61213c6020830185611e38565b6121496040830184611d7e565b949350505050565b6000604051905081810181811067ffffffffffffffff8211171561217457600080fd5b8060405250919050565b600067ffffffffffffffff82111561219557600080fd5b602082029050602081019050919050565b600067ffffffffffffffff8211156121bd57600080fd5b601f19601f8301169050602081019050919050565b600067ffffffffffffffff8211156121e957600080fd5b601f19601f8301169050602081019050919050565b6000819050602082019050919050565b600081519050919050565b600081519050919050565b600081519050919050565b6000602082019050919050565b600082825260208201905092915050565b600082825260208201905092915050565b600082825260208201905092915050565b600061227a8261229f565b9050919050565b600061228c8261229f565b9050919050565b60008115159050919050565b600073ffffffffffffffffffffffffffffffffffffffff82169050919050565b6000819050919050565b60006122d4826122db565b9050919050565b60006122e6826122ed565b9050919050565b60006122f88261229f565b9050919050565b82818337600083830152505050565b60005b8381101561232c578082015181840152602081019050612311565b8381111561233b576000848401525b50505050565b6000819050919050565b6000601f19601f8301169050919050565b6123658161226f565b811461237057600080fd5b50565b61237c81612281565b811461238757600080fd5b50565b612393816122bf565b811461239e57600080fd5b5056fea365627a7a72315820e5991f3c0aeb9e879a6c47e676e49ddc8471f82483b41fe5e2353772e7d331f66c6578706572696d656e74616cf564736f6c63430005100040",
  "source": "pragma solidity ^0.5.16;\r\npragma experimental ABIEncoderV2;\r\n// import \"strings.sol\";\r\n\r\n\r\ncontract QodReward {\r\n    \r\n    // using strings for *;\r\n    \r\n    struct DataProvider {\r\n    address payable providerAddress;\r\n    string[] ipfsDataHash;\r\n    string aesKey;\r\n    string qodScore;\r\n    uint pmoney;\r\n    uint qodVote;  //qod--01\r\n    uint rewardVertifyVote;  //reward--01\r\n    uint rewardVote;  //reward--01\r\n    mapping(address => OtherDataProvider) otherDataProvider;\r\n    address[] otherProAddressArry;\r\n    }\r\n\r\n    struct OtherDataProvider {\r\n        string qodScore;\r\n        uint pmoney;\r\n    }\r\n\r\n    struct DataConsumer {\r\n        address payable consumerAddress;\r\n        string ipfsAESPublicKey;\r\n    }\r\n\r\n    mapping(address => DataProvider) public dataProviders;\r\n    address payable[] dataProviderAddresses;\r\n    mapping(address => string) qodOfProvider; // providerqodconsumer\r\n    mapping(address => uint) moneyOfProvider;\r\n    address[] otherProAddress;  //provider\r\n\r\n    uint totalMoney = 0;\r\n    \r\n    DataConsumer public dataConsumer;\r\n\r\n    event SaveIpfs(string[] ipfsDataHashArry,address proAddress,bool isSaveSuccess);\r\n    event SaveQod(address proAddress,string score,bool isSelf);\r\n    event PublishMoney(uint tMoney);\r\n    event CalcuRewardByProvider(address proAddress,uint money,bool isSelf);\r\n    event CalcuRewardByConsumer(address proAddress,uint money);\r\n    event ProviderVerifiedReward(address proAddress,uint rewardVote,bool isAgree);\r\n    event IsAcceptReward(uint rewardVote,bool isAccept);\r\n    event StatisticReward(uint proLen,uint sum,bool isAccept);\r\n    event TansferContent(address from,address to,uint value);\r\n    event TransferSuccess(bool isAccept,bool IsTransferSuccess);\r\n    event ClearLastTrans(bool isClear);\r\n    \r\n    modifier etherProvided() {\r\n        require(msg.value > 0, \"Need ether to be greater than 0\");\r\n        _;\r\n    }\r\n    \r\n    /// Create a new contract\r\n    constructor(string memory _aesPublicKey) public {\r\n        dataConsumer = DataConsumer({\r\n            consumerAddress : msg.sender,\r\n            ipfsAESPublicKey : _aesPublicKey\r\n            });\r\n    }\r\n    \r\n    //1: ipfsHash --hash\r\n    function registerAsProvider (string[] memory ipfsDataHashArry,address payable proAddress) public {\r\n    \r\n        bool isSaveSuccess = false;\r\n        if (ipfsDataHashArry.length != 0 && proAddress != address(0x0)) {\r\n            dataProviders[proAddress].ipfsDataHash = ipfsDataHashArry;\r\n            dataProviders[proAddress].qodVote = 0; //provider\r\n            dataProviders[proAddress].rewardVote = 0;\r\n            dataProviders[proAddress].rewardVertifyVote = 0;\r\n            dataProviderAddresses.push(proAddress);\r\n            isSaveSuccess = true;\r\n        }else{\r\n            isSaveSuccess = false;\r\n        }\r\n\r\n        emit SaveIpfs(ipfsDataHashArry,proAddress,isSaveSuccess);\r\n        \r\n       \r\n    }\r\n    \r\n    //2: 1ipfsHashfanhuigeifuwuqi\r\n    function getIPFSData (address proAddress) public returns (string[] memory ipfsHashArry) {\r\n        if (proAddress == msg.sender){\r\n            ipfsHashArry = dataProviders[proAddress].ipfsDataHash;\r\n            return ipfsHashArry; \r\n        }\r\n    }\r\n    \r\n    // //3AESAES\r\n    // function publishAESKey (address proAddress,string memory aesKey) public returns (bool isSuccess) {\r\n    //     if (proAddress == msg.sender){\r\n    //         dataProviders[proAddress].aesKey = aesKey;\r\n    //         return true;\r\n    //     }else{\r\n    //         return false;\r\n    //     }\r\n    // }\r\n    \r\n    // //3.1: AESKey\r\n    // function getAESKey (address proAddress) public returns(string memory theAesKey){\r\n    //     theAesKey = dataProviders[proAddress].aesKey;\r\n    //     return theAesKey;\r\n    // }\r\n    \r\n    //4qodqod\r\n    function calcuQod(address proAddress,string memory score) public {\r\n        bool isSelf = false;\r\n        \r\n        if (proAddress == msg.sender) {\r\n            dataProviders[proAddress].qodScore = score;\r\n            isSelf = true;\r\n        }else{\r\n            dataProviders[msg.sender].otherDataProvider[proAddress].qodScore = score;\r\n            dataProviders[msg.sender].otherProAddressArry.push(proAddress);\r\n            isSelf = false;\r\n        }\r\n\r\n        emit SaveQod(proAddress,score,isSelf);\r\n        \r\n    }\r\n    \r\n    // //5qodproviderqodprovider\r\n    // //\r\n      \r\n    // function verifiedData() public returns (bool isVerifiedSuccess,string memory allFailProAddress) {\r\n        \r\n    //     uint otherProviderSum = dataProviders[msg.sender].otherProAddressArry.length;\r\n    //     otherProAddress = dataProviders[msg.sender].otherProAddressArry;\r\n    //     for (uint i = 0;i < otherProviderSum;i++) {\r\n    //         if (keccak256(abi.encodePacked(dataProviders[msg.sender].otherDataProvider[otherProAddress[i]].qodScore)) == \r\n    //             keccak256(abi.encodePacked(dataProviders[otherProAddress[i]].qodScore))) {\r\n    //             continue;\r\n    //         }else{\r\n    //             // string memory failProAddress = addressToString(otherProAddress[i]);\r\n    //             allFailProAddress = addressToString(otherProAddress[i]).toSlice().concat(\"+\".toSlice());\r\n    //             dataProviders[msg.sender].qodVote = 0; //providervote0\r\n    //             return (false,allFailProAddress);\r\n    //         }\r\n    //     }\r\n    //     dataProviders[msg.sender].qodVote = 1; //providervote1\r\n    //     return (true,addressToString(msg.sender));\r\n    // }\r\n    \r\n    // //6\r\n    // function agree() public returns (bool isAllAgree){\r\n    //     uint proLen = dataProviderAddresses.length;\r\n    //     uint sum = 0;\r\n    //     for(uint i = 0;i < proLen;i++) {\r\n    //         if (dataProviders[dataProviderAddresses[i]].qodVote == 1 ) {\r\n    //             sum = sum + 1;\r\n    //         }\r\n    //     }\r\n        \r\n    //     //provider\r\n    //     if (sum == proLen) {\r\n    //         return true;\r\n    //     }else{\r\n    //         return false;\r\n    //     }\r\n    // }\r\n    \r\n    // //7Consumerqod\r\n    // //7.1 providerqod\r\n    // function getProviderQod(address proAddress) public returns (string memory qod) {\r\n    //     qod = dataProviders[proAddress].qodScore;\r\n    //     return qod;\r\n    // }\r\n    \r\n    //7.2 \r\n    function publishTotalMoney(uint tMoney) public {\r\n        totalMoney = tMoney;\r\n        emit PublishMoney(tMoney);\r\n    }\r\n    \r\n    // //8\r\n    // //8.1.1 provider:\r\n    // function getTotalMoney() public returns (uint tMoney) {\r\n    //     return totalMoney;\r\n    // }\r\n\r\n    //8.1.2 provider:\r\n    function calcuRewardByProvider(address proAddress,uint money) public {\r\n        bool isSelf = false;\r\n        if (proAddress == msg.sender) {\r\n            dataProviders[proAddress].pmoney = money;\r\n            isSelf = true;\r\n        }else{\r\n            dataProviders[msg.sender].otherDataProvider[proAddress].pmoney = money;\r\n            isSelf = false;\r\n        }\r\n        emit CalcuRewardByProvider(proAddress,money,isSelf);\r\n    }\r\n    \r\n    //8.2 consumerprovider\r\n    function calcuRewardByConsumer(address proAddress,uint money) public {\r\n        moneyOfProvider[proAddress] = money;\r\n        emit CalcuRewardByConsumer(proAddress,money);\r\n    }\r\n    \r\n    // //9\r\n    // //9.1 provider\r\n    // // function providerVerifiedReward() public returns (bool isVerifiedSuccess) {\r\n        \r\n    // //     uint otherProviderSum = dataProviders[msg.sender].otherProAddressArry.length;\r\n    // //     otherProAddress = dataProviders[msg.sender].otherProAddressArry;\r\n    // //     for (uint i = 0;i < otherProviderSum;i++) {\r\n    // //         if (keccak256(abi.encodePacked(dataProviders[msg.sender].otherDataProvider[otherProAddress[i]].pmoney)) == \r\n    // //             keccak256(abi.encodePacked(dataProviders[otherProAddress[i]].pmoney)) && \r\n    // //             keccak256(abi.encodePacked(dataProviders[msg.sender].otherDataProvider[otherProAddress[i]].pmoney)) == \r\n    // //             keccak256(abi.encodePacked(moneyOfProvider[otherProAddress[i]])) && \r\n    // //             keccak256(abi.encodePacked(dataProviders[msg.sender].pmoney)) == \r\n    // //             keccak256(abi.encodePacked(moneyOfProvider[msg.sender]))) {\r\n                    \r\n    // //             continue;\r\n    // //         }else{\r\n    // //             dataProviders[msg.sender].rewardVote = 0;\r\n    // //             return false;\r\n    // //         }\r\n    // //     }\r\n    // //     dataProviders[msg.sender].rewardVote = 1;\r\n    // //     return true;\r\n    // // }\r\n    \r\n     function providerVerifiedReward() public {\r\n        bool isAgree = true;\r\n\r\n        uint otherProviderSum = dataProviders[msg.sender].otherProAddressArry.length;\r\n        otherProAddress = dataProviders[msg.sender].otherProAddressArry;\r\n        for (uint i = 0;i < otherProviderSum;i++) {\r\n            if (keccak256(abi.encodePacked(dataProviders[msg.sender].otherDataProvider[otherProAddress[i]].pmoney)) == \r\n                keccak256(abi.encodePacked(dataProviders[otherProAddress[i]].pmoney)) && \r\n                keccak256(abi.encodePacked(dataProviders[msg.sender].otherDataProvider[otherProAddress[i]].pmoney)) == \r\n                keccak256(abi.encodePacked(moneyOfProvider[otherProAddress[i]])) && \r\n                keccak256(abi.encodePacked(dataProviders[msg.sender].pmoney)) == \r\n                keccak256(abi.encodePacked(moneyOfProvider[msg.sender]))) {\r\n                dataProviders[msg.sender].rewardVertifyVote = 1;\r\n                // dataProviders[msg.sender].rewardVote = 1;    \r\n                continue;\r\n            }else{\r\n                dataProviders[msg.sender].rewardVertifyVote = 0;\r\n                // dataProviders[msg.sender].rewardVote = 0;\r\n                isAgree = false;\r\n                break;\r\n            }\r\n            \r\n        }\r\n        \r\n        emit ProviderVerifiedReward(msg.sender,dataProviders[msg.sender].rewardVertifyVote,isAgree);\r\n    }\r\n    \r\n    \r\n    // //9.2 consumer\r\n    // // function consumerVerifiedReward() public returns (bool isVerifiedSuccess,address failProAddress) {\r\n    // //     uint proLen = dataProviderAddresses.length;\r\n    // //     for (uint i = 0;i < proLen;i++) {\r\n    // //         if (moneyOfProvider[dataProviderAddresses[i]] == dataProviders[dataProviderAddresses[i]].pmoney) {\r\n    // //             continue;\r\n    // //         }else{\r\n    // //             failProAddress = dataProviderAddresses[i];\r\n    // //             return (false,failProAddress);\r\n    // //         }\r\n    // //     }\r\n    // //     return (true,msg.sender);\r\n    // // }\r\n    \r\n    \r\n    //  function consumerVerifiedReward() public returns (bool isVerifiedSuccess,string memory allFailProAddress) {\r\n    //     uint proLen = dataProviderAddresses.length;\r\n    //     for (uint i = 0;i < proLen;i++) {\r\n    //         if (moneyOfProvider[dataProviderAddresses[i]] == dataProviders[dataProviderAddresses[i]].pmoney) {\r\n    //             continue;\r\n    //         }else{\r\n    //             // failProAddress = dataProviderAddresses[i];\r\n    //             allFailProAddress = addressToString(otherProAddress[i]).toSlice().concat(\"+\".toSlice());\r\n    //             return (false,allFailProAddress);\r\n    //         }\r\n    //     }\r\n    //     return (true,addressToString(msg.sender));\r\n    // }\r\n    \r\n    \r\n    //10\r\n    function isAcceptReward() public {\r\n        bool accept = false;\r\n        dataProviders[msg.sender].rewardVote = 1;\r\n        accept = true;\r\n        emit IsAcceptReward(dataProviders[msg.sender].rewardVote,accept);\r\n    }\r\n    \r\n    //11\r\n    function statisticReward() public returns (bool) {\r\n        bool isAccept = false;\r\n        uint proLen = dataProviderAddresses.length;\r\n        uint sum = 0;\r\n        for(uint i = 0;i < proLen;i++) {\r\n            if (dataProviders[dataProviderAddresses[i]].rewardVertifyVote == 1 && dataProviders[dataProviderAddresses[i]].rewardVote == 1 ) {\r\n                sum = sum + 1;\r\n            }\r\n        }\r\n        \r\n        if (proLen % 2 == 0){  //\r\n            if (sum > proLen/2) {   //50%\r\n                isAccept = true;\r\n                // return isAccept;\r\n            }else{\r\n                isAccept = false;\r\n                // return isAccept;\r\n            }\r\n        }else{  //\r\n            if (sum >= (proLen+2-1)/2) {    //50%\r\n                isAccept = true;\r\n                // return isAccept;\r\n            }else{\r\n                isAccept = false;\r\n                // return isAccept;\r\n            }\r\n        }\r\n\r\n        emit StatisticReward(proLen,sum,isAccept);\r\n        return isAccept;\r\n        \r\n    }\r\n    \r\n    //12consumer\r\n    //gas\r\n    function transferMoney() payable public {\r\n        bool IsTransferSuccess = false;\r\n        bool isAccept = statisticReward();\r\n        if (isAccept == true){\r\n            //  uint balance = address(this).balance;\r\n             uint proLen = dataProviderAddresses.length;\r\n            for (uint i = 0; i < proLen; i++) {\r\n                address payable _providerAddress = dataProviderAddresses[i];\r\n                address(_providerAddress).transfer(dataProviders[_providerAddress].pmoney);\r\n                emit TansferContent(msg.sender,dataProviderAddresses[i],dataProviders[_providerAddress].pmoney);\r\n            }\r\n            IsTransferSuccess = true;\r\n        }else{\r\n            IsTransferSuccess = false;\r\n        }\r\n        emit TransferSuccess(isAccept,IsTransferSuccess);\r\n    }\r\n    \r\n     //12consumer\r\n    //gas\r\n    // function transferMoney() payable public{\r\n    //     bool IsTransferSuccess = false;\r\n    //     bool isAccept = true;\r\n    //     uint m = 2;\r\n    //     if (isAccept == true){\r\n    //         //  uint balance = address(this).balance;\r\n    //          uint proLen = dataProviderAddresses.length;\r\n    //         for (uint i = 0; i < proLen; i++) {\r\n    //             // dataProviders[_providerAddress].pmoney = 2;\r\n    //             address payable _providerAddress = dataProviderAddresses[i];\r\n    //             address(_providerAddress).transfer(m);\r\n    //             emit TansferContent(msg.sender,dataProviderAddresses[i],m);\r\n    //         }\r\n    //         IsTransferSuccess = true;\r\n    //     }else{\r\n    //         IsTransferSuccess = false;\r\n    //     }\r\n    //     emit TransferSuccess(isAccept,IsTransferSuccess);\r\n    // }\r\n    \r\n    function clearLastTrans() public {\r\n        //consumer\r\n        delete dataProviderAddresses;\r\n        emit ClearLastTrans(true);\r\n    }\r\n    \r\n    \r\n    // //Tool: address change to string\r\n    // function addressToString(address x) public returns (string memory s) {\r\n    //     bytes memory b = new bytes(20);\r\n    //     for (uint i = 0; i < 20; i++)\r\n    //         b[i] = byte(uint8(uint(x) / (2**(8*(19 - i)))));\r\n    //     return string(b);\r\n    // }\r\n    \r\n}",
  "sourcePath": "D:\\LXW\\truffle_proj\\qodpro\\dataTruffleSys\\contracts\\QodReward.sol",
  "compiler": {
    "name": "solc",
    "version": "0.5.16+commit.9c3226ce.Emscripten.clang"
  },
  "schemaVersion": "3.0.23",
  "updatedAt": "2020-03-12T07:54:03.826Z",
  "networkType": "ethereum",
  "devdoc": {
    "methods": {}
  },
  "userdoc": {
    "methods": {
      "constructor": "Create a new contract"
    }
  }
}