{
  "contractName": "QodReward",
  "abi": [
    {
      "inputs": [
        {
          "internalType": "string",
          "name": "_aesPublicKey",
          "type": "string"
        }
      ],
      "payable": false,
      "stateMutability": "nonpayable",
      "type": "constructor"
    },
    {
      "anonymous": false,
      "inputs": [
        {
          "indexed": false,
          "internalType": "address",
          "name": "proAddress",
          "type": "address"
        },
        {
          "indexed": false,
          "internalType": "uint256",
          "name": "money",
          "type": "uint256"
        }
      ],
      "name": "CalcuRewardByConsumer",
      "type": "event"
    },
    {
      "anonymous": false,
      "inputs": [
        {
          "indexed": false,
          "internalType": "address",
          "name": "proAddress",
          "type": "address"
        },
        {
          "indexed": false,
          "internalType": "uint256",
          "name": "money",
          "type": "uint256"
        },
        {
          "indexed": false,
          "internalType": "bool",
          "name": "isSelf",
          "type": "bool"
        }
      ],
      "name": "CalcuRewardByProvider",
      "type": "event"
    },
    {
      "anonymous": false,
      "inputs": [
        {
          "indexed": false,
          "internalType": "address",
          "name": "proAddress",
          "type": "address"
        },
        {
          "indexed": false,
          "internalType": "uint256",
          "name": "rewardVote",
          "type": "uint256"
        },
        {
          "indexed": false,
          "internalType": "bool",
          "name": "isAgree",
          "type": "bool"
        }
      ],
      "name": "ProviderVerifiedReward",
      "type": "event"
    },
    {
      "anonymous": false,
      "inputs": [
        {
          "indexed": false,
          "internalType": "uint256",
          "name": "tMoney",
          "type": "uint256"
        }
      ],
      "name": "PublishMoney",
      "type": "event"
    },
    {
      "anonymous": false,
      "inputs": [
        {
          "indexed": false,
          "internalType": "string[]",
          "name": "ipfsDataHashArry",
          "type": "string[]"
        },
        {
          "indexed": false,
          "internalType": "address",
          "name": "proAddress",
          "type": "address"
        },
        {
          "indexed": false,
          "internalType": "bool",
          "name": "isSaveSuccess",
          "type": "bool"
        }
      ],
      "name": "SaveIpfs",
      "type": "event"
    },
    {
      "anonymous": false,
      "inputs": [
        {
          "indexed": false,
          "internalType": "address",
          "name": "proAddress",
          "type": "address"
        },
        {
          "indexed": false,
          "internalType": "string",
          "name": "score",
          "type": "string"
        },
        {
          "indexed": false,
          "internalType": "bool",
          "name": "isSelf",
          "type": "bool"
        }
      ],
      "name": "SaveQod",
      "type": "event"
    },
    {
      "constant": true,
      "inputs": [],
      "name": "dataConsumer",
      "outputs": [
        {
          "internalType": "address payable",
          "name": "consumerAddress",
          "type": "address"
        },
        {
          "internalType": "string",
          "name": "ipfsAESPublicKey",
          "type": "string"
        }
      ],
      "payable": false,
      "stateMutability": "view",
      "type": "function"
    },
    {
      "constant": true,
      "inputs": [
        {
          "internalType": "address",
          "name": "",
          "type": "address"
        }
      ],
      "name": "dataProviders",
      "outputs": [
        {
          "internalType": "address payable",
          "name": "providerAddress",
          "type": "address"
        },
        {
          "internalType": "string",
          "name": "aesKey",
          "type": "string"
        },
        {
          "internalType": "string",
          "name": "qodScore",
          "type": "string"
        },
        {
          "internalType": "uint256",
          "name": "pmoney",
          "type": "uint256"
        },
        {
          "internalType": "uint256",
          "name": "qodVote",
          "type": "uint256"
        },
        {
          "internalType": "uint256",
          "name": "rewardVote",
          "type": "uint256"
        }
      ],
      "payable": false,
      "stateMutability": "view",
      "type": "function"
    },
    {
      "constant": false,
      "inputs": [
        {
          "internalType": "string[]",
          "name": "ipfsDataHashArry",
          "type": "string[]"
        },
        {
          "internalType": "address",
          "name": "proAddress",
          "type": "address"
        }
      ],
      "name": "registerAsProvider",
      "outputs": [],
      "payable": false,
      "stateMutability": "nonpayable",
      "type": "function"
    },
    {
      "constant": false,
      "inputs": [
        {
          "internalType": "address",
          "name": "proAddress",
          "type": "address"
        }
      ],
      "name": "getIPFSData",
      "outputs": [
        {
          "internalType": "string[]",
          "name": "ipfsHashArry",
          "type": "string[]"
        }
      ],
      "payable": false,
      "stateMutability": "nonpayable",
      "type": "function"
    },
    {
      "constant": false,
      "inputs": [
        {
          "internalType": "address",
          "name": "proAddress",
          "type": "address"
        },
        {
          "internalType": "string",
          "name": "score",
          "type": "string"
        }
      ],
      "name": "calcuQod",
      "outputs": [],
      "payable": false,
      "stateMutability": "nonpayable",
      "type": "function"
    },
    {
      "constant": false,
      "inputs": [
        {
          "internalType": "uint256",
          "name": "tMoney",
          "type": "uint256"
        }
      ],
      "name": "publishTotalMoney",
      "outputs": [],
      "payable": false,
      "stateMutability": "nonpayable",
      "type": "function"
    },
    {
      "constant": false,
      "inputs": [
        {
          "internalType": "address",
          "name": "proAddress",
          "type": "address"
        },
        {
          "internalType": "uint256",
          "name": "money",
          "type": "uint256"
        }
      ],
      "name": "calcuRewardByProvider",
      "outputs": [],
      "payable": false,
      "stateMutability": "nonpayable",
      "type": "function"
    },
    {
      "constant": false,
      "inputs": [
        {
          "internalType": "address",
          "name": "proAddress",
          "type": "address"
        },
        {
          "internalType": "uint256",
          "name": "money",
          "type": "uint256"
        }
      ],
      "name": "calcuRewardByConsumer",
      "outputs": [],
      "payable": false,
      "stateMutability": "nonpayable",
      "type": "function"
    },
    {
      "constant": false,
      "inputs": [],
      "name": "providerVerifiedReward",
      "outputs": [],
      "payable": false,
      "stateMutability": "nonpayable",
      "type": "function"
    }
  ],
  "bytecode": "0x608060405260006005553480156200001657600080fd5b5060405162001f2638038062001f2683398181016040526200003c9190810190620001e4565b60405180604001604052803373ffffffffffffffffffffffffffffffffffffffff16815260200182815250600660008201518160000160006101000a81548173ffffffffffffffffffffffffffffffffffffffff021916908373ffffffffffffffffffffffffffffffffffffffff1602179055506020820151816001019080519060200190620000ce929190620000d9565b5090505050620002ba565b828054600181600116156101000203166002900490600052602060002090601f016020900481019282601f106200011c57805160ff19168380011785556200014d565b828001600101855582156200014d579182015b828111156200014c5782518255916020019190600101906200012f565b5b5090506200015c919062000160565b5090565b6200018591905b808211156200018157600081600090555060010162000167565b5090565b90565b600082601f8301126200019a57600080fd5b8151620001b1620001ab8262000257565b62000229565b91508082526020830160208301858383011115620001ce57600080fd5b620001db83828462000284565b50505092915050565b600060208284031215620001f757600080fd5b600082015167ffffffffffffffff8111156200021257600080fd5b620002208482850162000188565b91505092915050565b6000604051905081810181811067ffffffffffffffff821117156200024d57600080fd5b8060405250919050565b600067ffffffffffffffff8211156200026f57600080fd5b601f19601f8301169050602081019050919050565b60005b83811015620002a457808201518184015260208101905062000287565b83811115620002b4576000848401525b50505050565b611c5c80620002ca6000396000f3fe608060405234801561001057600080fd5b50600436106100935760003560e01c80639d5ee584116100665780639d5ee58414610135578063dda4e1b41461013f578063ee8a27161461015b578063efbcd41314610177578063efc418e51461019357610093565b806311ba9f781461009857806334b27fca146100b4578063780aac03146100e4578063811a82b914610119575b600080fd5b6100b260048036036100ad91908101906115c3565b6101b2565b005b6100ce60048036036100c9919081019061150a565b610393565b6040516100db9190611965565b60405180910390f35b6100fe60048036036100f9919081019061150a565b6104fa565b60405161011096959493929190611821565b60405180910390f35b610133600480360361012e9190810190611617565b610686565b005b61013d6106c7565b005b61015960048036036101549190810190611587565b610c80565b005b61017560048036036101709190810190611533565b610d01565b005b610191600480360361018c9190810190611587565b610f19565b005b61019b61106c565b6040516101a99291906117f1565b60405180910390f35b600080905060008351141580156101f65750600073ffffffffffffffffffffffffffffffffffffffff168273ffffffffffffffffffffffffffffffffffffffff1614155b1561034e57826000808473ffffffffffffffffffffffffffffffffffffffff1673ffffffffffffffffffffffffffffffffffffffff1681526020019081526020016000206001019080519060200190610250929190611136565b5060008060008473ffffffffffffffffffffffffffffffffffffffff1673ffffffffffffffffffffffffffffffffffffffff1681526020019081526020016000206005018190555060008060008473ffffffffffffffffffffffffffffffffffffffff1673ffffffffffffffffffffffffffffffffffffffff1681526020019081526020016000206006018190555060013390806001815401808255809150509060018203906000526020600020016000909192909190916101000a81548173ffffffffffffffffffffffffffffffffffffffff021916908373ffffffffffffffffffffffffffffffffffffffff1602179055505060019050610353565b600090505b7f988e71f2f828f83992c2991e460ddb41d05691712dc6f91aa3f3be9c48d0601383838360405161038693929190611987565b60405180910390a1505050565b60603373ffffffffffffffffffffffffffffffffffffffff168273ffffffffffffffffffffffffffffffffffffffff1614156104f4576000808373ffffffffffffffffffffffffffffffffffffffff1673ffffffffffffffffffffffffffffffffffffffff168152602001908152602001600020600101805480602002602001604051908101604052809291908181526020016000905b828210156104e6578382906000526020600020018054600181600116156101000203166002900480601f0160208091040260200160405190810160405280929190818152602001828054600181600116156101000203166002900480156104d25780601f106104a7576101008083540402835291602001916104d2565b820191906000526020600020905b8154815290600101906020018083116104b557829003601f168201915b50505050508152602001906001019061042a565b5050505090508090506104f5565b5b919050565b60006020528060005260406000206000915090508060000160009054906101000a900473ffffffffffffffffffffffffffffffffffffffff1690806002018054600181600116156101000203166002900480601f0160208091040260200160405190810160405280929190818152602001828054600181600116156101000203166002900480156105cc5780601f106105a1576101008083540402835291602001916105cc565b820191906000526020600020905b8154815290600101906020018083116105af57829003601f168201915b505050505090806003018054600181600116156101000203166002900480601f01602080910402602001604051908101604052809291908181526020018280546001816001161561010002031660029004801561066a5780601f1061063f5761010080835404028352916020019161066a565b820191906000526020600020905b81548152906001019060200180831161064d57829003601f168201915b5050505050908060040154908060050154908060060154905086565b806005819055507f2be1dbffe7404932acf6dd9a97982c2c3ccec04181ee4a5021baa55a37356450816040516106bc91906119c5565b60405180910390a150565b60006001905060008060003373ffffffffffffffffffffffffffffffffffffffff1673ffffffffffffffffffffffffffffffffffffffff1681526020019081526020016000206008018054905090506000803373ffffffffffffffffffffffffffffffffffffffff1673ffffffffffffffffffffffffffffffffffffffff1681526020019081526020016000206008016004908054610767929190611196565b5060008090505b81811015610bff576000806004838154811061078657fe5b9060005260206000200160009054906101000a900473ffffffffffffffffffffffffffffffffffffffff1673ffffffffffffffffffffffffffffffffffffffff1673ffffffffffffffffffffffffffffffffffffffff168152602001908152602001600020600401546040516020016107ff91906117d6565b604051602081830303815290604052805190602001206000803373ffffffffffffffffffffffffffffffffffffffff1673ffffffffffffffffffffffffffffffffffffffff16815260200190815260200160002060070160006004848154811061086557fe5b9060005260206000200160009054906101000a900473ffffffffffffffffffffffffffffffffffffffff1673ffffffffffffffffffffffffffffffffffffffff1673ffffffffffffffffffffffffffffffffffffffff168152602001908152602001600020600101546040516020016108de91906117d6565b60405160208183030381529060405280519060200120148015610a7a5750600360006004838154811061090d57fe5b9060005260206000200160009054906101000a900473ffffffffffffffffffffffffffffffffffffffff1673ffffffffffffffffffffffffffffffffffffffff1673ffffffffffffffffffffffffffffffffffffffff1681526020019081526020016000205460405160200161098391906117d6565b604051602081830303815290604052805190602001206000803373ffffffffffffffffffffffffffffffffffffffff1673ffffffffffffffffffffffffffffffffffffffff1681526020019081526020016000206007016000600484815481106109e957fe5b9060005260206000200160009054906101000a900473ffffffffffffffffffffffffffffffffffffffff1673ffffffffffffffffffffffffffffffffffffffff1673ffffffffffffffffffffffffffffffffffffffff16815260200190815260200160002060010154604051602001610a6291906117d6565b60405160208183030381529060405280519060200120145b8015610b515750600360003373ffffffffffffffffffffffffffffffffffffffff1673ffffffffffffffffffffffffffffffffffffffff16815260200190815260200160002054604051602001610ad191906117d6565b604051602081830303815290604052805190602001206000803373ffffffffffffffffffffffffffffffffffffffff1673ffffffffffffffffffffffffffffffffffffffff16815260200190815260200160002060040154604051602001610b3991906117d6565b60405160208183030381529060405280519060200120145b15610ba25760016000803373ffffffffffffffffffffffffffffffffffffffff1673ffffffffffffffffffffffffffffffffffffffff16815260200190815260200160002060060181905550610bf2565b60008060003373ffffffffffffffffffffffffffffffffffffffff1673ffffffffffffffffffffffffffffffffffffffff1681526020019081526020016000206006018190555060009250610bff565b808060010191505061076e565b507f20714aea6f3ae48495fae75b80d83406a0a062aa17ee9a7c2074d9e41927c9e7336000803373ffffffffffffffffffffffffffffffffffffffff1673ffffffffffffffffffffffffffffffffffffffff1681526020019081526020016000206006015484604051610c7493929190611890565b60405180910390a15050565b80600360008473ffffffffffffffffffffffffffffffffffffffff1673ffffffffffffffffffffffffffffffffffffffff168152602001908152602001600020819055507f6580d9131955a945a78c5a9f51bcb36345f43d0f3ec01195e4e012705c1d38828282604051610cf5929190611905565b60405180910390a15050565b60008090503373ffffffffffffffffffffffffffffffffffffffff168373ffffffffffffffffffffffffffffffffffffffff161415610d9957816000808573ffffffffffffffffffffffffffffffffffffffff1673ffffffffffffffffffffffffffffffffffffffff1681526020019081526020016000206003019080519060200190610d8f9291906111e8565b5060019050610ed9565b816000803373ffffffffffffffffffffffffffffffffffffffff1673ffffffffffffffffffffffffffffffffffffffff16815260200190815260200160002060070160008573ffffffffffffffffffffffffffffffffffffffff1673ffffffffffffffffffffffffffffffffffffffff1681526020019081526020016000206000019080519060200190610e2e9291906111e8565b506000803373ffffffffffffffffffffffffffffffffffffffff1673ffffffffffffffffffffffffffffffffffffffff1681526020019081526020016000206008018390806001815401808255809150509060018203906000526020600020016000909192909190916101000a81548173ffffffffffffffffffffffffffffffffffffffff021916908373ffffffffffffffffffffffffffffffffffffffff16021790555050600090505b7f0150ad3a33a1b2c85d979fd134f9a74b583426b923636e84b0e94e3212d52d07838383604051610f0c939291906118c7565b60405180910390a1505050565b60008090503373ffffffffffffffffffffffffffffffffffffffff168373ffffffffffffffffffffffffffffffffffffffff161415610fa157816000808573ffffffffffffffffffffffffffffffffffffffff1673ffffffffffffffffffffffffffffffffffffffff168152602001908152602001600020600401819055506001905061102c565b816000803373ffffffffffffffffffffffffffffffffffffffff1673ffffffffffffffffffffffffffffffffffffffff16815260200190815260200160002060070160008573ffffffffffffffffffffffffffffffffffffffff1673ffffffffffffffffffffffffffffffffffffffff16815260200190815260200160002060010181905550600090505b7f3ff2eea47ed68b5cd4f493babb800d449eace179387e15830dd3fa52e593afa783838360405161105f9392919061192e565b60405180910390a1505050565b60068060000160009054906101000a900473ffffffffffffffffffffffffffffffffffffffff1690806001018054600181600116156101000203166002900480601f01602080910402602001604051908101604052809291908181526020018280546001816001161561010002031660029004801561112c5780601f106111015761010080835404028352916020019161112c565b820191906000526020600020905b81548152906001019060200180831161110f57829003601f168201915b5050505050905082565b828054828255906000526020600020908101928215611185579160200282015b82811115611184578251829080519060200190611174929190611268565b5091602001919060010190611156565b5b50905061119291906112e8565b5090565b8280548282559060005260206000209081019282156111d75760005260206000209182015b828111156111d65782548255916001019190600101906111bb565b5b5090506111e49190611314565b5090565b828054600181600116156101000203166002900490600052602060002090601f016020900481019282601f1061122957805160ff1916838001178555611257565b82800160010185558215611257579182015b8281111561125657825182559160200191906001019061123b565b5b5090506112649190611357565b5090565b828054600181600116156101000203166002900490600052602060002090601f016020900481019282601f106112a957805160ff19168380011785556112d7565b828001600101855582156112d7579182015b828111156112d65782518255916020019190600101906112bb565b5b5090506112e49190611357565b5090565b61131191905b8082111561130d5760008181611304919061137c565b506001016112ee565b5090565b90565b61135491905b8082111561135057600081816101000a81549073ffffffffffffffffffffffffffffffffffffffff02191690555060010161131a565b5090565b90565b61137991905b8082111561137557600081600090555060010161135d565b5090565b90565b50805460018160011615610100020316600290046000825580601f106113a257506113c1565b601f0160209004906000526020600020908101906113c09190611357565b5b50565b6000813590506113d381611beb565b92915050565b600082601f8301126113ea57600080fd5b81356113fd6113f882611a0d565b6119e0565b9150818183526020840193506020810190508360005b838110156114435781358601611429888261144d565b845260208401935060208301925050600181019050611413565b5050505092915050565b600082601f83011261145e57600080fd5b813561147161146c82611a35565b6119e0565b9150808252602083016020830185838301111561148d57600080fd5b611498838284611b8e565b50505092915050565b600082601f8301126114b257600080fd5b81356114c56114c082611a61565b6119e0565b915080825260208301602083018583830111156114e157600080fd5b6114ec838284611b8e565b50505092915050565b60008135905061150481611c02565b92915050565b60006020828403121561151c57600080fd5b600061152a848285016113c4565b91505092915050565b6000806040838503121561154657600080fd5b6000611554858286016113c4565b925050602083013567ffffffffffffffff81111561157157600080fd5b61157d858286016114a1565b9150509250929050565b6000806040838503121561159a57600080fd5b60006115a8858286016113c4565b92505060206115b9858286016114f5565b9150509250929050565b600080604083850312156115d657600080fd5b600083013567ffffffffffffffff8111156115f057600080fd5b6115fc858286016113d9565b925050602061160d858286016113c4565b9150509250929050565b60006020828403121561162957600080fd5b6000611637848285016114f5565b91505092915050565b600061164c838361173e565b905092915050565b61165d81611b58565b82525050565b61166c81611b10565b82525050565b61167b81611afe565b82525050565b600061168c82611a9d565b6116968185611acb565b9350836020820285016116a885611a8d565b8060005b858110156116e457848403895281516116c58582611640565b94506116d083611abe565b925060208a019950506001810190506116ac565b50829750879550505050505092915050565b6116ff81611b22565b82525050565b600061171082611ab3565b61171a8185611aed565b935061172a818560208601611b9d565b61173381611bda565b840191505092915050565b600061174982611aa8565b6117538185611adc565b9350611763818560208601611b9d565b61176c81611bda565b840191505092915050565b600061178282611aa8565b61178c8185611aed565b935061179c818560208601611b9d565b6117a581611bda565b840191505092915050565b6117b981611b4e565b82525050565b6117d06117cb82611b4e565b611bd0565b82525050565b60006117e282846117bf565b60208201915081905092915050565b60006040820190506118066000830185611663565b81810360208301526118188184611777565b90509392505050565b600060c0820190506118366000830189611663565b81810360208301526118488188611777565b9050818103604083015261185c8187611777565b905061186b60608301866117b0565b61187860808301856117b0565b61188560a08301846117b0565b979650505050505050565b60006060820190506118a56000830186611654565b6118b260208301856117b0565b6118bf60408301846116f6565b949350505050565b60006060820190506118dc6000830186611672565b81810360208301526118ee8185611705565b90506118fd60408301846116f6565b949350505050565b600060408201905061191a6000830185611672565b61192760208301846117b0565b9392505050565b60006060820190506119436000830186611672565b61195060208301856117b0565b61195d60408301846116f6565b949350505050565b6000602082019050818103600083015261197f8184611681565b905092915050565b600060608201905081810360008301526119a18186611681565b90506119b06020830185611672565b6119bd60408301846116f6565b949350505050565b60006020820190506119da60008301846117b0565b92915050565b6000604051905081810181811067ffffffffffffffff82111715611a0357600080fd5b8060405250919050565b600067ffffffffffffffff821115611a2457600080fd5b602082029050602081019050919050565b600067ffffffffffffffff821115611a4c57600080fd5b601f19601f8301169050602081019050919050565b600067ffffffffffffffff821115611a7857600080fd5b601f19601f8301169050602081019050919050565b6000819050602082019050919050565b600081519050919050565b600081519050919050565b600081519050919050565b6000602082019050919050565b600082825260208201905092915050565b600082825260208201905092915050565b600082825260208201905092915050565b6000611b0982611b2e565b9050919050565b6000611b1b82611b2e565b9050919050565b60008115159050919050565b600073ffffffffffffffffffffffffffffffffffffffff82169050919050565b6000819050919050565b6000611b6382611b6a565b9050919050565b6000611b7582611b7c565b9050919050565b6000611b8782611b2e565b9050919050565b82818337600083830152505050565b60005b83811015611bbb578082015181840152602081019050611ba0565b83811115611bca576000848401525b50505050565b6000819050919050565b6000601f19601f8301169050919050565b611bf481611afe565b8114611bff57600080fd5b50565b611c0b81611b4e565b8114611c1657600080fd5b5056fea365627a7a7231582058e1c01e1f689186cf07fd607d311eadf0762f6d7fd6283f717598f3c9438e4f6c6578706572696d656e74616cf564736f6c63430005100040",
  "source": "pragma solidity ^0.5.16;\r\npragma experimental ABIEncoderV2;\r\n// import \"strings.sol\";\r\n\r\n\r\ncontract QodReward {\r\n    \r\n    // using strings for *;\r\n    \r\n    struct DataProvider {\r\n    address payable providerAddress;\r\n    string[] ipfsDataHash;\r\n    string aesKey;\r\n    string qodScore;\r\n    uint pmoney;\r\n    uint qodVote;  //qod--01\r\n    uint rewardVote;  //reward--01\r\n    mapping(address => OtherDataProvider) otherDataProvider;\r\n    address[] otherProAddressArry;\r\n    }\r\n\r\n    struct OtherDataProvider {\r\n        string qodScore;\r\n        uint pmoney;\r\n    }\r\n\r\n    struct DataConsumer {\r\n        address payable consumerAddress;\r\n        string ipfsAESPublicKey;\r\n    }\r\n\r\n    mapping(address => DataProvider) public dataProviders;\r\n    address payable[] dataProviderAddresses;\r\n    mapping(address => string) qodOfProvider; // providerqodconsumer\r\n    mapping(address => uint) moneyOfProvider;\r\n    address[] otherProAddress;  //provider\r\n\r\n    uint totalMoney = 0;\r\n    \r\n    DataConsumer public dataConsumer;\r\n\r\n    event SaveIpfs(string[] ipfsDataHashArry,address proAddress,bool isSaveSuccess);\r\n    event SaveQod(address proAddress,string score,bool isSelf);\r\n    event PublishMoney(uint tMoney);\r\n    event CalcuRewardByProvider(address proAddress,uint money,bool isSelf);\r\n    event CalcuRewardByConsumer(address proAddress,uint money);\r\n    event ProviderVerifiedReward(address proAddress,uint rewardVote,bool isAgree);\r\n    \r\n    modifier etherProvided() {\r\n        require(msg.value > 0, \"Need ether to be greater than 0\");\r\n        _;\r\n    }\r\n    \r\n    /// Create a new contract\r\n    constructor(string memory _aesPublicKey) public {\r\n        dataConsumer = DataConsumer({\r\n            consumerAddress : msg.sender,\r\n            ipfsAESPublicKey : _aesPublicKey\r\n            });\r\n    }\r\n    \r\n    //1: ipfsHash --hash\r\n    function registerAsProvider (string[] memory ipfsDataHashArry,address proAddress) public {\r\n    \r\n        bool isSaveSuccess = false;\r\n        if (ipfsDataHashArry.length != 0 && proAddress != address(0x0)) {\r\n            dataProviders[proAddress].ipfsDataHash = ipfsDataHashArry;\r\n            dataProviders[proAddress].qodVote = 0; //provider\r\n            dataProviders[proAddress].rewardVote = 0;\r\n            dataProviderAddresses.push(msg.sender);\r\n            isSaveSuccess = true;\r\n        }else{\r\n            isSaveSuccess = false;\r\n        }\r\n\r\n        emit SaveIpfs(ipfsDataHashArry,proAddress,isSaveSuccess);\r\n        \r\n       \r\n    }\r\n    \r\n    //2: 1ipfsHashfanhuigeifuwuqi\r\n    function getIPFSData (address proAddress) public returns (string[] memory ipfsHashArry) {\r\n        if (proAddress == msg.sender){\r\n            ipfsHashArry = dataProviders[proAddress].ipfsDataHash;\r\n            return ipfsHashArry; \r\n        }\r\n    }\r\n    \r\n    // //3AESAES\r\n    // function publishAESKey (address proAddress,string memory aesKey) public returns (bool isSuccess) {\r\n    //     if (proAddress == msg.sender){\r\n    //         dataProviders[proAddress].aesKey = aesKey;\r\n    //         return true;\r\n    //     }else{\r\n    //         return false;\r\n    //     }\r\n    // }\r\n    \r\n    // //3.1: AESKey\r\n    // function getAESKey (address proAddress) public returns(string memory theAesKey){\r\n    //     theAesKey = dataProviders[proAddress].aesKey;\r\n    //     return theAesKey;\r\n    // }\r\n    \r\n    //4qodqod\r\n    function calcuQod(address proAddress,string memory score) public {\r\n        bool isSelf = false;\r\n        \r\n        if (proAddress == msg.sender) {\r\n            dataProviders[proAddress].qodScore = score;\r\n            isSelf = true;\r\n        }else{\r\n            dataProviders[msg.sender].otherDataProvider[proAddress].qodScore = score;\r\n            dataProviders[msg.sender].otherProAddressArry.push(proAddress);\r\n            isSelf = false;\r\n        }\r\n\r\n        emit SaveQod(proAddress,score,isSelf);\r\n        \r\n    }\r\n    \r\n    // //5qodproviderqodprovider\r\n    // //\r\n      \r\n    // function verifiedData() public returns (bool isVerifiedSuccess,string memory allFailProAddress) {\r\n        \r\n    //     uint otherProviderSum = dataProviders[msg.sender].otherProAddressArry.length;\r\n    //     otherProAddress = dataProviders[msg.sender].otherProAddressArry;\r\n    //     for (uint i = 0;i < otherProviderSum;i++) {\r\n    //         if (keccak256(abi.encodePacked(dataProviders[msg.sender].otherDataProvider[otherProAddress[i]].qodScore)) == \r\n    //             keccak256(abi.encodePacked(dataProviders[otherProAddress[i]].qodScore))) {\r\n    //             continue;\r\n    //         }else{\r\n    //             // string memory failProAddress = addressToString(otherProAddress[i]);\r\n    //             allFailProAddress = addressToString(otherProAddress[i]).toSlice().concat(\"+\".toSlice());\r\n    //             dataProviders[msg.sender].qodVote = 0; //providervote0\r\n    //             return (false,allFailProAddress);\r\n    //         }\r\n    //     }\r\n    //     dataProviders[msg.sender].qodVote = 1; //providervote1\r\n    //     return (true,addressToString(msg.sender));\r\n    // }\r\n    \r\n    // //6\r\n    // function agree() public returns (bool isAllAgree){\r\n    //     uint proLen = dataProviderAddresses.length;\r\n    //     uint sum = 0;\r\n    //     for(uint i = 0;i < proLen;i++) {\r\n    //         if (dataProviders[dataProviderAddresses[i]].qodVote == 1 ) {\r\n    //             sum = sum + 1;\r\n    //         }\r\n    //     }\r\n        \r\n    //     //provider\r\n    //     if (sum == proLen) {\r\n    //         return true;\r\n    //     }else{\r\n    //         return false;\r\n    //     }\r\n    // }\r\n    \r\n    // //7Consumerqod\r\n    // //7.1 providerqod\r\n    // function getProviderQod(address proAddress) public returns (string memory qod) {\r\n    //     qod = dataProviders[proAddress].qodScore;\r\n    //     return qod;\r\n    // }\r\n    \r\n    //7.2 \r\n    function publishTotalMoney(uint tMoney) public {\r\n        totalMoney = tMoney;\r\n        emit PublishMoney(tMoney);\r\n    }\r\n    \r\n    // //8\r\n    // //8.1.1 provider:\r\n    // function getTotalMoney() public returns (uint tMoney) {\r\n    //     return totalMoney;\r\n    // }\r\n\r\n    //8.1.2 provider:\r\n    function calcuRewardByProvider(address proAddress,uint money) public {\r\n        bool isSelf = false;\r\n        if (proAddress == msg.sender) {\r\n            dataProviders[proAddress].pmoney = money;\r\n            isSelf = true;\r\n        }else{\r\n            dataProviders[msg.sender].otherDataProvider[proAddress].pmoney = money;\r\n            isSelf = false;\r\n        }\r\n        emit CalcuRewardByProvider(proAddress,money,isSelf);\r\n    }\r\n    \r\n    //8.2 consumerprovider\r\n    function calcuRewardByConsumer(address proAddress,uint money) public {\r\n        moneyOfProvider[proAddress] = money;\r\n        emit CalcuRewardByConsumer(proAddress,money);\r\n    }\r\n    \r\n    // //9\r\n    // //9.1 provider\r\n    // // function providerVerifiedReward() public returns (bool isVerifiedSuccess) {\r\n        \r\n    // //     uint otherProviderSum = dataProviders[msg.sender].otherProAddressArry.length;\r\n    // //     otherProAddress = dataProviders[msg.sender].otherProAddressArry;\r\n    // //     for (uint i = 0;i < otherProviderSum;i++) {\r\n    // //         if (keccak256(abi.encodePacked(dataProviders[msg.sender].otherDataProvider[otherProAddress[i]].pmoney)) == \r\n    // //             keccak256(abi.encodePacked(dataProviders[otherProAddress[i]].pmoney)) && \r\n    // //             keccak256(abi.encodePacked(dataProviders[msg.sender].otherDataProvider[otherProAddress[i]].pmoney)) == \r\n    // //             keccak256(abi.encodePacked(moneyOfProvider[otherProAddress[i]])) && \r\n    // //             keccak256(abi.encodePacked(dataProviders[msg.sender].pmoney)) == \r\n    // //             keccak256(abi.encodePacked(moneyOfProvider[msg.sender]))) {\r\n                    \r\n    // //             continue;\r\n    // //         }else{\r\n    // //             dataProviders[msg.sender].rewardVote = 0;\r\n    // //             return false;\r\n    // //         }\r\n    // //     }\r\n    // //     dataProviders[msg.sender].rewardVote = 1;\r\n    // //     return true;\r\n    // // }\r\n    \r\n     function providerVerifiedReward() public {\r\n        bool isAgree = true;\r\n\r\n        uint otherProviderSum = dataProviders[msg.sender].otherProAddressArry.length;\r\n        otherProAddress = dataProviders[msg.sender].otherProAddressArry;\r\n        for (uint i = 0;i < otherProviderSum;i++) {\r\n            if (keccak256(abi.encodePacked(dataProviders[msg.sender].otherDataProvider[otherProAddress[i]].pmoney)) == \r\n                keccak256(abi.encodePacked(dataProviders[otherProAddress[i]].pmoney)) && \r\n                keccak256(abi.encodePacked(dataProviders[msg.sender].otherDataProvider[otherProAddress[i]].pmoney)) == \r\n                keccak256(abi.encodePacked(moneyOfProvider[otherProAddress[i]])) && \r\n                keccak256(abi.encodePacked(dataProviders[msg.sender].pmoney)) == \r\n                keccak256(abi.encodePacked(moneyOfProvider[msg.sender]))) {\r\n                dataProviders[msg.sender].rewardVote = 1;    \r\n                continue;\r\n            }else{\r\n                // allFailProAddress = addressToString(otherProAddress[i]).toSlice().concat(\"+\".toSlice());\r\n                dataProviders[msg.sender].rewardVote = 0;\r\n                isAgree = false;\r\n                break;\r\n            }\r\n            \r\n        }\r\n        \r\n        emit ProviderVerifiedReward(msg.sender,dataProviders[msg.sender].rewardVote,isAgree);\r\n    }\r\n    \r\n    \r\n    // //9.2 consumer\r\n    // // function consumerVerifiedReward() public returns (bool isVerifiedSuccess,address failProAddress) {\r\n    // //     uint proLen = dataProviderAddresses.length;\r\n    // //     for (uint i = 0;i < proLen;i++) {\r\n    // //         if (moneyOfProvider[dataProviderAddresses[i]] == dataProviders[dataProviderAddresses[i]].pmoney) {\r\n    // //             continue;\r\n    // //         }else{\r\n    // //             failProAddress = dataProviderAddresses[i];\r\n    // //             return (false,failProAddress);\r\n    // //         }\r\n    // //     }\r\n    // //     return (true,msg.sender);\r\n    // // }\r\n    \r\n    \r\n    //  function consumerVerifiedReward() public returns (bool isVerifiedSuccess,string memory allFailProAddress) {\r\n    //     uint proLen = dataProviderAddresses.length;\r\n    //     for (uint i = 0;i < proLen;i++) {\r\n    //         if (moneyOfProvider[dataProviderAddresses[i]] == dataProviders[dataProviderAddresses[i]].pmoney) {\r\n    //             continue;\r\n    //         }else{\r\n    //             // failProAddress = dataProviderAddresses[i];\r\n    //             allFailProAddress = addressToString(otherProAddress[i]).toSlice().concat(\"+\".toSlice());\r\n    //             return (false,allFailProAddress);\r\n    //         }\r\n    //     }\r\n    //     return (true,addressToString(msg.sender));\r\n    // }\r\n    \r\n    \r\n    // //10(9.1)\r\n    \r\n    // //11\r\n    // function isAcceptReward() internal returns (bool isAccept) {\r\n    //     uint proLen = dataProviderAddresses.length;\r\n    //     uint sum = 0;\r\n    //     for(uint i = 0;i < proLen;i++) {\r\n    //         if (dataProviders[dataProviderAddresses[i]].rewardVote == 1 ) {\r\n    //             sum = sum + 1;\r\n    //         }\r\n    //     }\r\n        \r\n    //     if (proLen % 2 == 0){  //\r\n    //         if (sum > proLen/2) {   //50%\r\n    //             return true;\r\n    //         }else{\r\n    //             return false;\r\n    //         }\r\n    //     }else{  //\r\n    //         if (sum >= (proLen+2-1)/2) {    //50%\r\n    //             return true;\r\n    //         }else{\r\n    //             return false;\r\n    //         }\r\n    //     }\r\n        \r\n    // }\r\n    \r\n    // //12\r\n    // //gas\r\n    // function transferMoney() public returns (string memory result) {\r\n    //     if (isAcceptReward() == true){\r\n    //          uint balance = address(this).balance;\r\n    //          uint proLen = dataProviderAddresses.length;\r\n    //         for (uint i = 0; i < proLen; i++) {\r\n    //             address payable _providerAddress = dataProviderAddresses[i];\r\n    //             _providerAddress.transfer(balance * dataProviders[_providerAddress].pmoney);\r\n    //         }\r\n    //         return \"\";\r\n    //     }else{\r\n    //         return \"\";\r\n    //     }\r\n    // }\r\n    \r\n    \r\n    \r\n    \r\n    // //Tool: address change to string\r\n    // function addressToString(address x) public returns (string memory s) {\r\n    //     bytes memory b = new bytes(20);\r\n    //     for (uint i = 0; i < 20; i++)\r\n    //         b[i] = byte(uint8(uint(x) / (2**(8*(19 - i)))));\r\n    //     return string(b);\r\n    // }\r\n    \r\n}",
  "sourcePath": "D:\\LXW\\truffle_proj\\qodpro\\dataTruffleSys\\contracts\\QodReward.sol",
  "compiler": {
    "name": "solc",
    "version": "0.5.16+commit.9c3226ce.Emscripten.clang"
  },
  "schemaVersion": "3.0.23",
  "updatedAt": "2020-02-27T09:28:03.220Z",
  "networkType": "ethereum",
  "devdoc": {
    "methods": {}
  },
  "userdoc": {
    "methods": {
      "constructor": "Create a new contract"
    }
  }
}