{
  "contractName": "QodReward",
  "abi": [
    {
      "inputs": [
        {
          "internalType": "string",
          "name": "_aesPublicKey",
          "type": "string"
        }
      ],
      "payable": false,
      "stateMutability": "nonpayable",
      "type": "constructor"
    },
    {
      "anonymous": false,
      "inputs": [
        {
          "indexed": false,
          "internalType": "address",
          "name": "proAddress",
          "type": "address"
        },
        {
          "indexed": false,
          "internalType": "uint256",
          "name": "money",
          "type": "uint256"
        }
      ],
      "name": "CalcuRewardByConsumer",
      "type": "event"
    },
    {
      "anonymous": false,
      "inputs": [
        {
          "indexed": false,
          "internalType": "address",
          "name": "proAddress",
          "type": "address"
        },
        {
          "indexed": false,
          "internalType": "uint256",
          "name": "money",
          "type": "uint256"
        },
        {
          "indexed": false,
          "internalType": "bool",
          "name": "isSelf",
          "type": "bool"
        }
      ],
      "name": "CalcuRewardByProvider",
      "type": "event"
    },
    {
      "anonymous": false,
      "inputs": [
        {
          "indexed": false,
          "internalType": "bool",
          "name": "isClear",
          "type": "bool"
        }
      ],
      "name": "ClearLastTrans",
      "type": "event"
    },
    {
      "anonymous": false,
      "inputs": [
        {
          "indexed": false,
          "internalType": "uint256",
          "name": "proLen",
          "type": "uint256"
        },
        {
          "indexed": false,
          "internalType": "uint256",
          "name": "sum",
          "type": "uint256"
        },
        {
          "indexed": false,
          "internalType": "bool",
          "name": "isAccept",
          "type": "bool"
        }
      ],
      "name": "IsAcceptReward",
      "type": "event"
    },
    {
      "anonymous": false,
      "inputs": [
        {
          "indexed": false,
          "internalType": "address",
          "name": "proAddress",
          "type": "address"
        },
        {
          "indexed": false,
          "internalType": "uint256",
          "name": "rewardVote",
          "type": "uint256"
        },
        {
          "indexed": false,
          "internalType": "bool",
          "name": "isAgree",
          "type": "bool"
        }
      ],
      "name": "ProviderVerifiedReward",
      "type": "event"
    },
    {
      "anonymous": false,
      "inputs": [
        {
          "indexed": false,
          "internalType": "uint256",
          "name": "tMoney",
          "type": "uint256"
        }
      ],
      "name": "PublishMoney",
      "type": "event"
    },
    {
      "anonymous": false,
      "inputs": [
        {
          "indexed": false,
          "internalType": "string[]",
          "name": "ipfsDataHashArry",
          "type": "string[]"
        },
        {
          "indexed": false,
          "internalType": "address",
          "name": "proAddress",
          "type": "address"
        },
        {
          "indexed": false,
          "internalType": "bool",
          "name": "isSaveSuccess",
          "type": "bool"
        }
      ],
      "name": "SaveIpfs",
      "type": "event"
    },
    {
      "anonymous": false,
      "inputs": [
        {
          "indexed": false,
          "internalType": "address",
          "name": "proAddress",
          "type": "address"
        },
        {
          "indexed": false,
          "internalType": "string",
          "name": "score",
          "type": "string"
        },
        {
          "indexed": false,
          "internalType": "bool",
          "name": "isSelf",
          "type": "bool"
        }
      ],
      "name": "SaveQod",
      "type": "event"
    },
    {
      "anonymous": false,
      "inputs": [
        {
          "indexed": false,
          "internalType": "address",
          "name": "from",
          "type": "address"
        },
        {
          "indexed": false,
          "internalType": "address",
          "name": "to",
          "type": "address"
        },
        {
          "indexed": false,
          "internalType": "uint256",
          "name": "value",
          "type": "uint256"
        }
      ],
      "name": "TansferContent",
      "type": "event"
    },
    {
      "anonymous": false,
      "inputs": [
        {
          "indexed": false,
          "internalType": "bool",
          "name": "isAccept",
          "type": "bool"
        },
        {
          "indexed": false,
          "internalType": "bool",
          "name": "IsTransferSuccess",
          "type": "bool"
        }
      ],
      "name": "TransferSuccess",
      "type": "event"
    },
    {
      "constant": true,
      "inputs": [],
      "name": "dataConsumer",
      "outputs": [
        {
          "internalType": "address payable",
          "name": "consumerAddress",
          "type": "address"
        },
        {
          "internalType": "string",
          "name": "ipfsAESPublicKey",
          "type": "string"
        }
      ],
      "payable": false,
      "stateMutability": "view",
      "type": "function"
    },
    {
      "constant": true,
      "inputs": [
        {
          "internalType": "address",
          "name": "",
          "type": "address"
        }
      ],
      "name": "dataProviders",
      "outputs": [
        {
          "internalType": "address payable",
          "name": "providerAddress",
          "type": "address"
        },
        {
          "internalType": "string",
          "name": "aesKey",
          "type": "string"
        },
        {
          "internalType": "string",
          "name": "qodScore",
          "type": "string"
        },
        {
          "internalType": "uint256",
          "name": "pmoney",
          "type": "uint256"
        },
        {
          "internalType": "uint256",
          "name": "qodVote",
          "type": "uint256"
        },
        {
          "internalType": "uint256",
          "name": "rewardVote",
          "type": "uint256"
        }
      ],
      "payable": false,
      "stateMutability": "view",
      "type": "function"
    },
    {
      "constant": false,
      "inputs": [
        {
          "internalType": "string[]",
          "name": "ipfsDataHashArry",
          "type": "string[]"
        },
        {
          "internalType": "address payable",
          "name": "proAddress",
          "type": "address"
        }
      ],
      "name": "registerAsProvider",
      "outputs": [],
      "payable": false,
      "stateMutability": "nonpayable",
      "type": "function"
    },
    {
      "constant": false,
      "inputs": [
        {
          "internalType": "address",
          "name": "proAddress",
          "type": "address"
        }
      ],
      "name": "getIPFSData",
      "outputs": [
        {
          "internalType": "string[]",
          "name": "ipfsHashArry",
          "type": "string[]"
        }
      ],
      "payable": false,
      "stateMutability": "nonpayable",
      "type": "function"
    },
    {
      "constant": false,
      "inputs": [
        {
          "internalType": "address",
          "name": "proAddress",
          "type": "address"
        },
        {
          "internalType": "string",
          "name": "score",
          "type": "string"
        }
      ],
      "name": "calcuQod",
      "outputs": [],
      "payable": false,
      "stateMutability": "nonpayable",
      "type": "function"
    },
    {
      "constant": false,
      "inputs": [
        {
          "internalType": "uint256",
          "name": "tMoney",
          "type": "uint256"
        }
      ],
      "name": "publishTotalMoney",
      "outputs": [],
      "payable": false,
      "stateMutability": "nonpayable",
      "type": "function"
    },
    {
      "constant": false,
      "inputs": [
        {
          "internalType": "address",
          "name": "proAddress",
          "type": "address"
        },
        {
          "internalType": "uint256",
          "name": "money",
          "type": "uint256"
        }
      ],
      "name": "calcuRewardByProvider",
      "outputs": [],
      "payable": false,
      "stateMutability": "nonpayable",
      "type": "function"
    },
    {
      "constant": false,
      "inputs": [
        {
          "internalType": "address",
          "name": "proAddress",
          "type": "address"
        },
        {
          "internalType": "uint256",
          "name": "money",
          "type": "uint256"
        }
      ],
      "name": "calcuRewardByConsumer",
      "outputs": [],
      "payable": false,
      "stateMutability": "nonpayable",
      "type": "function"
    },
    {
      "constant": false,
      "inputs": [],
      "name": "providerVerifiedReward",
      "outputs": [],
      "payable": false,
      "stateMutability": "nonpayable",
      "type": "function"
    },
    {
      "constant": false,
      "inputs": [],
      "name": "isAcceptReward",
      "outputs": [
        {
          "internalType": "bool",
          "name": "",
          "type": "bool"
        }
      ],
      "payable": false,
      "stateMutability": "nonpayable",
      "type": "function"
    },
    {
      "constant": false,
      "inputs": [],
      "name": "transferMoney",
      "outputs": [],
      "payable": true,
      "stateMutability": "payable",
      "type": "function"
    },
    {
      "constant": false,
      "inputs": [],
      "name": "clearLastTrans",
      "outputs": [],
      "payable": false,
      "stateMutability": "nonpayable",
      "type": "function"
    }
  ],
  "bytecode": "0x608060405260006005553480156200001657600080fd5b50604051620024a6380380620024a683398181016040526200003c9190810190620001e4565b60405180604001604052803373ffffffffffffffffffffffffffffffffffffffff16815260200182815250600660008201518160000160006101000a81548173ffffffffffffffffffffffffffffffffffffffff021916908373ffffffffffffffffffffffffffffffffffffffff1602179055506020820151816001019080519060200190620000ce929190620000d9565b5090505050620002ba565b828054600181600116156101000203166002900490600052602060002090601f016020900481019282601f106200011c57805160ff19168380011785556200014d565b828001600101855582156200014d579182015b828111156200014c5782518255916020019190600101906200012f565b5b5090506200015c919062000160565b5090565b6200018591905b808211156200018157600081600090555060010162000167565b5090565b90565b600082601f8301126200019a57600080fd5b8151620001b1620001ab8262000257565b62000229565b91508082526020830160208301858383011115620001ce57600080fd5b620001db83828462000284565b50505092915050565b600060208284031215620001f757600080fd5b600082015167ffffffffffffffff8111156200021257600080fd5b620002208482850162000188565b91505092915050565b6000604051905081810181811067ffffffffffffffff821117156200024d57600080fd5b8060405250919050565b600067ffffffffffffffff8211156200026f57600080fd5b601f19601f8301169050602081019050919050565b60005b83811015620002a457808201518184015260208101905062000287565b83811115620002b4576000848401525b50505050565b6121dc80620002ca6000396000f3fe6080604052600436106100a75760003560e01c8063cbfce9a411610064578063cbfce9a41461019e578063da6b8063146101c9578063dda4e1b4146101e0578063ee8a271614610209578063efbcd41314610232578063efc418e51461025b576100a7565b806311ba9f78146100ac57806334b27fca146100d55780636cee6d7714610112578063780aac031461011c578063811a82b91461015e5780639d5ee58414610187575b600080fd5b3480156100b857600080fd5b506100d360048036036100ce9190810190611a7a565b610287565b005b3480156100e157600080fd5b506100fc60048036036100f791908101906119c1565b610468565b6040516101099190611e53565b60405180910390f35b61011a6105cf565b005b34801561012857600080fd5b50610143600480360361013e91908101906119c1565b6107d7565b60405161015596959493929190611d0f565b60405180910390f35b34801561016a57600080fd5b5061018560048036036101809190810190611ace565b610963565b005b34801561019357600080fd5b5061019c6109a4565b005b3480156101aa57600080fd5b506101b3610f5d565b6040516101c09190611eb3565b60405180910390f35b3480156101d557600080fd5b506101de6110b9565b005b3480156101ec57600080fd5b5061020760048036036102029190810190611a3e565b611101565b005b34801561021557600080fd5b50610230600480360361022b91908101906119ea565b611182565b005b34801561023e57600080fd5b5061025960048036036102549190810190611a3e565b61139a565b005b34801561026757600080fd5b506102706114ed565b60405161027e929190611cdf565b60405180910390f35b600080905060008351141580156102cb5750600073ffffffffffffffffffffffffffffffffffffffff168273ffffffffffffffffffffffffffffffffffffffff1614155b1561042357826000808473ffffffffffffffffffffffffffffffffffffffff1673ffffffffffffffffffffffffffffffffffffffff16815260200190815260200160002060010190805190602001906103259291906115b7565b5060008060008473ffffffffffffffffffffffffffffffffffffffff1673ffffffffffffffffffffffffffffffffffffffff1681526020019081526020016000206005018190555060008060008473ffffffffffffffffffffffffffffffffffffffff1673ffffffffffffffffffffffffffffffffffffffff1681526020019081526020016000206006018190555060018290806001815401808255809150509060018203906000526020600020016000909192909190916101000a81548173ffffffffffffffffffffffffffffffffffffffff021916908373ffffffffffffffffffffffffffffffffffffffff1602179055505060019050610428565b600090505b7f988e71f2f828f83992c2991e460ddb41d05691712dc6f91aa3f3be9c48d0601383838360405161045b93929190611e75565b60405180910390a1505050565b60603373ffffffffffffffffffffffffffffffffffffffff168273ffffffffffffffffffffffffffffffffffffffff1614156105c9576000808373ffffffffffffffffffffffffffffffffffffffff1673ffffffffffffffffffffffffffffffffffffffff168152602001908152602001600020600101805480602002602001604051908101604052809291908181526020016000905b828210156105bb578382906000526020600020018054600181600116156101000203166002900480601f0160208091040260200160405190810160405280929190818152602001828054600181600116156101000203166002900480156105a75780601f1061057c576101008083540402835291602001916105a7565b820191906000526020600020905b81548152906001019060200180831161058a57829003601f168201915b5050505050815260200190600101906104ff565b5050505090508090506105ca565b5b919050565b600080905060006105de610f5d565b9050600115158115151415610795576000600180549050905060008090505b8181101561078a5760006001828154811061061457fe5b9060005260206000200160009054906101000a900473ffffffffffffffffffffffffffffffffffffffff1690508073ffffffffffffffffffffffffffffffffffffffff166108fc6000808473ffffffffffffffffffffffffffffffffffffffff1673ffffffffffffffffffffffffffffffffffffffff168152602001908152602001600020600401549081150290604051600060405180830381858888f193505050501580156106c8573d6000803e3d6000fd5b507f795c827dd9db09df43cf599ac8241631b04f0f85b0bf779517096b53c32f09d633600184815481106106f857fe5b9060005260206000200160009054906101000a900473ffffffffffffffffffffffffffffffffffffffff166000808573ffffffffffffffffffffffffffffffffffffffff1673ffffffffffffffffffffffffffffffffffffffff1681526020019081526020016000206004015460405161077493929190611ca8565b60405180910390a15080806001019150506105fd565b50600192505061079a565b600091505b7f8d8fbaaca4ad51f0c94e89e4eddda9d63e7fbac50ec36cf9a543b69b31c2e8b981836040516107cb929190611ece565b60405180910390a15050565b60006020528060005260406000206000915090508060000160009054906101000a900473ffffffffffffffffffffffffffffffffffffffff1690806002018054600181600116156101000203166002900480601f0160208091040260200160405190810160405280929190818152602001828054600181600116156101000203166002900480156108a95780601f1061087e576101008083540402835291602001916108a9565b820191906000526020600020905b81548152906001019060200180831161088c57829003601f168201915b505050505090806003018054600181600116156101000203166002900480601f0160208091040260200160405190810160405280929190818152602001828054600181600116156101000203166002900480156109475780601f1061091c57610100808354040283529160200191610947565b820191906000526020600020905b81548152906001019060200180831161092a57829003601f168201915b5050505050908060040154908060050154908060060154905086565b806005819055507f2be1dbffe7404932acf6dd9a97982c2c3ccec04181ee4a5021baa55a37356450816040516109999190611ef7565b60405180910390a150565b60006001905060008060003373ffffffffffffffffffffffffffffffffffffffff1673ffffffffffffffffffffffffffffffffffffffff1681526020019081526020016000206008018054905090506000803373ffffffffffffffffffffffffffffffffffffffff1673ffffffffffffffffffffffffffffffffffffffff1681526020019081526020016000206008016004908054610a44929190611617565b5060008090505b81811015610edc5760008060048381548110610a6357fe5b9060005260206000200160009054906101000a900473ffffffffffffffffffffffffffffffffffffffff1673ffffffffffffffffffffffffffffffffffffffff1673ffffffffffffffffffffffffffffffffffffffff16815260200190815260200160002060040154604051602001610adc9190611c8d565b604051602081830303815290604052805190602001206000803373ffffffffffffffffffffffffffffffffffffffff1673ffffffffffffffffffffffffffffffffffffffff168152602001908152602001600020600701600060048481548110610b4257fe5b9060005260206000200160009054906101000a900473ffffffffffffffffffffffffffffffffffffffff1673ffffffffffffffffffffffffffffffffffffffff1673ffffffffffffffffffffffffffffffffffffffff16815260200190815260200160002060010154604051602001610bbb9190611c8d565b60405160208183030381529060405280519060200120148015610d5757506003600060048381548110610bea57fe5b9060005260206000200160009054906101000a900473ffffffffffffffffffffffffffffffffffffffff1673ffffffffffffffffffffffffffffffffffffffff1673ffffffffffffffffffffffffffffffffffffffff16815260200190815260200160002054604051602001610c609190611c8d565b604051602081830303815290604052805190602001206000803373ffffffffffffffffffffffffffffffffffffffff1673ffffffffffffffffffffffffffffffffffffffff168152602001908152602001600020600701600060048481548110610cc657fe5b9060005260206000200160009054906101000a900473ffffffffffffffffffffffffffffffffffffffff1673ffffffffffffffffffffffffffffffffffffffff1673ffffffffffffffffffffffffffffffffffffffff16815260200190815260200160002060010154604051602001610d3f9190611c8d565b60405160208183030381529060405280519060200120145b8015610e2e5750600360003373ffffffffffffffffffffffffffffffffffffffff1673ffffffffffffffffffffffffffffffffffffffff16815260200190815260200160002054604051602001610dae9190611c8d565b604051602081830303815290604052805190602001206000803373ffffffffffffffffffffffffffffffffffffffff1673ffffffffffffffffffffffffffffffffffffffff16815260200190815260200160002060040154604051602001610e169190611c8d565b60405160208183030381529060405280519060200120145b15610e7f5760016000803373ffffffffffffffffffffffffffffffffffffffff1673ffffffffffffffffffffffffffffffffffffffff16815260200190815260200160002060060181905550610ecf565b60008060003373ffffffffffffffffffffffffffffffffffffffff1673ffffffffffffffffffffffffffffffffffffffff1681526020019081526020016000206006018190555060009250610edc565b8080600101915050610a4b565b507f20714aea6f3ae48495fae75b80d83406a0a062aa17ee9a7c2074d9e41927c9e7336000803373ffffffffffffffffffffffffffffffffffffffff1673ffffffffffffffffffffffffffffffffffffffff1681526020019081526020016000206006015484604051610f5193929190611d7e565b60405180910390a15050565b6000806000905060006001805490509050600080905060008090505b8281101561101657600160008060018481548110610f9357fe5b9060005260206000200160009054906101000a900473ffffffffffffffffffffffffffffffffffffffff1673ffffffffffffffffffffffffffffffffffffffff1673ffffffffffffffffffffffffffffffffffffffff168152602001908152602001600020600601541415611009576001820191505b8080600101915050610f79565b5060006002838161102357fe5b06141561104f576002828161103457fe5b04811115611045576001925061104a565b600092505b611075565b6002600160028401038161105f57fe5b04811061106f5760019250611074565b600092505b5b7f4b18d741900a6306a7e5fa41a2e284010d585f209bc3c316625b95c41f28d94c8282856040516110a893929190611f12565b60405180910390a182935050505090565b600160006110c79190611669565b7fa47841374d96a9ef289e193682220ee61fa1a1025768d88c622147eb6c25c40160016040516110f79190611eb3565b60405180910390a1565b80600360008473ffffffffffffffffffffffffffffffffffffffff1673ffffffffffffffffffffffffffffffffffffffff168152602001908152602001600020819055507f6580d9131955a945a78c5a9f51bcb36345f43d0f3ec01195e4e012705c1d38828282604051611176929190611df3565b60405180910390a15050565b60008090503373ffffffffffffffffffffffffffffffffffffffff168373ffffffffffffffffffffffffffffffffffffffff16141561121a57816000808573ffffffffffffffffffffffffffffffffffffffff1673ffffffffffffffffffffffffffffffffffffffff168152602001908152602001600020600301908051906020019061121092919061168a565b506001905061135a565b816000803373ffffffffffffffffffffffffffffffffffffffff1673ffffffffffffffffffffffffffffffffffffffff16815260200190815260200160002060070160008573ffffffffffffffffffffffffffffffffffffffff1673ffffffffffffffffffffffffffffffffffffffff16815260200190815260200160002060000190805190602001906112af92919061168a565b506000803373ffffffffffffffffffffffffffffffffffffffff1673ffffffffffffffffffffffffffffffffffffffff1681526020019081526020016000206008018390806001815401808255809150509060018203906000526020600020016000909192909190916101000a81548173ffffffffffffffffffffffffffffffffffffffff021916908373ffffffffffffffffffffffffffffffffffffffff16021790555050600090505b7f0150ad3a33a1b2c85d979fd134f9a74b583426b923636e84b0e94e3212d52d0783838360405161138d93929190611db5565b60405180910390a1505050565b60008090503373ffffffffffffffffffffffffffffffffffffffff168373ffffffffffffffffffffffffffffffffffffffff16141561142257816000808573ffffffffffffffffffffffffffffffffffffffff1673ffffffffffffffffffffffffffffffffffffffff16815260200190815260200160002060040181905550600190506114ad565b816000803373ffffffffffffffffffffffffffffffffffffffff1673ffffffffffffffffffffffffffffffffffffffff16815260200190815260200160002060070160008573ffffffffffffffffffffffffffffffffffffffff1673ffffffffffffffffffffffffffffffffffffffff16815260200190815260200160002060010181905550600090505b7f3ff2eea47ed68b5cd4f493babb800d449eace179387e15830dd3fa52e593afa78383836040516114e093929190611e1c565b60405180910390a1505050565b60068060000160009054906101000a900473ffffffffffffffffffffffffffffffffffffffff1690806001018054600181600116156101000203166002900480601f0160208091040260200160405190810160405280929190818152602001828054600181600116156101000203166002900480156115ad5780601f10611582576101008083540402835291602001916115ad565b820191906000526020600020905b81548152906001019060200180831161159057829003601f168201915b5050505050905082565b828054828255906000526020600020908101928215611606579160200282015b828111156116055782518290805190602001906115f592919061170a565b50916020019190600101906115d7565b5b509050611613919061178a565b5090565b8280548282559060005260206000209081019282156116585760005260206000209182015b8281111561165757825482559160010191906001019061163c565b5b50905061166591906117b6565b5090565b508054600082559060005260206000209081019061168791906117f9565b50565b828054600181600116156101000203166002900490600052602060002090601f016020900481019282601f106116cb57805160ff19168380011785556116f9565b828001600101855582156116f9579182015b828111156116f85782518255916020019190600101906116dd565b5b50905061170691906117f9565b5090565b828054600181600116156101000203166002900490600052602060002090601f016020900481019282601f1061174b57805160ff1916838001178555611779565b82800160010185558215611779579182015b8281111561177857825182559160200191906001019061175d565b5b50905061178691906117f9565b5090565b6117b391905b808211156117af57600081816117a6919061181e565b50600101611790565b5090565b90565b6117f691905b808211156117f257600081816101000a81549073ffffffffffffffffffffffffffffffffffffffff0219169055506001016117bc565b5090565b90565b61181b91905b808211156118175760008160009055506001016117ff565b5090565b90565b50805460018160011615610100020316600290046000825580601f106118445750611863565b601f01602090049060005260206000209081019061186291906117f9565b5b50565b60008135905061187581612154565b92915050565b60008135905061188a8161216b565b92915050565b600082601f8301126118a157600080fd5b81356118b46118af82611f76565b611f49565b9150818183526020840193506020810190508360005b838110156118fa57813586016118e08882611904565b8452602084019350602083019250506001810190506118ca565b5050505092915050565b600082601f83011261191557600080fd5b813561192861192382611f9e565b611f49565b9150808252602083016020830185838301111561194457600080fd5b61194f8382846120f7565b50505092915050565b600082601f83011261196957600080fd5b813561197c61197782611fca565b611f49565b9150808252602083016020830185838301111561199857600080fd5b6119a38382846120f7565b50505092915050565b6000813590506119bb81612182565b92915050565b6000602082840312156119d357600080fd5b60006119e184828501611866565b91505092915050565b600080604083850312156119fd57600080fd5b6000611a0b85828601611866565b925050602083013567ffffffffffffffff811115611a2857600080fd5b611a3485828601611958565b9150509250929050565b60008060408385031215611a5157600080fd5b6000611a5f85828601611866565b9250506020611a70858286016119ac565b9150509250929050565b60008060408385031215611a8d57600080fd5b600083013567ffffffffffffffff811115611aa757600080fd5b611ab385828601611890565b9250506020611ac48582860161187b565b9150509250929050565b600060208284031215611ae057600080fd5b6000611aee848285016119ac565b91505092915050565b6000611b038383611bf5565b905092915050565b611b14816120c1565b82525050565b611b2381612079565b82525050565b611b3281612067565b82525050565b6000611b4382612006565b611b4d8185612034565b935083602082028501611b5f85611ff6565b8060005b85811015611b9b5784840389528151611b7c8582611af7565b9450611b8783612027565b925060208a01995050600181019050611b63565b50829750879550505050505092915050565b611bb68161208b565b82525050565b6000611bc78261201c565b611bd18185612056565b9350611be1818560208601612106565b611bea81612143565b840191505092915050565b6000611c0082612011565b611c0a8185612045565b9350611c1a818560208601612106565b611c2381612143565b840191505092915050565b6000611c3982612011565b611c438185612056565b9350611c53818560208601612106565b611c5c81612143565b840191505092915050565b611c70816120b7565b82525050565b611c87611c82826120b7565b612139565b82525050565b6000611c998284611c76565b60208201915081905092915050565b6000606082019050611cbd6000830186611b0b565b611cca6020830185611b0b565b611cd76040830184611c67565b949350505050565b6000604082019050611cf46000830185611b1a565b8181036020830152611d068184611c2e565b90509392505050565b600060c082019050611d246000830189611b1a565b8181036020830152611d368188611c2e565b90508181036040830152611d4a8187611c2e565b9050611d596060830186611c67565b611d666080830185611c67565b611d7360a0830184611c67565b979650505050505050565b6000606082019050611d936000830186611b0b565b611da06020830185611c67565b611dad6040830184611bad565b949350505050565b6000606082019050611dca6000830186611b29565b8181036020830152611ddc8185611bbc565b9050611deb6040830184611bad565b949350505050565b6000604082019050611e086000830185611b29565b611e156020830184611c67565b9392505050565b6000606082019050611e316000830186611b29565b611e3e6020830185611c67565b611e4b6040830184611bad565b949350505050565b60006020820190508181036000830152611e6d8184611b38565b905092915050565b60006060820190508181036000830152611e8f8186611b38565b9050611e9e6020830185611b0b565b611eab6040830184611bad565b949350505050565b6000602082019050611ec86000830184611bad565b92915050565b6000604082019050611ee36000830185611bad565b611ef06020830184611bad565b9392505050565b6000602082019050611f0c6000830184611c67565b92915050565b6000606082019050611f276000830186611c67565b611f346020830185611c67565b611f416040830184611bad565b949350505050565b6000604051905081810181811067ffffffffffffffff82111715611f6c57600080fd5b8060405250919050565b600067ffffffffffffffff821115611f8d57600080fd5b602082029050602081019050919050565b600067ffffffffffffffff821115611fb557600080fd5b601f19601f8301169050602081019050919050565b600067ffffffffffffffff821115611fe157600080fd5b601f19601f8301169050602081019050919050565b6000819050602082019050919050565b600081519050919050565b600081519050919050565b600081519050919050565b6000602082019050919050565b600082825260208201905092915050565b600082825260208201905092915050565b600082825260208201905092915050565b600061207282612097565b9050919050565b600061208482612097565b9050919050565b60008115159050919050565b600073ffffffffffffffffffffffffffffffffffffffff82169050919050565b6000819050919050565b60006120cc826120d3565b9050919050565b60006120de826120e5565b9050919050565b60006120f082612097565b9050919050565b82818337600083830152505050565b60005b83811015612124578082015181840152602081019050612109565b83811115612133576000848401525b50505050565b6000819050919050565b6000601f19601f8301169050919050565b61215d81612067565b811461216857600080fd5b50565b61217481612079565b811461217f57600080fd5b50565b61218b816120b7565b811461219657600080fd5b5056fea365627a7a72315820371cf5b764c9ce4809aca1cbd1c6179d82af664a74f95a37802c2094eaa003eb6c6578706572696d656e74616cf564736f6c63430005100040",
  "source": "pragma solidity ^0.5.16;\r\npragma experimental ABIEncoderV2;\r\n// import \"strings.sol\";\r\n\r\n\r\ncontract QodReward {\r\n    \r\n    // using strings for *;\r\n    \r\n    struct DataProvider {\r\n    address payable providerAddress;\r\n    string[] ipfsDataHash;\r\n    string aesKey;\r\n    string qodScore;\r\n    uint pmoney;\r\n    uint qodVote;  //qod--01\r\n    uint rewardVote;  //reward--01\r\n    mapping(address => OtherDataProvider) otherDataProvider;\r\n    address[] otherProAddressArry;\r\n    }\r\n\r\n    struct OtherDataProvider {\r\n        string qodScore;\r\n        uint pmoney;\r\n    }\r\n\r\n    struct DataConsumer {\r\n        address payable consumerAddress;\r\n        string ipfsAESPublicKey;\r\n    }\r\n\r\n    mapping(address => DataProvider) public dataProviders;\r\n    address payable[] dataProviderAddresses;\r\n    mapping(address => string) qodOfProvider; // providerqodconsumer\r\n    mapping(address => uint) moneyOfProvider;\r\n    address[] otherProAddress;  //provider\r\n\r\n    uint totalMoney = 0;\r\n    \r\n    DataConsumer public dataConsumer;\r\n\r\n    event SaveIpfs(string[] ipfsDataHashArry,address proAddress,bool isSaveSuccess);\r\n    event SaveQod(address proAddress,string score,bool isSelf);\r\n    event PublishMoney(uint tMoney);\r\n    event CalcuRewardByProvider(address proAddress,uint money,bool isSelf);\r\n    event CalcuRewardByConsumer(address proAddress,uint money);\r\n    event ProviderVerifiedReward(address proAddress,uint rewardVote,bool isAgree);\r\n    event IsAcceptReward(uint proLen,uint sum,bool isAccept);\r\n    event TansferContent(address from,address to,uint value);\r\n    event TransferSuccess(bool isAccept,bool IsTransferSuccess);\r\n    event ClearLastTrans(bool isClear);\r\n    \r\n    modifier etherProvided() {\r\n        require(msg.value > 0, \"Need ether to be greater than 0\");\r\n        _;\r\n    }\r\n    \r\n    /// Create a new contract\r\n    constructor(string memory _aesPublicKey) public {\r\n        dataConsumer = DataConsumer({\r\n            consumerAddress : msg.sender,\r\n            ipfsAESPublicKey : _aesPublicKey\r\n            });\r\n    }\r\n    \r\n    //1: ipfsHash --hash\r\n    function registerAsProvider (string[] memory ipfsDataHashArry,address payable proAddress) public {\r\n    \r\n        bool isSaveSuccess = false;\r\n        if (ipfsDataHashArry.length != 0 && proAddress != address(0x0)) {\r\n            dataProviders[proAddress].ipfsDataHash = ipfsDataHashArry;\r\n            dataProviders[proAddress].qodVote = 0; //provider\r\n            dataProviders[proAddress].rewardVote = 0;\r\n            dataProviderAddresses.push(proAddress);\r\n            isSaveSuccess = true;\r\n        }else{\r\n            isSaveSuccess = false;\r\n        }\r\n\r\n        emit SaveIpfs(ipfsDataHashArry,proAddress,isSaveSuccess);\r\n        \r\n       \r\n    }\r\n    \r\n    //2: 1ipfsHashfanhuigeifuwuqi\r\n    function getIPFSData (address proAddress) public returns (string[] memory ipfsHashArry) {\r\n        if (proAddress == msg.sender){\r\n            ipfsHashArry = dataProviders[proAddress].ipfsDataHash;\r\n            return ipfsHashArry; \r\n        }\r\n    }\r\n    \r\n    // //3AESAES\r\n    // function publishAESKey (address proAddress,string memory aesKey) public returns (bool isSuccess) {\r\n    //     if (proAddress == msg.sender){\r\n    //         dataProviders[proAddress].aesKey = aesKey;\r\n    //         return true;\r\n    //     }else{\r\n    //         return false;\r\n    //     }\r\n    // }\r\n    \r\n    // //3.1: AESKey\r\n    // function getAESKey (address proAddress) public returns(string memory theAesKey){\r\n    //     theAesKey = dataProviders[proAddress].aesKey;\r\n    //     return theAesKey;\r\n    // }\r\n    \r\n    //4qodqod\r\n    function calcuQod(address proAddress,string memory score) public {\r\n        bool isSelf = false;\r\n        \r\n        if (proAddress == msg.sender) {\r\n            dataProviders[proAddress].qodScore = score;\r\n            isSelf = true;\r\n        }else{\r\n            dataProviders[msg.sender].otherDataProvider[proAddress].qodScore = score;\r\n            dataProviders[msg.sender].otherProAddressArry.push(proAddress);\r\n            isSelf = false;\r\n        }\r\n\r\n        emit SaveQod(proAddress,score,isSelf);\r\n        \r\n    }\r\n    \r\n    // //5qodproviderqodprovider\r\n    // //\r\n      \r\n    // function verifiedData() public returns (bool isVerifiedSuccess,string memory allFailProAddress) {\r\n        \r\n    //     uint otherProviderSum = dataProviders[msg.sender].otherProAddressArry.length;\r\n    //     otherProAddress = dataProviders[msg.sender].otherProAddressArry;\r\n    //     for (uint i = 0;i < otherProviderSum;i++) {\r\n    //         if (keccak256(abi.encodePacked(dataProviders[msg.sender].otherDataProvider[otherProAddress[i]].qodScore)) == \r\n    //             keccak256(abi.encodePacked(dataProviders[otherProAddress[i]].qodScore))) {\r\n    //             continue;\r\n    //         }else{\r\n    //             // string memory failProAddress = addressToString(otherProAddress[i]);\r\n    //             allFailProAddress = addressToString(otherProAddress[i]).toSlice().concat(\"+\".toSlice());\r\n    //             dataProviders[msg.sender].qodVote = 0; //providervote0\r\n    //             return (false,allFailProAddress);\r\n    //         }\r\n    //     }\r\n    //     dataProviders[msg.sender].qodVote = 1; //providervote1\r\n    //     return (true,addressToString(msg.sender));\r\n    // }\r\n    \r\n    // //6\r\n    // function agree() public returns (bool isAllAgree){\r\n    //     uint proLen = dataProviderAddresses.length;\r\n    //     uint sum = 0;\r\n    //     for(uint i = 0;i < proLen;i++) {\r\n    //         if (dataProviders[dataProviderAddresses[i]].qodVote == 1 ) {\r\n    //             sum = sum + 1;\r\n    //         }\r\n    //     }\r\n        \r\n    //     //provider\r\n    //     if (sum == proLen) {\r\n    //         return true;\r\n    //     }else{\r\n    //         return false;\r\n    //     }\r\n    // }\r\n    \r\n    // //7Consumerqod\r\n    // //7.1 providerqod\r\n    // function getProviderQod(address proAddress) public returns (string memory qod) {\r\n    //     qod = dataProviders[proAddress].qodScore;\r\n    //     return qod;\r\n    // }\r\n    \r\n    //7.2 \r\n    function publishTotalMoney(uint tMoney) public {\r\n        totalMoney = tMoney;\r\n        emit PublishMoney(tMoney);\r\n    }\r\n    \r\n    // //8\r\n    // //8.1.1 provider:\r\n    // function getTotalMoney() public returns (uint tMoney) {\r\n    //     return totalMoney;\r\n    // }\r\n\r\n    //8.1.2 provider:\r\n    function calcuRewardByProvider(address proAddress,uint money) public {\r\n        bool isSelf = false;\r\n        if (proAddress == msg.sender) {\r\n            dataProviders[proAddress].pmoney = money;\r\n            isSelf = true;\r\n        }else{\r\n            dataProviders[msg.sender].otherDataProvider[proAddress].pmoney = money;\r\n            isSelf = false;\r\n        }\r\n        emit CalcuRewardByProvider(proAddress,money,isSelf);\r\n    }\r\n    \r\n    //8.2 consumerprovider\r\n    function calcuRewardByConsumer(address proAddress,uint money) public {\r\n        moneyOfProvider[proAddress] = money;\r\n        emit CalcuRewardByConsumer(proAddress,money);\r\n    }\r\n    \r\n    // //9\r\n    // //9.1 provider\r\n    // // function providerVerifiedReward() public returns (bool isVerifiedSuccess) {\r\n        \r\n    // //     uint otherProviderSum = dataProviders[msg.sender].otherProAddressArry.length;\r\n    // //     otherProAddress = dataProviders[msg.sender].otherProAddressArry;\r\n    // //     for (uint i = 0;i < otherProviderSum;i++) {\r\n    // //         if (keccak256(abi.encodePacked(dataProviders[msg.sender].otherDataProvider[otherProAddress[i]].pmoney)) == \r\n    // //             keccak256(abi.encodePacked(dataProviders[otherProAddress[i]].pmoney)) && \r\n    // //             keccak256(abi.encodePacked(dataProviders[msg.sender].otherDataProvider[otherProAddress[i]].pmoney)) == \r\n    // //             keccak256(abi.encodePacked(moneyOfProvider[otherProAddress[i]])) && \r\n    // //             keccak256(abi.encodePacked(dataProviders[msg.sender].pmoney)) == \r\n    // //             keccak256(abi.encodePacked(moneyOfProvider[msg.sender]))) {\r\n                    \r\n    // //             continue;\r\n    // //         }else{\r\n    // //             dataProviders[msg.sender].rewardVote = 0;\r\n    // //             return false;\r\n    // //         }\r\n    // //     }\r\n    // //     dataProviders[msg.sender].rewardVote = 1;\r\n    // //     return true;\r\n    // // }\r\n    \r\n     function providerVerifiedReward() public {\r\n        bool isAgree = true;\r\n\r\n        uint otherProviderSum = dataProviders[msg.sender].otherProAddressArry.length;\r\n        otherProAddress = dataProviders[msg.sender].otherProAddressArry;\r\n        for (uint i = 0;i < otherProviderSum;i++) {\r\n            if (keccak256(abi.encodePacked(dataProviders[msg.sender].otherDataProvider[otherProAddress[i]].pmoney)) == \r\n                keccak256(abi.encodePacked(dataProviders[otherProAddress[i]].pmoney)) && \r\n                keccak256(abi.encodePacked(dataProviders[msg.sender].otherDataProvider[otherProAddress[i]].pmoney)) == \r\n                keccak256(abi.encodePacked(moneyOfProvider[otherProAddress[i]])) && \r\n                keccak256(abi.encodePacked(dataProviders[msg.sender].pmoney)) == \r\n                keccak256(abi.encodePacked(moneyOfProvider[msg.sender]))) {\r\n                dataProviders[msg.sender].rewardVote = 1;    \r\n                continue;\r\n            }else{\r\n                // allFailProAddress = addressToString(otherProAddress[i]).toSlice().concat(\"+\".toSlice());\r\n                dataProviders[msg.sender].rewardVote = 0;\r\n                isAgree = false;\r\n                break;\r\n            }\r\n            \r\n        }\r\n        \r\n        emit ProviderVerifiedReward(msg.sender,dataProviders[msg.sender].rewardVote,isAgree);\r\n    }\r\n    \r\n    \r\n    // //9.2 consumer\r\n    // // function consumerVerifiedReward() public returns (bool isVerifiedSuccess,address failProAddress) {\r\n    // //     uint proLen = dataProviderAddresses.length;\r\n    // //     for (uint i = 0;i < proLen;i++) {\r\n    // //         if (moneyOfProvider[dataProviderAddresses[i]] == dataProviders[dataProviderAddresses[i]].pmoney) {\r\n    // //             continue;\r\n    // //         }else{\r\n    // //             failProAddress = dataProviderAddresses[i];\r\n    // //             return (false,failProAddress);\r\n    // //         }\r\n    // //     }\r\n    // //     return (true,msg.sender);\r\n    // // }\r\n    \r\n    \r\n    //  function consumerVerifiedReward() public returns (bool isVerifiedSuccess,string memory allFailProAddress) {\r\n    //     uint proLen = dataProviderAddresses.length;\r\n    //     for (uint i = 0;i < proLen;i++) {\r\n    //         if (moneyOfProvider[dataProviderAddresses[i]] == dataProviders[dataProviderAddresses[i]].pmoney) {\r\n    //             continue;\r\n    //         }else{\r\n    //             // failProAddress = dataProviderAddresses[i];\r\n    //             allFailProAddress = addressToString(otherProAddress[i]).toSlice().concat(\"+\".toSlice());\r\n    //             return (false,allFailProAddress);\r\n    //         }\r\n    //     }\r\n    //     return (true,addressToString(msg.sender));\r\n    // }\r\n    \r\n    \r\n    //10(9.1)\r\n    \r\n    //11\r\n    function isAcceptReward() public returns (bool) {\r\n        bool isAccept = false;\r\n        uint proLen = dataProviderAddresses.length;\r\n        uint sum = 0;\r\n        for(uint i = 0;i < proLen;i++) {\r\n            if (dataProviders[dataProviderAddresses[i]].rewardVote == 1 ) {\r\n                sum = sum + 1;\r\n            }\r\n        }\r\n        \r\n        if (proLen % 2 == 0){  //\r\n            if (sum > proLen/2) {   //50%\r\n                isAccept = true;\r\n                // return isAccept;\r\n            }else{\r\n                isAccept = false;\r\n                // return isAccept;\r\n            }\r\n        }else{  //\r\n            if (sum >= (proLen+2-1)/2) {    //50%\r\n                isAccept = true;\r\n                // return isAccept;\r\n            }else{\r\n                isAccept = false;\r\n                // return isAccept;\r\n            }\r\n        }\r\n\r\n        emit IsAcceptReward(proLen,sum,isAccept);\r\n        return isAccept;\r\n        \r\n    }\r\n    \r\n    //12consumer\r\n    //gas\r\n    function transferMoney() payable public {\r\n        bool IsTransferSuccess = false;\r\n        bool isAccept = isAcceptReward();\r\n        if (isAccept == true){\r\n            //  uint balance = address(this).balance;\r\n             uint proLen = dataProviderAddresses.length;\r\n            for (uint i = 0; i < proLen; i++) {\r\n                address payable _providerAddress = dataProviderAddresses[i];\r\n                address(_providerAddress).transfer(dataProviders[_providerAddress].pmoney);\r\n                emit TansferContent(msg.sender,dataProviderAddresses[i],dataProviders[_providerAddress].pmoney);\r\n            }\r\n            IsTransferSuccess = true;\r\n        }else{\r\n            IsTransferSuccess = false;\r\n        }\r\n        emit TransferSuccess(isAccept,IsTransferSuccess);\r\n    }\r\n    \r\n     //12consumer\r\n    //gas\r\n    // function transferMoney() payable public{\r\n    //     bool IsTransferSuccess = false;\r\n    //     bool isAccept = true;\r\n    //     uint m = 2;\r\n    //     if (isAccept == true){\r\n    //         //  uint balance = address(this).balance;\r\n    //          uint proLen = dataProviderAddresses.length;\r\n    //         for (uint i = 0; i < proLen; i++) {\r\n    //             // dataProviders[_providerAddress].pmoney = 2;\r\n    //             address payable _providerAddress = dataProviderAddresses[i];\r\n    //             address(_providerAddress).transfer(m);\r\n    //             emit TansferContent(msg.sender,dataProviderAddresses[i],m);\r\n    //         }\r\n    //         IsTransferSuccess = true;\r\n    //     }else{\r\n    //         IsTransferSuccess = false;\r\n    //     }\r\n    //     emit TransferSuccess(isAccept,IsTransferSuccess);\r\n    // }\r\n    \r\n    function clearLastTrans() public {\r\n        //consumer\r\n        delete dataProviderAddresses;\r\n        emit ClearLastTrans(true);\r\n    }\r\n    \r\n    \r\n    // //Tool: address change to string\r\n    // function addressToString(address x) public returns (string memory s) {\r\n    //     bytes memory b = new bytes(20);\r\n    //     for (uint i = 0; i < 20; i++)\r\n    //         b[i] = byte(uint8(uint(x) / (2**(8*(19 - i)))));\r\n    //     return string(b);\r\n    // }\r\n    \r\n}",
  "sourcePath": "D:\\LXW\\truffle_proj\\qodpro\\dataTruffleSys\\contracts\\QodReward.sol",
  "compiler": {
    "name": "solc",
    "version": "0.5.16+commit.9c3226ce.Emscripten.clang"
  },
  "schemaVersion": "3.0.23",
  "updatedAt": "2020-03-02T09:41:51.548Z",
  "networkType": "ethereum",
  "devdoc": {
    "methods": {}
  },
  "userdoc": {
    "methods": {
      "constructor": "Create a new contract"
    }
  }
}