{
  "contractName": "QodReward",
  "abi": [
    {
      "inputs": [
        {
          "internalType": "string",
          "name": "_aesPublicKey",
          "type": "string"
        }
      ],
      "payable": false,
      "stateMutability": "nonpayable",
      "type": "constructor"
    },
    {
      "anonymous": false,
      "inputs": [
        {
          "indexed": false,
          "internalType": "address",
          "name": "proAddress",
          "type": "address"
        },
        {
          "indexed": false,
          "internalType": "uint256",
          "name": "money",
          "type": "uint256"
        }
      ],
      "name": "CalcuRewardByConsumer",
      "type": "event"
    },
    {
      "anonymous": false,
      "inputs": [
        {
          "indexed": false,
          "internalType": "address",
          "name": "proAddress",
          "type": "address"
        },
        {
          "indexed": false,
          "internalType": "uint256",
          "name": "money",
          "type": "uint256"
        },
        {
          "indexed": false,
          "internalType": "bool",
          "name": "isSelf",
          "type": "bool"
        }
      ],
      "name": "CalcuRewardByProvider",
      "type": "event"
    },
    {
      "anonymous": false,
      "inputs": [
        {
          "indexed": false,
          "internalType": "uint256",
          "name": "proLen",
          "type": "uint256"
        },
        {
          "indexed": false,
          "internalType": "uint256",
          "name": "sum",
          "type": "uint256"
        },
        {
          "indexed": false,
          "internalType": "bool",
          "name": "isAccept",
          "type": "bool"
        }
      ],
      "name": "IsAcceptReward",
      "type": "event"
    },
    {
      "anonymous": false,
      "inputs": [
        {
          "indexed": false,
          "internalType": "address",
          "name": "proAddress",
          "type": "address"
        },
        {
          "indexed": false,
          "internalType": "uint256",
          "name": "rewardVote",
          "type": "uint256"
        },
        {
          "indexed": false,
          "internalType": "bool",
          "name": "isAgree",
          "type": "bool"
        }
      ],
      "name": "ProviderVerifiedReward",
      "type": "event"
    },
    {
      "anonymous": false,
      "inputs": [
        {
          "indexed": false,
          "internalType": "uint256",
          "name": "tMoney",
          "type": "uint256"
        }
      ],
      "name": "PublishMoney",
      "type": "event"
    },
    {
      "anonymous": false,
      "inputs": [
        {
          "indexed": false,
          "internalType": "string[]",
          "name": "ipfsDataHashArry",
          "type": "string[]"
        },
        {
          "indexed": false,
          "internalType": "address",
          "name": "proAddress",
          "type": "address"
        },
        {
          "indexed": false,
          "internalType": "bool",
          "name": "isSaveSuccess",
          "type": "bool"
        }
      ],
      "name": "SaveIpfs",
      "type": "event"
    },
    {
      "anonymous": false,
      "inputs": [
        {
          "indexed": false,
          "internalType": "address",
          "name": "proAddress",
          "type": "address"
        },
        {
          "indexed": false,
          "internalType": "string",
          "name": "score",
          "type": "string"
        },
        {
          "indexed": false,
          "internalType": "bool",
          "name": "isSelf",
          "type": "bool"
        }
      ],
      "name": "SaveQod",
      "type": "event"
    },
    {
      "anonymous": false,
      "inputs": [
        {
          "indexed": false,
          "internalType": "address",
          "name": "from",
          "type": "address"
        },
        {
          "indexed": false,
          "internalType": "address",
          "name": "to",
          "type": "address"
        },
        {
          "indexed": false,
          "internalType": "uint256",
          "name": "value",
          "type": "uint256"
        }
      ],
      "name": "TansferContent",
      "type": "event"
    },
    {
      "anonymous": false,
      "inputs": [
        {
          "indexed": false,
          "internalType": "bool",
          "name": "isAccept",
          "type": "bool"
        },
        {
          "indexed": false,
          "internalType": "bool",
          "name": "IsTransferSuccess",
          "type": "bool"
        }
      ],
      "name": "TransferSuccess",
      "type": "event"
    },
    {
      "constant": true,
      "inputs": [],
      "name": "dataConsumer",
      "outputs": [
        {
          "internalType": "address payable",
          "name": "consumerAddress",
          "type": "address"
        },
        {
          "internalType": "string",
          "name": "ipfsAESPublicKey",
          "type": "string"
        }
      ],
      "payable": false,
      "stateMutability": "view",
      "type": "function"
    },
    {
      "constant": true,
      "inputs": [
        {
          "internalType": "address",
          "name": "",
          "type": "address"
        }
      ],
      "name": "dataProviders",
      "outputs": [
        {
          "internalType": "address payable",
          "name": "providerAddress",
          "type": "address"
        },
        {
          "internalType": "string",
          "name": "aesKey",
          "type": "string"
        },
        {
          "internalType": "string",
          "name": "qodScore",
          "type": "string"
        },
        {
          "internalType": "uint256",
          "name": "pmoney",
          "type": "uint256"
        },
        {
          "internalType": "uint256",
          "name": "qodVote",
          "type": "uint256"
        },
        {
          "internalType": "uint256",
          "name": "rewardVote",
          "type": "uint256"
        }
      ],
      "payable": false,
      "stateMutability": "view",
      "type": "function"
    },
    {
      "constant": false,
      "inputs": [
        {
          "internalType": "string[]",
          "name": "ipfsDataHashArry",
          "type": "string[]"
        },
        {
          "internalType": "address payable",
          "name": "proAddress",
          "type": "address"
        }
      ],
      "name": "registerAsProvider",
      "outputs": [],
      "payable": false,
      "stateMutability": "nonpayable",
      "type": "function"
    },
    {
      "constant": false,
      "inputs": [
        {
          "internalType": "address",
          "name": "proAddress",
          "type": "address"
        }
      ],
      "name": "getIPFSData",
      "outputs": [
        {
          "internalType": "string[]",
          "name": "ipfsHashArry",
          "type": "string[]"
        }
      ],
      "payable": false,
      "stateMutability": "nonpayable",
      "type": "function"
    },
    {
      "constant": false,
      "inputs": [
        {
          "internalType": "address",
          "name": "proAddress",
          "type": "address"
        },
        {
          "internalType": "string",
          "name": "score",
          "type": "string"
        }
      ],
      "name": "calcuQod",
      "outputs": [],
      "payable": false,
      "stateMutability": "nonpayable",
      "type": "function"
    },
    {
      "constant": false,
      "inputs": [
        {
          "internalType": "uint256",
          "name": "tMoney",
          "type": "uint256"
        }
      ],
      "name": "publishTotalMoney",
      "outputs": [],
      "payable": false,
      "stateMutability": "nonpayable",
      "type": "function"
    },
    {
      "constant": false,
      "inputs": [
        {
          "internalType": "address",
          "name": "proAddress",
          "type": "address"
        },
        {
          "internalType": "uint256",
          "name": "money",
          "type": "uint256"
        }
      ],
      "name": "calcuRewardByProvider",
      "outputs": [],
      "payable": false,
      "stateMutability": "nonpayable",
      "type": "function"
    },
    {
      "constant": false,
      "inputs": [
        {
          "internalType": "address",
          "name": "proAddress",
          "type": "address"
        },
        {
          "internalType": "uint256",
          "name": "money",
          "type": "uint256"
        }
      ],
      "name": "calcuRewardByConsumer",
      "outputs": [],
      "payable": false,
      "stateMutability": "nonpayable",
      "type": "function"
    },
    {
      "constant": false,
      "inputs": [],
      "name": "providerVerifiedReward",
      "outputs": [],
      "payable": false,
      "stateMutability": "nonpayable",
      "type": "function"
    },
    {
      "constant": false,
      "inputs": [],
      "name": "isAcceptReward",
      "outputs": [
        {
          "internalType": "bool",
          "name": "",
          "type": "bool"
        }
      ],
      "payable": false,
      "stateMutability": "nonpayable",
      "type": "function"
    },
    {
      "constant": false,
      "inputs": [],
      "name": "transferMoney",
      "outputs": [],
      "payable": true,
      "stateMutability": "payable",
      "type": "function"
    }
  ],
  "bytecode": "0x608060405260006005553480156200001657600080fd5b506040516200241b3803806200241b83398181016040526200003c9190810190620001e4565b60405180604001604052803373ffffffffffffffffffffffffffffffffffffffff16815260200182815250600660008201518160000160006101000a81548173ffffffffffffffffffffffffffffffffffffffff021916908373ffffffffffffffffffffffffffffffffffffffff1602179055506020820151816001019080519060200190620000ce929190620000d9565b5090505050620002ba565b828054600181600116156101000203166002900490600052602060002090601f016020900481019282601f106200011c57805160ff19168380011785556200014d565b828001600101855582156200014d579182015b828111156200014c5782518255916020019190600101906200012f565b5b5090506200015c919062000160565b5090565b6200018591905b808211156200018157600081600090555060010162000167565b5090565b90565b600082601f8301126200019a57600080fd5b8151620001b1620001ab8262000257565b62000229565b91508082526020830160208301858383011115620001ce57600080fd5b620001db83828462000284565b50505092915050565b600060208284031215620001f757600080fd5b600082015167ffffffffffffffff8111156200021257600080fd5b620002208482850162000188565b91505092915050565b6000604051905081810181811067ffffffffffffffff821117156200024d57600080fd5b8060405250919050565b600067ffffffffffffffff8211156200026f57600080fd5b601f19601f8301169050602081019050919050565b60005b83811015620002a457808201518184015260208101905062000287565b83811115620002b4576000848401525b50505050565b61215180620002ca6000396000f3fe60806040526004361061009c5760003560e01c80639d5ee584116100645780639d5ee5841461017c578063cbfce9a414610193578063dda4e1b4146101be578063ee8a2716146101e7578063efbcd41314610210578063efc418e5146102395761009c565b806311ba9f78146100a157806334b27fca146100ca5780636cee6d7714610107578063780aac0314610111578063811a82b914610153575b600080fd5b3480156100ad57600080fd5b506100c860048036036100c391908101906119ef565b610265565b005b3480156100d657600080fd5b506100f160048036036100ec9190810190611936565b610446565b6040516100fe9190611dc8565b60405180910390f35b61010f6105ad565b005b34801561011d57600080fd5b5061013860048036036101339190810190611936565b6107b5565b60405161014a96959493929190611c84565b60405180910390f35b34801561015f57600080fd5b5061017a60048036036101759190810190611a43565b610941565b005b34801561018857600080fd5b50610191610982565b005b34801561019f57600080fd5b506101a8610f3b565b6040516101b59190611e28565b60405180910390f35b3480156101ca57600080fd5b506101e560048036036101e091908101906119b3565b611097565b005b3480156101f357600080fd5b5061020e6004803603610209919081019061195f565b611118565b005b34801561021c57600080fd5b50610237600480360361023291908101906119b3565b611330565b005b34801561024557600080fd5b5061024e611483565b60405161025c929190611c54565b60405180910390f35b600080905060008351141580156102a95750600073ffffffffffffffffffffffffffffffffffffffff168273ffffffffffffffffffffffffffffffffffffffff1614155b1561040157826000808473ffffffffffffffffffffffffffffffffffffffff1673ffffffffffffffffffffffffffffffffffffffff168152602001908152602001600020600101908051906020019061030392919061154d565b5060008060008473ffffffffffffffffffffffffffffffffffffffff1673ffffffffffffffffffffffffffffffffffffffff1681526020019081526020016000206005018190555060008060008473ffffffffffffffffffffffffffffffffffffffff1673ffffffffffffffffffffffffffffffffffffffff1681526020019081526020016000206006018190555060018290806001815401808255809150509060018203906000526020600020016000909192909190916101000a81548173ffffffffffffffffffffffffffffffffffffffff021916908373ffffffffffffffffffffffffffffffffffffffff1602179055505060019050610406565b600090505b7f988e71f2f828f83992c2991e460ddb41d05691712dc6f91aa3f3be9c48d0601383838360405161043993929190611dea565b60405180910390a1505050565b60603373ffffffffffffffffffffffffffffffffffffffff168273ffffffffffffffffffffffffffffffffffffffff1614156105a7576000808373ffffffffffffffffffffffffffffffffffffffff1673ffffffffffffffffffffffffffffffffffffffff168152602001908152602001600020600101805480602002602001604051908101604052809291908181526020016000905b82821015610599578382906000526020600020018054600181600116156101000203166002900480601f0160208091040260200160405190810160405280929190818152602001828054600181600116156101000203166002900480156105855780601f1061055a57610100808354040283529160200191610585565b820191906000526020600020905b81548152906001019060200180831161056857829003601f168201915b5050505050815260200190600101906104dd565b5050505090508090506105a8565b5b919050565b600080905060006105bc610f3b565b9050600115158115151415610773576000600180549050905060008090505b81811015610768576000600182815481106105f257fe5b9060005260206000200160009054906101000a900473ffffffffffffffffffffffffffffffffffffffff1690508073ffffffffffffffffffffffffffffffffffffffff166108fc6000808473ffffffffffffffffffffffffffffffffffffffff1673ffffffffffffffffffffffffffffffffffffffff168152602001908152602001600020600401549081150290604051600060405180830381858888f193505050501580156106a6573d6000803e3d6000fd5b507f795c827dd9db09df43cf599ac8241631b04f0f85b0bf779517096b53c32f09d633600184815481106106d657fe5b9060005260206000200160009054906101000a900473ffffffffffffffffffffffffffffffffffffffff166000808573ffffffffffffffffffffffffffffffffffffffff1673ffffffffffffffffffffffffffffffffffffffff1681526020019081526020016000206004015460405161075293929190611c1d565b60405180910390a15080806001019150506105db565b506001925050610778565b600091505b7f8d8fbaaca4ad51f0c94e89e4eddda9d63e7fbac50ec36cf9a543b69b31c2e8b981836040516107a9929190611e43565b60405180910390a15050565b60006020528060005260406000206000915090508060000160009054906101000a900473ffffffffffffffffffffffffffffffffffffffff1690806002018054600181600116156101000203166002900480601f0160208091040260200160405190810160405280929190818152602001828054600181600116156101000203166002900480156108875780601f1061085c57610100808354040283529160200191610887565b820191906000526020600020905b81548152906001019060200180831161086a57829003601f168201915b505050505090806003018054600181600116156101000203166002900480601f0160208091040260200160405190810160405280929190818152602001828054600181600116156101000203166002900480156109255780601f106108fa57610100808354040283529160200191610925565b820191906000526020600020905b81548152906001019060200180831161090857829003601f168201915b5050505050908060040154908060050154908060060154905086565b806005819055507f2be1dbffe7404932acf6dd9a97982c2c3ccec04181ee4a5021baa55a37356450816040516109779190611e6c565b60405180910390a150565b60006001905060008060003373ffffffffffffffffffffffffffffffffffffffff1673ffffffffffffffffffffffffffffffffffffffff1681526020019081526020016000206008018054905090506000803373ffffffffffffffffffffffffffffffffffffffff1673ffffffffffffffffffffffffffffffffffffffff1681526020019081526020016000206008016004908054610a229291906115ad565b5060008090505b81811015610eba5760008060048381548110610a4157fe5b9060005260206000200160009054906101000a900473ffffffffffffffffffffffffffffffffffffffff1673ffffffffffffffffffffffffffffffffffffffff1673ffffffffffffffffffffffffffffffffffffffff16815260200190815260200160002060040154604051602001610aba9190611c02565b604051602081830303815290604052805190602001206000803373ffffffffffffffffffffffffffffffffffffffff1673ffffffffffffffffffffffffffffffffffffffff168152602001908152602001600020600701600060048481548110610b2057fe5b9060005260206000200160009054906101000a900473ffffffffffffffffffffffffffffffffffffffff1673ffffffffffffffffffffffffffffffffffffffff1673ffffffffffffffffffffffffffffffffffffffff16815260200190815260200160002060010154604051602001610b999190611c02565b60405160208183030381529060405280519060200120148015610d3557506003600060048381548110610bc857fe5b9060005260206000200160009054906101000a900473ffffffffffffffffffffffffffffffffffffffff1673ffffffffffffffffffffffffffffffffffffffff1673ffffffffffffffffffffffffffffffffffffffff16815260200190815260200160002054604051602001610c3e9190611c02565b604051602081830303815290604052805190602001206000803373ffffffffffffffffffffffffffffffffffffffff1673ffffffffffffffffffffffffffffffffffffffff168152602001908152602001600020600701600060048481548110610ca457fe5b9060005260206000200160009054906101000a900473ffffffffffffffffffffffffffffffffffffffff1673ffffffffffffffffffffffffffffffffffffffff1673ffffffffffffffffffffffffffffffffffffffff16815260200190815260200160002060010154604051602001610d1d9190611c02565b60405160208183030381529060405280519060200120145b8015610e0c5750600360003373ffffffffffffffffffffffffffffffffffffffff1673ffffffffffffffffffffffffffffffffffffffff16815260200190815260200160002054604051602001610d8c9190611c02565b604051602081830303815290604052805190602001206000803373ffffffffffffffffffffffffffffffffffffffff1673ffffffffffffffffffffffffffffffffffffffff16815260200190815260200160002060040154604051602001610df49190611c02565b60405160208183030381529060405280519060200120145b15610e5d5760016000803373ffffffffffffffffffffffffffffffffffffffff1673ffffffffffffffffffffffffffffffffffffffff16815260200190815260200160002060060181905550610ead565b60008060003373ffffffffffffffffffffffffffffffffffffffff1673ffffffffffffffffffffffffffffffffffffffff1681526020019081526020016000206006018190555060009250610eba565b8080600101915050610a29565b507f20714aea6f3ae48495fae75b80d83406a0a062aa17ee9a7c2074d9e41927c9e7336000803373ffffffffffffffffffffffffffffffffffffffff1673ffffffffffffffffffffffffffffffffffffffff1681526020019081526020016000206006015484604051610f2f93929190611cf3565b60405180910390a15050565b6000806000905060006001805490509050600080905060008090505b82811015610ff457600160008060018481548110610f7157fe5b9060005260206000200160009054906101000a900473ffffffffffffffffffffffffffffffffffffffff1673ffffffffffffffffffffffffffffffffffffffff1673ffffffffffffffffffffffffffffffffffffffff168152602001908152602001600020600601541415610fe7576001820191505b8080600101915050610f57565b5060006002838161100157fe5b06141561102d576002828161101257fe5b048111156110235760019250611028565b600092505b611053565b6002600160028401038161103d57fe5b04811061104d5760019250611052565b600092505b5b7f4b18d741900a6306a7e5fa41a2e284010d585f209bc3c316625b95c41f28d94c82828560405161108693929190611e87565b60405180910390a182935050505090565b80600360008473ffffffffffffffffffffffffffffffffffffffff1673ffffffffffffffffffffffffffffffffffffffff168152602001908152602001600020819055507f6580d9131955a945a78c5a9f51bcb36345f43d0f3ec01195e4e012705c1d3882828260405161110c929190611d68565b60405180910390a15050565b60008090503373ffffffffffffffffffffffffffffffffffffffff168373ffffffffffffffffffffffffffffffffffffffff1614156111b057816000808573ffffffffffffffffffffffffffffffffffffffff1673ffffffffffffffffffffffffffffffffffffffff16815260200190815260200160002060030190805190602001906111a69291906115ff565b50600190506112f0565b816000803373ffffffffffffffffffffffffffffffffffffffff1673ffffffffffffffffffffffffffffffffffffffff16815260200190815260200160002060070160008573ffffffffffffffffffffffffffffffffffffffff1673ffffffffffffffffffffffffffffffffffffffff16815260200190815260200160002060000190805190602001906112459291906115ff565b506000803373ffffffffffffffffffffffffffffffffffffffff1673ffffffffffffffffffffffffffffffffffffffff1681526020019081526020016000206008018390806001815401808255809150509060018203906000526020600020016000909192909190916101000a81548173ffffffffffffffffffffffffffffffffffffffff021916908373ffffffffffffffffffffffffffffffffffffffff16021790555050600090505b7f0150ad3a33a1b2c85d979fd134f9a74b583426b923636e84b0e94e3212d52d0783838360405161132393929190611d2a565b60405180910390a1505050565b60008090503373ffffffffffffffffffffffffffffffffffffffff168373ffffffffffffffffffffffffffffffffffffffff1614156113b857816000808573ffffffffffffffffffffffffffffffffffffffff1673ffffffffffffffffffffffffffffffffffffffff1681526020019081526020016000206004018190555060019050611443565b816000803373ffffffffffffffffffffffffffffffffffffffff1673ffffffffffffffffffffffffffffffffffffffff16815260200190815260200160002060070160008573ffffffffffffffffffffffffffffffffffffffff1673ffffffffffffffffffffffffffffffffffffffff16815260200190815260200160002060010181905550600090505b7f3ff2eea47ed68b5cd4f493babb800d449eace179387e15830dd3fa52e593afa783838360405161147693929190611d91565b60405180910390a1505050565b60068060000160009054906101000a900473ffffffffffffffffffffffffffffffffffffffff1690806001018054600181600116156101000203166002900480601f0160208091040260200160405190810160405280929190818152602001828054600181600116156101000203166002900480156115435780601f1061151857610100808354040283529160200191611543565b820191906000526020600020905b81548152906001019060200180831161152657829003601f168201915b5050505050905082565b82805482825590600052602060002090810192821561159c579160200282015b8281111561159b57825182908051906020019061158b92919061167f565b509160200191906001019061156d565b5b5090506115a991906116ff565b5090565b8280548282559060005260206000209081019282156115ee5760005260206000209182015b828111156115ed5782548255916001019190600101906115d2565b5b5090506115fb919061172b565b5090565b828054600181600116156101000203166002900490600052602060002090601f016020900481019282601f1061164057805160ff191683800117855561166e565b8280016001018555821561166e579182015b8281111561166d578251825591602001919060010190611652565b5b50905061167b919061176e565b5090565b828054600181600116156101000203166002900490600052602060002090601f016020900481019282601f106116c057805160ff19168380011785556116ee565b828001600101855582156116ee579182015b828111156116ed5782518255916020019190600101906116d2565b5b5090506116fb919061176e565b5090565b61172891905b80821115611724576000818161171b9190611793565b50600101611705565b5090565b90565b61176b91905b8082111561176757600081816101000a81549073ffffffffffffffffffffffffffffffffffffffff021916905550600101611731565b5090565b90565b61179091905b8082111561178c576000816000905550600101611774565b5090565b90565b50805460018160011615610100020316600290046000825580601f106117b957506117d8565b601f0160209004906000526020600020908101906117d7919061176e565b5b50565b6000813590506117ea816120c9565b92915050565b6000813590506117ff816120e0565b92915050565b600082601f83011261181657600080fd5b813561182961182482611eeb565b611ebe565b9150818183526020840193506020810190508360005b8381101561186f57813586016118558882611879565b84526020840193506020830192505060018101905061183f565b5050505092915050565b600082601f83011261188a57600080fd5b813561189d61189882611f13565b611ebe565b915080825260208301602083018583830111156118b957600080fd5b6118c483828461206c565b50505092915050565b600082601f8301126118de57600080fd5b81356118f16118ec82611f3f565b611ebe565b9150808252602083016020830185838301111561190d57600080fd5b61191883828461206c565b50505092915050565b600081359050611930816120f7565b92915050565b60006020828403121561194857600080fd5b6000611956848285016117db565b91505092915050565b6000806040838503121561197257600080fd5b6000611980858286016117db565b925050602083013567ffffffffffffffff81111561199d57600080fd5b6119a9858286016118cd565b9150509250929050565b600080604083850312156119c657600080fd5b60006119d4858286016117db565b92505060206119e585828601611921565b9150509250929050565b60008060408385031215611a0257600080fd5b600083013567ffffffffffffffff811115611a1c57600080fd5b611a2885828601611805565b9250506020611a39858286016117f0565b9150509250929050565b600060208284031215611a5557600080fd5b6000611a6384828501611921565b91505092915050565b6000611a788383611b6a565b905092915050565b611a8981612036565b82525050565b611a9881611fee565b82525050565b611aa781611fdc565b82525050565b6000611ab882611f7b565b611ac28185611fa9565b935083602082028501611ad485611f6b565b8060005b85811015611b105784840389528151611af18582611a6c565b9450611afc83611f9c565b925060208a01995050600181019050611ad8565b50829750879550505050505092915050565b611b2b81612000565b82525050565b6000611b3c82611f91565b611b468185611fcb565b9350611b5681856020860161207b565b611b5f816120b8565b840191505092915050565b6000611b7582611f86565b611b7f8185611fba565b9350611b8f81856020860161207b565b611b98816120b8565b840191505092915050565b6000611bae82611f86565b611bb88185611fcb565b9350611bc881856020860161207b565b611bd1816120b8565b840191505092915050565b611be58161202c565b82525050565b611bfc611bf78261202c565b6120ae565b82525050565b6000611c0e8284611beb565b60208201915081905092915050565b6000606082019050611c326000830186611a80565b611c3f6020830185611a80565b611c4c6040830184611bdc565b949350505050565b6000604082019050611c696000830185611a8f565b8181036020830152611c7b8184611ba3565b90509392505050565b600060c082019050611c996000830189611a8f565b8181036020830152611cab8188611ba3565b90508181036040830152611cbf8187611ba3565b9050611cce6060830186611bdc565b611cdb6080830185611bdc565b611ce860a0830184611bdc565b979650505050505050565b6000606082019050611d086000830186611a80565b611d156020830185611bdc565b611d226040830184611b22565b949350505050565b6000606082019050611d3f6000830186611a9e565b8181036020830152611d518185611b31565b9050611d606040830184611b22565b949350505050565b6000604082019050611d7d6000830185611a9e565b611d8a6020830184611bdc565b9392505050565b6000606082019050611da66000830186611a9e565b611db36020830185611bdc565b611dc06040830184611b22565b949350505050565b60006020820190508181036000830152611de28184611aad565b905092915050565b60006060820190508181036000830152611e048186611aad565b9050611e136020830185611a80565b611e206040830184611b22565b949350505050565b6000602082019050611e3d6000830184611b22565b92915050565b6000604082019050611e586000830185611b22565b611e656020830184611b22565b9392505050565b6000602082019050611e816000830184611bdc565b92915050565b6000606082019050611e9c6000830186611bdc565b611ea96020830185611bdc565b611eb66040830184611b22565b949350505050565b6000604051905081810181811067ffffffffffffffff82111715611ee157600080fd5b8060405250919050565b600067ffffffffffffffff821115611f0257600080fd5b602082029050602081019050919050565b600067ffffffffffffffff821115611f2a57600080fd5b601f19601f8301169050602081019050919050565b600067ffffffffffffffff821115611f5657600080fd5b601f19601f8301169050602081019050919050565b6000819050602082019050919050565b600081519050919050565b600081519050919050565b600081519050919050565b6000602082019050919050565b600082825260208201905092915050565b600082825260208201905092915050565b600082825260208201905092915050565b6000611fe78261200c565b9050919050565b6000611ff98261200c565b9050919050565b60008115159050919050565b600073ffffffffffffffffffffffffffffffffffffffff82169050919050565b6000819050919050565b600061204182612048565b9050919050565b60006120538261205a565b9050919050565b60006120658261200c565b9050919050565b82818337600083830152505050565b60005b8381101561209957808201518184015260208101905061207e565b838111156120a8576000848401525b50505050565b6000819050919050565b6000601f19601f8301169050919050565b6120d281611fdc565b81146120dd57600080fd5b50565b6120e981611fee565b81146120f457600080fd5b50565b6121008161202c565b811461210b57600080fd5b5056fea365627a7a723158200f4b6489714a8c80f5b25973b0a962dcce9b16e966c85abd7aa6fc4d63e3cb826c6578706572696d656e74616cf564736f6c63430005100040",
  "source": "pragma solidity ^0.5.16;\r\npragma experimental ABIEncoderV2;\r\n// import \"strings.sol\";\r\n\r\n\r\ncontract QodReward {\r\n    \r\n    // using strings for *;\r\n    \r\n    struct DataProvider {\r\n    address payable providerAddress;\r\n    string[] ipfsDataHash;\r\n    string aesKey;\r\n    string qodScore;\r\n    uint pmoney;\r\n    uint qodVote;  //qod--01\r\n    uint rewardVote;  //reward--01\r\n    mapping(address => OtherDataProvider) otherDataProvider;\r\n    address[] otherProAddressArry;\r\n    }\r\n\r\n    struct OtherDataProvider {\r\n        string qodScore;\r\n        uint pmoney;\r\n    }\r\n\r\n    struct DataConsumer {\r\n        address payable consumerAddress;\r\n        string ipfsAESPublicKey;\r\n    }\r\n\r\n    mapping(address => DataProvider) public dataProviders;\r\n    address payable[] dataProviderAddresses;\r\n    mapping(address => string) qodOfProvider; // providerqodconsumer\r\n    mapping(address => uint) moneyOfProvider;\r\n    address[] otherProAddress;  //provider\r\n\r\n    uint totalMoney = 0;\r\n    \r\n    DataConsumer public dataConsumer;\r\n\r\n    event SaveIpfs(string[] ipfsDataHashArry,address proAddress,bool isSaveSuccess);\r\n    event SaveQod(address proAddress,string score,bool isSelf);\r\n    event PublishMoney(uint tMoney);\r\n    event CalcuRewardByProvider(address proAddress,uint money,bool isSelf);\r\n    event CalcuRewardByConsumer(address proAddress,uint money);\r\n    event ProviderVerifiedReward(address proAddress,uint rewardVote,bool isAgree);\r\n    event IsAcceptReward(uint proLen,uint sum,bool isAccept);\r\n    event TansferContent(address from,address to,uint value);\r\n    event TransferSuccess(bool isAccept,bool IsTransferSuccess);\r\n    \r\n    modifier etherProvided() {\r\n        require(msg.value > 0, \"Need ether to be greater than 0\");\r\n        _;\r\n    }\r\n    \r\n    /// Create a new contract\r\n    constructor(string memory _aesPublicKey) public {\r\n        dataConsumer = DataConsumer({\r\n            consumerAddress : msg.sender,\r\n            ipfsAESPublicKey : _aesPublicKey\r\n            });\r\n    }\r\n    \r\n    //1: ipfsHash --hash\r\n    function registerAsProvider (string[] memory ipfsDataHashArry,address payable proAddress) public {\r\n    \r\n        bool isSaveSuccess = false;\r\n        if (ipfsDataHashArry.length != 0 && proAddress != address(0x0)) {\r\n            dataProviders[proAddress].ipfsDataHash = ipfsDataHashArry;\r\n            dataProviders[proAddress].qodVote = 0; //provider\r\n            dataProviders[proAddress].rewardVote = 0;\r\n            dataProviderAddresses.push(proAddress);\r\n            isSaveSuccess = true;\r\n        }else{\r\n            isSaveSuccess = false;\r\n        }\r\n\r\n        emit SaveIpfs(ipfsDataHashArry,proAddress,isSaveSuccess);\r\n        \r\n       \r\n    }\r\n    \r\n    //2: 1ipfsHashfanhuigeifuwuqi\r\n    function getIPFSData (address proAddress) public returns (string[] memory ipfsHashArry) {\r\n        if (proAddress == msg.sender){\r\n            ipfsHashArry = dataProviders[proAddress].ipfsDataHash;\r\n            return ipfsHashArry; \r\n        }\r\n    }\r\n    \r\n    // //3AESAES\r\n    // function publishAESKey (address proAddress,string memory aesKey) public returns (bool isSuccess) {\r\n    //     if (proAddress == msg.sender){\r\n    //         dataProviders[proAddress].aesKey = aesKey;\r\n    //         return true;\r\n    //     }else{\r\n    //         return false;\r\n    //     }\r\n    // }\r\n    \r\n    // //3.1: AESKey\r\n    // function getAESKey (address proAddress) public returns(string memory theAesKey){\r\n    //     theAesKey = dataProviders[proAddress].aesKey;\r\n    //     return theAesKey;\r\n    // }\r\n    \r\n    //4qodqod\r\n    function calcuQod(address proAddress,string memory score) public {\r\n        bool isSelf = false;\r\n        \r\n        if (proAddress == msg.sender) {\r\n            dataProviders[proAddress].qodScore = score;\r\n            isSelf = true;\r\n        }else{\r\n            dataProviders[msg.sender].otherDataProvider[proAddress].qodScore = score;\r\n            dataProviders[msg.sender].otherProAddressArry.push(proAddress);\r\n            isSelf = false;\r\n        }\r\n\r\n        emit SaveQod(proAddress,score,isSelf);\r\n        \r\n    }\r\n    \r\n    // //5qodproviderqodprovider\r\n    // //\r\n      \r\n    // function verifiedData() public returns (bool isVerifiedSuccess,string memory allFailProAddress) {\r\n        \r\n    //     uint otherProviderSum = dataProviders[msg.sender].otherProAddressArry.length;\r\n    //     otherProAddress = dataProviders[msg.sender].otherProAddressArry;\r\n    //     for (uint i = 0;i < otherProviderSum;i++) {\r\n    //         if (keccak256(abi.encodePacked(dataProviders[msg.sender].otherDataProvider[otherProAddress[i]].qodScore)) == \r\n    //             keccak256(abi.encodePacked(dataProviders[otherProAddress[i]].qodScore))) {\r\n    //             continue;\r\n    //         }else{\r\n    //             // string memory failProAddress = addressToString(otherProAddress[i]);\r\n    //             allFailProAddress = addressToString(otherProAddress[i]).toSlice().concat(\"+\".toSlice());\r\n    //             dataProviders[msg.sender].qodVote = 0; //providervote0\r\n    //             return (false,allFailProAddress);\r\n    //         }\r\n    //     }\r\n    //     dataProviders[msg.sender].qodVote = 1; //providervote1\r\n    //     return (true,addressToString(msg.sender));\r\n    // }\r\n    \r\n    // //6\r\n    // function agree() public returns (bool isAllAgree){\r\n    //     uint proLen = dataProviderAddresses.length;\r\n    //     uint sum = 0;\r\n    //     for(uint i = 0;i < proLen;i++) {\r\n    //         if (dataProviders[dataProviderAddresses[i]].qodVote == 1 ) {\r\n    //             sum = sum + 1;\r\n    //         }\r\n    //     }\r\n        \r\n    //     //provider\r\n    //     if (sum == proLen) {\r\n    //         return true;\r\n    //     }else{\r\n    //         return false;\r\n    //     }\r\n    // }\r\n    \r\n    // //7Consumerqod\r\n    // //7.1 providerqod\r\n    // function getProviderQod(address proAddress) public returns (string memory qod) {\r\n    //     qod = dataProviders[proAddress].qodScore;\r\n    //     return qod;\r\n    // }\r\n    \r\n    //7.2 \r\n    function publishTotalMoney(uint tMoney) public {\r\n        totalMoney = tMoney;\r\n        emit PublishMoney(tMoney);\r\n    }\r\n    \r\n    // //8\r\n    // //8.1.1 provider:\r\n    // function getTotalMoney() public returns (uint tMoney) {\r\n    //     return totalMoney;\r\n    // }\r\n\r\n    //8.1.2 provider:\r\n    function calcuRewardByProvider(address proAddress,uint money) public {\r\n        bool isSelf = false;\r\n        if (proAddress == msg.sender) {\r\n            dataProviders[proAddress].pmoney = money;\r\n            isSelf = true;\r\n        }else{\r\n            dataProviders[msg.sender].otherDataProvider[proAddress].pmoney = money;\r\n            isSelf = false;\r\n        }\r\n        emit CalcuRewardByProvider(proAddress,money,isSelf);\r\n    }\r\n    \r\n    //8.2 consumerprovider\r\n    function calcuRewardByConsumer(address proAddress,uint money) public {\r\n        moneyOfProvider[proAddress] = money;\r\n        emit CalcuRewardByConsumer(proAddress,money);\r\n    }\r\n    \r\n    // //9\r\n    // //9.1 provider\r\n    // // function providerVerifiedReward() public returns (bool isVerifiedSuccess) {\r\n        \r\n    // //     uint otherProviderSum = dataProviders[msg.sender].otherProAddressArry.length;\r\n    // //     otherProAddress = dataProviders[msg.sender].otherProAddressArry;\r\n    // //     for (uint i = 0;i < otherProviderSum;i++) {\r\n    // //         if (keccak256(abi.encodePacked(dataProviders[msg.sender].otherDataProvider[otherProAddress[i]].pmoney)) == \r\n    // //             keccak256(abi.encodePacked(dataProviders[otherProAddress[i]].pmoney)) && \r\n    // //             keccak256(abi.encodePacked(dataProviders[msg.sender].otherDataProvider[otherProAddress[i]].pmoney)) == \r\n    // //             keccak256(abi.encodePacked(moneyOfProvider[otherProAddress[i]])) && \r\n    // //             keccak256(abi.encodePacked(dataProviders[msg.sender].pmoney)) == \r\n    // //             keccak256(abi.encodePacked(moneyOfProvider[msg.sender]))) {\r\n                    \r\n    // //             continue;\r\n    // //         }else{\r\n    // //             dataProviders[msg.sender].rewardVote = 0;\r\n    // //             return false;\r\n    // //         }\r\n    // //     }\r\n    // //     dataProviders[msg.sender].rewardVote = 1;\r\n    // //     return true;\r\n    // // }\r\n    \r\n     function providerVerifiedReward() public {\r\n        bool isAgree = true;\r\n\r\n        uint otherProviderSum = dataProviders[msg.sender].otherProAddressArry.length;\r\n        otherProAddress = dataProviders[msg.sender].otherProAddressArry;\r\n        for (uint i = 0;i < otherProviderSum;i++) {\r\n            if (keccak256(abi.encodePacked(dataProviders[msg.sender].otherDataProvider[otherProAddress[i]].pmoney)) == \r\n                keccak256(abi.encodePacked(dataProviders[otherProAddress[i]].pmoney)) && \r\n                keccak256(abi.encodePacked(dataProviders[msg.sender].otherDataProvider[otherProAddress[i]].pmoney)) == \r\n                keccak256(abi.encodePacked(moneyOfProvider[otherProAddress[i]])) && \r\n                keccak256(abi.encodePacked(dataProviders[msg.sender].pmoney)) == \r\n                keccak256(abi.encodePacked(moneyOfProvider[msg.sender]))) {\r\n                dataProviders[msg.sender].rewardVote = 1;    \r\n                continue;\r\n            }else{\r\n                // allFailProAddress = addressToString(otherProAddress[i]).toSlice().concat(\"+\".toSlice());\r\n                dataProviders[msg.sender].rewardVote = 0;\r\n                isAgree = false;\r\n                break;\r\n            }\r\n            \r\n        }\r\n        \r\n        emit ProviderVerifiedReward(msg.sender,dataProviders[msg.sender].rewardVote,isAgree);\r\n    }\r\n    \r\n    \r\n    // //9.2 consumer\r\n    // // function consumerVerifiedReward() public returns (bool isVerifiedSuccess,address failProAddress) {\r\n    // //     uint proLen = dataProviderAddresses.length;\r\n    // //     for (uint i = 0;i < proLen;i++) {\r\n    // //         if (moneyOfProvider[dataProviderAddresses[i]] == dataProviders[dataProviderAddresses[i]].pmoney) {\r\n    // //             continue;\r\n    // //         }else{\r\n    // //             failProAddress = dataProviderAddresses[i];\r\n    // //             return (false,failProAddress);\r\n    // //         }\r\n    // //     }\r\n    // //     return (true,msg.sender);\r\n    // // }\r\n    \r\n    \r\n    //  function consumerVerifiedReward() public returns (bool isVerifiedSuccess,string memory allFailProAddress) {\r\n    //     uint proLen = dataProviderAddresses.length;\r\n    //     for (uint i = 0;i < proLen;i++) {\r\n    //         if (moneyOfProvider[dataProviderAddresses[i]] == dataProviders[dataProviderAddresses[i]].pmoney) {\r\n    //             continue;\r\n    //         }else{\r\n    //             // failProAddress = dataProviderAddresses[i];\r\n    //             allFailProAddress = addressToString(otherProAddress[i]).toSlice().concat(\"+\".toSlice());\r\n    //             return (false,allFailProAddress);\r\n    //         }\r\n    //     }\r\n    //     return (true,addressToString(msg.sender));\r\n    // }\r\n    \r\n    \r\n    //10(9.1)\r\n    \r\n    //11\r\n    function isAcceptReward() public returns (bool) {\r\n        bool isAccept = false;\r\n        uint proLen = dataProviderAddresses.length;\r\n        uint sum = 0;\r\n        for(uint i = 0;i < proLen;i++) {\r\n            if (dataProviders[dataProviderAddresses[i]].rewardVote == 1 ) {\r\n                sum = sum + 1;\r\n            }\r\n        }\r\n        \r\n        if (proLen % 2 == 0){  //\r\n            if (sum > proLen/2) {   //50%\r\n                isAccept = true;\r\n                // return isAccept;\r\n            }else{\r\n                isAccept = false;\r\n                // return isAccept;\r\n            }\r\n        }else{  //\r\n            if (sum >= (proLen+2-1)/2) {    //50%\r\n                isAccept = true;\r\n                // return isAccept;\r\n            }else{\r\n                isAccept = false;\r\n                // return isAccept;\r\n            }\r\n        }\r\n\r\n        emit IsAcceptReward(proLen,sum,isAccept);\r\n        return isAccept;\r\n        \r\n    }\r\n    \r\n    //12consumer\r\n    //gas\r\n    function transferMoney() payable public {\r\n        bool IsTransferSuccess = false;\r\n        bool isAccept = isAcceptReward();\r\n        if (isAccept == true){\r\n            //  uint balance = address(this).balance;\r\n             uint proLen = dataProviderAddresses.length;\r\n            for (uint i = 0; i < proLen; i++) {\r\n                address payable _providerAddress = dataProviderAddresses[i];\r\n                address(_providerAddress).transfer(dataProviders[_providerAddress].pmoney);\r\n                emit TansferContent(msg.sender,dataProviderAddresses[i],dataProviders[_providerAddress].pmoney);\r\n            }\r\n            IsTransferSuccess = true;\r\n        }else{\r\n            IsTransferSuccess = false;\r\n        }\r\n        emit TransferSuccess(isAccept,IsTransferSuccess);\r\n    }\r\n    \r\n     //12consumer\r\n    //gas\r\n    // function transferMoney() payable public{\r\n    //     bool IsTransferSuccess = false;\r\n    //     bool isAccept = true;\r\n    //     uint m = 2;\r\n    //     if (isAccept == true){\r\n    //         //  uint balance = address(this).balance;\r\n    //          uint proLen = dataProviderAddresses.length;\r\n    //         for (uint i = 0; i < proLen; i++) {\r\n    //             // dataProviders[_providerAddress].pmoney = 2;\r\n    //             address payable _providerAddress = dataProviderAddresses[i];\r\n    //             address(_providerAddress).transfer(m);\r\n    //             emit TansferContent(msg.sender,dataProviderAddresses[i],m);\r\n    //         }\r\n    //         IsTransferSuccess = true;\r\n    //     }else{\r\n    //         IsTransferSuccess = false;\r\n    //     }\r\n    //     emit TransferSuccess(isAccept,IsTransferSuccess);\r\n    // }\r\n    \r\n    \r\n    \r\n    // //Tool: address change to string\r\n    // function addressToString(address x) public returns (string memory s) {\r\n    //     bytes memory b = new bytes(20);\r\n    //     for (uint i = 0; i < 20; i++)\r\n    //         b[i] = byte(uint8(uint(x) / (2**(8*(19 - i)))));\r\n    //     return string(b);\r\n    // }\r\n    \r\n}",
  "sourcePath": "D:\\LXW\\truffle_proj\\qodpro\\dataTruffleSys\\contracts\\QodReward.sol",
  "compiler": {
    "name": "solc",
    "version": "0.5.16+commit.9c3226ce.Emscripten.clang"
  },
  "schemaVersion": "3.0.23",
  "updatedAt": "2020-02-28T13:47:29.794Z",
  "networkType": "ethereum",
  "devdoc": {
    "methods": {}
  },
  "userdoc": {
    "methods": {
      "constructor": "Create a new contract"
    }
  }
}